{
  "contracts/DateTime.sol": {
    "DateTime": {
      "abi": [
        {
          "constant": true,
          "inputs": [
            {
              "name": "timestamp",
              "type": "uint256"
            }
          ],
          "name": "getHour",
          "outputs": [
            {
              "name": "",
              "type": "uint8"
            }
          ],
          "payable": false,
          "stateMutability": "pure",
          "type": "function"
        },
        {
          "constant": true,
          "inputs": [
            {
              "name": "timestamp",
              "type": "uint256"
            }
          ],
          "name": "getWeekday",
          "outputs": [
            {
              "name": "",
              "type": "uint8"
            }
          ],
          "payable": false,
          "stateMutability": "pure",
          "type": "function"
        },
        {
          "constant": true,
          "inputs": [
            {
              "name": "year",
              "type": "uint16"
            },
            {
              "name": "month",
              "type": "uint8"
            },
            {
              "name": "day",
              "type": "uint8"
            },
            {
              "name": "hour",
              "type": "uint8"
            },
            {
              "name": "minute",
              "type": "uint8"
            }
          ],
          "name": "toTimestamp",
          "outputs": [
            {
              "name": "timestamp",
              "type": "uint256"
            }
          ],
          "payable": false,
          "stateMutability": "pure",
          "type": "function"
        },
        {
          "constant": true,
          "inputs": [
            {
              "name": "timestamp",
              "type": "uint256"
            }
          ],
          "name": "getDay",
          "outputs": [
            {
              "name": "",
              "type": "uint8"
            }
          ],
          "payable": false,
          "stateMutability": "pure",
          "type": "function"
        },
        {
          "constant": true,
          "inputs": [
            {
              "name": "year",
              "type": "uint16"
            },
            {
              "name": "month",
              "type": "uint8"
            },
            {
              "name": "day",
              "type": "uint8"
            },
            {
              "name": "hour",
              "type": "uint8"
            }
          ],
          "name": "toTimestamp",
          "outputs": [
            {
              "name": "timestamp",
              "type": "uint256"
            }
          ],
          "payable": false,
          "stateMutability": "pure",
          "type": "function"
        },
        {
          "constant": true,
          "inputs": [
            {
              "name": "timestamp",
              "type": "uint256"
            }
          ],
          "name": "getSecond",
          "outputs": [
            {
              "name": "",
              "type": "uint8"
            }
          ],
          "payable": false,
          "stateMutability": "pure",
          "type": "function"
        },
        {
          "constant": true,
          "inputs": [
            {
              "name": "year",
              "type": "uint16"
            },
            {
              "name": "month",
              "type": "uint8"
            },
            {
              "name": "day",
              "type": "uint8"
            }
          ],
          "name": "toTimestamp",
          "outputs": [
            {
              "name": "timestamp",
              "type": "uint256"
            }
          ],
          "payable": false,
          "stateMutability": "pure",
          "type": "function"
        },
        {
          "constant": true,
          "inputs": [
            {
              "name": "year",
              "type": "uint16"
            },
            {
              "name": "month",
              "type": "uint8"
            },
            {
              "name": "day",
              "type": "uint8"
            },
            {
              "name": "hour",
              "type": "uint8"
            },
            {
              "name": "minute",
              "type": "uint8"
            },
            {
              "name": "second",
              "type": "uint8"
            }
          ],
          "name": "toTimestamp",
          "outputs": [
            {
              "name": "timestamp",
              "type": "uint256"
            }
          ],
          "payable": false,
          "stateMutability": "pure",
          "type": "function"
        },
        {
          "constant": true,
          "inputs": [
            {
              "name": "timestamp",
              "type": "uint256"
            }
          ],
          "name": "getYear",
          "outputs": [
            {
              "name": "",
              "type": "uint16"
            }
          ],
          "payable": false,
          "stateMutability": "pure",
          "type": "function"
        },
        {
          "constant": true,
          "inputs": [
            {
              "name": "timestamp",
              "type": "uint256"
            }
          ],
          "name": "getMonth",
          "outputs": [
            {
              "name": "",
              "type": "uint8"
            }
          ],
          "payable": false,
          "stateMutability": "pure",
          "type": "function"
        },
        {
          "constant": true,
          "inputs": [
            {
              "name": "year",
              "type": "uint16"
            }
          ],
          "name": "isLeapYear",
          "outputs": [
            {
              "name": "",
              "type": "bool"
            }
          ],
          "payable": false,
          "stateMutability": "pure",
          "type": "function"
        },
        {
          "constant": true,
          "inputs": [
            {
              "name": "year",
              "type": "uint256"
            }
          ],
          "name": "leapYearsBefore",
          "outputs": [
            {
              "name": "",
              "type": "uint256"
            }
          ],
          "payable": false,
          "stateMutability": "pure",
          "type": "function"
        },
        {
          "constant": true,
          "inputs": [
            {
              "name": "month",
              "type": "uint8"
            },
            {
              "name": "year",
              "type": "uint16"
            }
          ],
          "name": "getDaysInMonth",
          "outputs": [
            {
              "name": "",
              "type": "uint8"
            }
          ],
          "payable": false,
          "stateMutability": "pure",
          "type": "function"
        },
        {
          "constant": true,
          "inputs": [
            {
              "name": "timestamp",
              "type": "uint256"
            }
          ],
          "name": "beginOfDay",
          "outputs": [
            {
              "name": "",
              "type": "uint256"
            }
          ],
          "payable": false,
          "stateMutability": "pure",
          "type": "function"
        },
        {
          "constant": true,
          "inputs": [
            {
              "name": "timestamp",
              "type": "uint256"
            }
          ],
          "name": "getMinute",
          "outputs": [
            {
              "name": "",
              "type": "uint8"
            }
          ],
          "payable": false,
          "stateMutability": "pure",
          "type": "function"
        }
      ],
      "evm": {
        "bytecode": {
          "linkReferences": {},
          "object": "608060405234801561001057600080fd5b506108cb806100206000396000f3006080604052600436106100da5763ffffffff7c01000000000000000000000000000000000000000000000000000000006000350416633e239e1a81146100df5780634ac1ad781461010d57806362ba96871461012557806365c728401461016b5780637f791833146101835780638aa001fc146101b15780638c8d98a0146101c95780639054bdec146101f157806392d663131461022b578063a324ad241461025a578063a6f0e57714610272578063b1999937146102a2578063b238ad0e146102ba578063efd6ff9e146102dc578063fa93f883146102f4575b600080fd5b3480156100eb57600080fd5b506100f760043561030c565b6040805160ff9092168252519081900360200190f35b34801561011957600080fd5b506100f7600435610329565b34801561013157600080fd5b5061015961ffff6004351660ff6024358116906044358116906064358116906084351661033b565b60408051918252519081900360200190f35b34801561017757600080fd5b506100f7600435610356565b34801561018f57600080fd5b5061015961ffff6004351660ff6024358116906044358116906064351661036b565b3480156101bd57600080fd5b506100f7600435610385565b3480156101d557600080fd5b5061015961ffff6004351660ff6024358116906044351661038f565b3480156101fd57600080fd5b5061015961ffff6004351660ff60243581169060443581169060643581169060843581169060a435166103a9565b34801561023757600080fd5b506102436004356104ef565b6040805161ffff9092168252519081900360200190f35b34801561026657600080fd5b506100f760043561057f565b34801561027e57600080fd5b5061028e61ffff60043516610594565b604080519115158252519081900360200190f35b3480156102ae57600080fd5b506101596004356105e2565b3480156102c657600080fd5b506100f760ff6004351661ffff602435166105fd565b3480156102e857600080fd5b506101596004356106c5565b34801561030057600080fd5b506100f76004356106ea565b60006018603c8084045b0481151561032057fe5b0690505b919050565b60006007600462015180840401610320565b600061034c868686868660006103a9565b9695505050505050565b6000610361826106f5565b6040015192915050565b600061037c858585856000806103a9565b95945050505050565b6000603c82610320565b60006103a184848460008060006103a9565b949350505050565b6000806103b4610843565b6107b291505b8861ffff168261ffff1610156103fb576103d382610594565b156103e6576301e28500830192506103f0565b6301e13380830192505b6001909101906103ba565b601f815261040889610594565b1561041957601d6020820152610421565b601c60208201525b601f60408201819052601e606083018190526080830182905260a0830181905260c0830182905260e0830182905261010083018190526101208301829052610140830152610160820152600191505b8760ff168261ffff1610156104b1578061ffff600019840116600c811061049357fe5b602002015160ff166201518002830192508180600101925050610470565b6001870360ff166201518002830192508560ff16610e1002830192508460ff16603c02830192508360ff168301925082925050509695505050505050565b6000806107b26301e133808404810190829061050a906105e2565b6105178361ffff166105e2565b039050806301e285000283019250806107b2830361ffff16036301e1338002830192505b848311156105775761054f60018303610594565b15610562576301e285008303925061056c565b6301e13380830392505b60018203915061053b565b509392505050565b600061058a826106f5565b6020015192915050565b600060038216156105a757506000610324565b606461ffff83160661ffff16156105c057506001610324565b61019061ffff83160661ffff16156105da57506000610324565b506001919050565b60001901600061019082046064830460048404030192915050565b60008260ff166001148061061457508260ff166003145b8061062257508260ff166005145b8061063057508260ff166007145b8061063e57508260ff166008145b8061064c57508260ff16600a145b8061065a57508260ff16600c145b156106675750601f6106bf565b8260ff166004148061067c57508260ff166006145b8061068a57508260ff166009145b8061069857508260ff16600b145b156106a55750601e6106bf565b6106ae82610594565b156106bb5750601d6106bf565b50601c5b92915050565b60006106bf6106d3836104ef565b6106dc8461057f565b6106e585610356565b61038f565b6000603c8083610316565b6106fd610863565b600080808061070b866104ef565b61ffff16855261071c6107b26105e2565b855161072b9061ffff166105e2565b039250826301e285000284019350826107b286600001510361ffff16036301e133800284019350600191505b600c60ff8316116107a1576107708286600001516105fd565b60ff16620151800290508584820111156107925760ff821660208601526107a1565b92830192600190910190610757565b600191505b6107b8856020015186600001516105fd565b60ff168260ff161115156107f5578584620151800111156107e15760ff821660408601526107f5565b6201518093909301926001909101906107a6565b6107fe8661030c565b60ff16606086015261080f866106ea565b60ff16608086015261082086610385565b60ff1660a086015261083186610329565b60ff1660c08601525092949350505050565b61018060405190810160405280600c906020820280388339509192915050565b6040805160e081018252600080825260208201819052918101829052606081018290526080810182905260a0810182905260c0810191909152905600a165627a7a7230582004e379dc9c4136c0d23c9f01546f847b0737cde3e5decba4bfca39a8ac5b54210029",
          "opcodes": "PUSH1 0x80 PUSH1 0x40 MSTORE CALLVALUE DUP1 ISZERO PUSH2 0x10 JUMPI PUSH1 0x0 DUP1 REVERT JUMPDEST POP PUSH2 0x8CB DUP1 PUSH2 0x20 PUSH1 0x0 CODECOPY PUSH1 0x0 RETURN STOP PUSH1 0x80 PUSH1 0x40 MSTORE PUSH1 0x4 CALLDATASIZE LT PUSH2 0xDA JUMPI PUSH4 0xFFFFFFFF PUSH29 0x100000000000000000000000000000000000000000000000000000000 PUSH1 0x0 CALLDATALOAD DIV AND PUSH4 0x3E239E1A DUP2 EQ PUSH2 0xDF JUMPI DUP1 PUSH4 0x4AC1AD78 EQ PUSH2 0x10D JUMPI DUP1 PUSH4 0x62BA9687 EQ PUSH2 0x125 JUMPI DUP1 PUSH4 0x65C72840 EQ PUSH2 0x16B JUMPI DUP1 PUSH4 0x7F791833 EQ PUSH2 0x183 JUMPI DUP1 PUSH4 0x8AA001FC EQ PUSH2 0x1B1 JUMPI DUP1 PUSH4 0x8C8D98A0 EQ PUSH2 0x1C9 JUMPI DUP1 PUSH4 0x9054BDEC EQ PUSH2 0x1F1 JUMPI DUP1 PUSH4 0x92D66313 EQ PUSH2 0x22B JUMPI DUP1 PUSH4 0xA324AD24 EQ PUSH2 0x25A JUMPI DUP1 PUSH4 0xA6F0E577 EQ PUSH2 0x272 JUMPI DUP1 PUSH4 0xB1999937 EQ PUSH2 0x2A2 JUMPI DUP1 PUSH4 0xB238AD0E EQ PUSH2 0x2BA JUMPI DUP1 PUSH4 0xEFD6FF9E EQ PUSH2 0x2DC JUMPI DUP1 PUSH4 0xFA93F883 EQ PUSH2 0x2F4 JUMPI JUMPDEST PUSH1 0x0 DUP1 REVERT JUMPDEST CALLVALUE DUP1 ISZERO PUSH2 0xEB JUMPI PUSH1 0x0 DUP1 REVERT JUMPDEST POP PUSH2 0xF7 PUSH1 0x4 CALLDATALOAD PUSH2 0x30C JUMP JUMPDEST PUSH1 0x40 DUP1 MLOAD PUSH1 0xFF SWAP1 SWAP3 AND DUP3 MSTORE MLOAD SWAP1 DUP2 SWAP1 SUB PUSH1 0x20 ADD SWAP1 RETURN JUMPDEST CALLVALUE DUP1 ISZERO PUSH2 0x119 JUMPI PUSH1 0x0 DUP1 REVERT JUMPDEST POP PUSH2 0xF7 PUSH1 0x4 CALLDATALOAD PUSH2 0x329 JUMP JUMPDEST CALLVALUE DUP1 ISZERO PUSH2 0x131 JUMPI PUSH1 0x0 DUP1 REVERT JUMPDEST POP PUSH2 0x159 PUSH2 0xFFFF PUSH1 0x4 CALLDATALOAD AND PUSH1 0xFF PUSH1 0x24 CALLDATALOAD DUP2 AND SWAP1 PUSH1 0x44 CALLDATALOAD DUP2 AND SWAP1 PUSH1 0x64 CALLDATALOAD DUP2 AND SWAP1 PUSH1 0x84 CALLDATALOAD AND PUSH2 0x33B JUMP JUMPDEST PUSH1 0x40 DUP1 MLOAD SWAP2 DUP3 MSTORE MLOAD SWAP1 DUP2 SWAP1 SUB PUSH1 0x20 ADD SWAP1 RETURN JUMPDEST CALLVALUE DUP1 ISZERO PUSH2 0x177 JUMPI PUSH1 0x0 DUP1 REVERT JUMPDEST POP PUSH2 0xF7 PUSH1 0x4 CALLDATALOAD PUSH2 0x356 JUMP JUMPDEST CALLVALUE DUP1 ISZERO PUSH2 0x18F JUMPI PUSH1 0x0 DUP1 REVERT JUMPDEST POP PUSH2 0x159 PUSH2 0xFFFF PUSH1 0x4 CALLDATALOAD AND PUSH1 0xFF PUSH1 0x24 CALLDATALOAD DUP2 AND SWAP1 PUSH1 0x44 CALLDATALOAD DUP2 AND SWAP1 PUSH1 0x64 CALLDATALOAD AND PUSH2 0x36B JUMP JUMPDEST CALLVALUE DUP1 ISZERO PUSH2 0x1BD JUMPI PUSH1 0x0 DUP1 REVERT JUMPDEST POP PUSH2 0xF7 PUSH1 0x4 CALLDATALOAD PUSH2 0x385 JUMP JUMPDEST CALLVALUE DUP1 ISZERO PUSH2 0x1D5 JUMPI PUSH1 0x0 DUP1 REVERT JUMPDEST POP PUSH2 0x159 PUSH2 0xFFFF PUSH1 0x4 CALLDATALOAD AND PUSH1 0xFF PUSH1 0x24 CALLDATALOAD DUP2 AND SWAP1 PUSH1 0x44 CALLDATALOAD AND PUSH2 0x38F JUMP JUMPDEST CALLVALUE DUP1 ISZERO PUSH2 0x1FD JUMPI PUSH1 0x0 DUP1 REVERT JUMPDEST POP PUSH2 0x159 PUSH2 0xFFFF PUSH1 0x4 CALLDATALOAD AND PUSH1 0xFF PUSH1 0x24 CALLDATALOAD DUP2 AND SWAP1 PUSH1 0x44 CALLDATALOAD DUP2 AND SWAP1 PUSH1 0x64 CALLDATALOAD DUP2 AND SWAP1 PUSH1 0x84 CALLDATALOAD DUP2 AND SWAP1 PUSH1 0xA4 CALLDATALOAD AND PUSH2 0x3A9 JUMP JUMPDEST CALLVALUE DUP1 ISZERO PUSH2 0x237 JUMPI PUSH1 0x0 DUP1 REVERT JUMPDEST POP PUSH2 0x243 PUSH1 0x4 CALLDATALOAD PUSH2 0x4EF JUMP JUMPDEST PUSH1 0x40 DUP1 MLOAD PUSH2 0xFFFF SWAP1 SWAP3 AND DUP3 MSTORE MLOAD SWAP1 DUP2 SWAP1 SUB PUSH1 0x20 ADD SWAP1 RETURN JUMPDEST CALLVALUE DUP1 ISZERO PUSH2 0x266 JUMPI PUSH1 0x0 DUP1 REVERT JUMPDEST POP PUSH2 0xF7 PUSH1 0x4 CALLDATALOAD PUSH2 0x57F JUMP JUMPDEST CALLVALUE DUP1 ISZERO PUSH2 0x27E JUMPI PUSH1 0x0 DUP1 REVERT JUMPDEST POP PUSH2 0x28E PUSH2 0xFFFF PUSH1 0x4 CALLDATALOAD AND PUSH2 0x594 JUMP JUMPDEST PUSH1 0x40 DUP1 MLOAD SWAP2 ISZERO ISZERO DUP3 MSTORE MLOAD SWAP1 DUP2 SWAP1 SUB PUSH1 0x20 ADD SWAP1 RETURN JUMPDEST CALLVALUE DUP1 ISZERO PUSH2 0x2AE JUMPI PUSH1 0x0 DUP1 REVERT JUMPDEST POP PUSH2 0x159 PUSH1 0x4 CALLDATALOAD PUSH2 0x5E2 JUMP JUMPDEST CALLVALUE DUP1 ISZERO PUSH2 0x2C6 JUMPI PUSH1 0x0 DUP1 REVERT JUMPDEST POP PUSH2 0xF7 PUSH1 0xFF PUSH1 0x4 CALLDATALOAD AND PUSH2 0xFFFF PUSH1 0x24 CALLDATALOAD AND PUSH2 0x5FD JUMP JUMPDEST CALLVALUE DUP1 ISZERO PUSH2 0x2E8 JUMPI PUSH1 0x0 DUP1 REVERT JUMPDEST POP PUSH2 0x159 PUSH1 0x4 CALLDATALOAD PUSH2 0x6C5 JUMP JUMPDEST CALLVALUE DUP1 ISZERO PUSH2 0x300 JUMPI PUSH1 0x0 DUP1 REVERT JUMPDEST POP PUSH2 0xF7 PUSH1 0x4 CALLDATALOAD PUSH2 0x6EA JUMP JUMPDEST PUSH1 0x0 PUSH1 0x18 PUSH1 0x3C DUP1 DUP5 DIV JUMPDEST DIV DUP2 ISZERO ISZERO PUSH2 0x320 JUMPI INVALID JUMPDEST MOD SWAP1 POP JUMPDEST SWAP2 SWAP1 POP JUMP JUMPDEST PUSH1 0x0 PUSH1 0x7 PUSH1 0x4 PUSH3 0x15180 DUP5 DIV ADD PUSH2 0x320 JUMP JUMPDEST PUSH1 0x0 PUSH2 0x34C DUP7 DUP7 DUP7 DUP7 DUP7 PUSH1 0x0 PUSH2 0x3A9 JUMP JUMPDEST SWAP7 SWAP6 POP POP POP POP POP POP JUMP JUMPDEST PUSH1 0x0 PUSH2 0x361 DUP3 PUSH2 0x6F5 JUMP JUMPDEST PUSH1 0x40 ADD MLOAD SWAP3 SWAP2 POP POP JUMP JUMPDEST PUSH1 0x0 PUSH2 0x37C DUP6 DUP6 DUP6 DUP6 PUSH1 0x0 DUP1 PUSH2 0x3A9 JUMP JUMPDEST SWAP6 SWAP5 POP POP POP POP POP JUMP JUMPDEST PUSH1 0x0 PUSH1 0x3C DUP3 PUSH2 0x320 JUMP JUMPDEST PUSH1 0x0 PUSH2 0x3A1 DUP5 DUP5 DUP5 PUSH1 0x0 DUP1 PUSH1 0x0 PUSH2 0x3A9 JUMP JUMPDEST SWAP5 SWAP4 POP POP POP POP JUMP JUMPDEST PUSH1 0x0 DUP1 PUSH2 0x3B4 PUSH2 0x843 JUMP JUMPDEST PUSH2 0x7B2 SWAP2 POP JUMPDEST DUP9 PUSH2 0xFFFF AND DUP3 PUSH2 0xFFFF AND LT ISZERO PUSH2 0x3FB JUMPI PUSH2 0x3D3 DUP3 PUSH2 0x594 JUMP JUMPDEST ISZERO PUSH2 0x3E6 JUMPI PUSH4 0x1E28500 DUP4 ADD SWAP3 POP PUSH2 0x3F0 JUMP JUMPDEST PUSH4 0x1E13380 DUP4 ADD SWAP3 POP JUMPDEST PUSH1 0x1 SWAP1 SWAP2 ADD SWAP1 PUSH2 0x3BA JUMP JUMPDEST PUSH1 0x1F DUP2 MSTORE PUSH2 0x408 DUP10 PUSH2 0x594 JUMP JUMPDEST ISZERO PUSH2 0x419 JUMPI PUSH1 0x1D PUSH1 0x20 DUP3 ADD MSTORE PUSH2 0x421 JUMP JUMPDEST PUSH1 0x1C PUSH1 0x20 DUP3 ADD MSTORE JUMPDEST PUSH1 0x1F PUSH1 0x40 DUP3 ADD DUP2 SWAP1 MSTORE PUSH1 0x1E PUSH1 0x60 DUP4 ADD DUP2 SWAP1 MSTORE PUSH1 0x80 DUP4 ADD DUP3 SWAP1 MSTORE PUSH1 0xA0 DUP4 ADD DUP2 SWAP1 MSTORE PUSH1 0xC0 DUP4 ADD DUP3 SWAP1 MSTORE PUSH1 0xE0 DUP4 ADD DUP3 SWAP1 MSTORE PUSH2 0x100 DUP4 ADD DUP2 SWAP1 MSTORE PUSH2 0x120 DUP4 ADD DUP3 SWAP1 MSTORE PUSH2 0x140 DUP4 ADD MSTORE PUSH2 0x160 DUP3 ADD MSTORE PUSH1 0x1 SWAP2 POP JUMPDEST DUP8 PUSH1 0xFF AND DUP3 PUSH2 0xFFFF AND LT ISZERO PUSH2 0x4B1 JUMPI DUP1 PUSH2 0xFFFF PUSH1 0x0 NOT DUP5 ADD AND PUSH1 0xC DUP2 LT PUSH2 0x493 JUMPI INVALID JUMPDEST PUSH1 0x20 MUL ADD MLOAD PUSH1 0xFF AND PUSH3 0x15180 MUL DUP4 ADD SWAP3 POP DUP2 DUP1 PUSH1 0x1 ADD SWAP3 POP POP PUSH2 0x470 JUMP JUMPDEST PUSH1 0x1 DUP8 SUB PUSH1 0xFF AND PUSH3 0x15180 MUL DUP4 ADD SWAP3 POP DUP6 PUSH1 0xFF AND PUSH2 0xE10 MUL DUP4 ADD SWAP3 POP DUP5 PUSH1 0xFF AND PUSH1 0x3C MUL DUP4 ADD SWAP3 POP DUP4 PUSH1 0xFF AND DUP4 ADD SWAP3 POP DUP3 SWAP3 POP POP POP SWAP7 SWAP6 POP POP POP POP POP POP JUMP JUMPDEST PUSH1 0x0 DUP1 PUSH2 0x7B2 PUSH4 0x1E13380 DUP5 DIV DUP2 ADD SWAP1 DUP3 SWAP1 PUSH2 0x50A SWAP1 PUSH2 0x5E2 JUMP JUMPDEST PUSH2 0x517 DUP4 PUSH2 0xFFFF AND PUSH2 0x5E2 JUMP JUMPDEST SUB SWAP1 POP DUP1 PUSH4 0x1E28500 MUL DUP4 ADD SWAP3 POP DUP1 PUSH2 0x7B2 DUP4 SUB PUSH2 0xFFFF AND SUB PUSH4 0x1E13380 MUL DUP4 ADD SWAP3 POP JUMPDEST DUP5 DUP4 GT ISZERO PUSH2 0x577 JUMPI PUSH2 0x54F PUSH1 0x1 DUP4 SUB PUSH2 0x594 JUMP JUMPDEST ISZERO PUSH2 0x562 JUMPI PUSH4 0x1E28500 DUP4 SUB SWAP3 POP PUSH2 0x56C JUMP JUMPDEST PUSH4 0x1E13380 DUP4 SUB SWAP3 POP JUMPDEST PUSH1 0x1 DUP3 SUB SWAP2 POP PUSH2 0x53B JUMP JUMPDEST POP SWAP4 SWAP3 POP POP POP JUMP JUMPDEST PUSH1 0x0 PUSH2 0x58A DUP3 PUSH2 0x6F5 JUMP JUMPDEST PUSH1 0x20 ADD MLOAD SWAP3 SWAP2 POP POP JUMP JUMPDEST PUSH1 0x0 PUSH1 0x3 DUP3 AND ISZERO PUSH2 0x5A7 JUMPI POP PUSH1 0x0 PUSH2 0x324 JUMP JUMPDEST PUSH1 0x64 PUSH2 0xFFFF DUP4 AND MOD PUSH2 0xFFFF AND ISZERO PUSH2 0x5C0 JUMPI POP PUSH1 0x1 PUSH2 0x324 JUMP JUMPDEST PUSH2 0x190 PUSH2 0xFFFF DUP4 AND MOD PUSH2 0xFFFF AND ISZERO PUSH2 0x5DA JUMPI POP PUSH1 0x0 PUSH2 0x324 JUMP JUMPDEST POP PUSH1 0x1 SWAP2 SWAP1 POP JUMP JUMPDEST PUSH1 0x0 NOT ADD PUSH1 0x0 PUSH2 0x190 DUP3 DIV PUSH1 0x64 DUP4 DIV PUSH1 0x4 DUP5 DIV SUB ADD SWAP3 SWAP2 POP POP JUMP JUMPDEST PUSH1 0x0 DUP3 PUSH1 0xFF AND PUSH1 0x1 EQ DUP1 PUSH2 0x614 JUMPI POP DUP3 PUSH1 0xFF AND PUSH1 0x3 EQ JUMPDEST DUP1 PUSH2 0x622 JUMPI POP DUP3 PUSH1 0xFF AND PUSH1 0x5 EQ JUMPDEST DUP1 PUSH2 0x630 JUMPI POP DUP3 PUSH1 0xFF AND PUSH1 0x7 EQ JUMPDEST DUP1 PUSH2 0x63E JUMPI POP DUP3 PUSH1 0xFF AND PUSH1 0x8 EQ JUMPDEST DUP1 PUSH2 0x64C JUMPI POP DUP3 PUSH1 0xFF AND PUSH1 0xA EQ JUMPDEST DUP1 PUSH2 0x65A JUMPI POP DUP3 PUSH1 0xFF AND PUSH1 0xC EQ JUMPDEST ISZERO PUSH2 0x667 JUMPI POP PUSH1 0x1F PUSH2 0x6BF JUMP JUMPDEST DUP3 PUSH1 0xFF AND PUSH1 0x4 EQ DUP1 PUSH2 0x67C JUMPI POP DUP3 PUSH1 0xFF AND PUSH1 0x6 EQ JUMPDEST DUP1 PUSH2 0x68A JUMPI POP DUP3 PUSH1 0xFF AND PUSH1 0x9 EQ JUMPDEST DUP1 PUSH2 0x698 JUMPI POP DUP3 PUSH1 0xFF AND PUSH1 0xB EQ JUMPDEST ISZERO PUSH2 0x6A5 JUMPI POP PUSH1 0x1E PUSH2 0x6BF JUMP JUMPDEST PUSH2 0x6AE DUP3 PUSH2 0x594 JUMP JUMPDEST ISZERO PUSH2 0x6BB JUMPI POP PUSH1 0x1D PUSH2 0x6BF JUMP JUMPDEST POP PUSH1 0x1C JUMPDEST SWAP3 SWAP2 POP POP JUMP JUMPDEST PUSH1 0x0 PUSH2 0x6BF PUSH2 0x6D3 DUP4 PUSH2 0x4EF JUMP JUMPDEST PUSH2 0x6DC DUP5 PUSH2 0x57F JUMP JUMPDEST PUSH2 0x6E5 DUP6 PUSH2 0x356 JUMP JUMPDEST PUSH2 0x38F JUMP JUMPDEST PUSH1 0x0 PUSH1 0x3C DUP1 DUP4 PUSH2 0x316 JUMP JUMPDEST PUSH2 0x6FD PUSH2 0x863 JUMP JUMPDEST PUSH1 0x0 DUP1 DUP1 DUP1 PUSH2 0x70B DUP7 PUSH2 0x4EF JUMP JUMPDEST PUSH2 0xFFFF AND DUP6 MSTORE PUSH2 0x71C PUSH2 0x7B2 PUSH2 0x5E2 JUMP JUMPDEST DUP6 MLOAD PUSH2 0x72B SWAP1 PUSH2 0xFFFF AND PUSH2 0x5E2 JUMP JUMPDEST SUB SWAP3 POP DUP3 PUSH4 0x1E28500 MUL DUP5 ADD SWAP4 POP DUP3 PUSH2 0x7B2 DUP7 PUSH1 0x0 ADD MLOAD SUB PUSH2 0xFFFF AND SUB PUSH4 0x1E13380 MUL DUP5 ADD SWAP4 POP PUSH1 0x1 SWAP2 POP JUMPDEST PUSH1 0xC PUSH1 0xFF DUP4 AND GT PUSH2 0x7A1 JUMPI PUSH2 0x770 DUP3 DUP7 PUSH1 0x0 ADD MLOAD PUSH2 0x5FD JUMP JUMPDEST PUSH1 0xFF AND PUSH3 0x15180 MUL SWAP1 POP DUP6 DUP5 DUP3 ADD GT ISZERO PUSH2 0x792 JUMPI PUSH1 0xFF DUP3 AND PUSH1 0x20 DUP7 ADD MSTORE PUSH2 0x7A1 JUMP JUMPDEST SWAP3 DUP4 ADD SWAP3 PUSH1 0x1 SWAP1 SWAP2 ADD SWAP1 PUSH2 0x757 JUMP JUMPDEST PUSH1 0x1 SWAP2 POP JUMPDEST PUSH2 0x7B8 DUP6 PUSH1 0x20 ADD MLOAD DUP7 PUSH1 0x0 ADD MLOAD PUSH2 0x5FD JUMP JUMPDEST PUSH1 0xFF AND DUP3 PUSH1 0xFF AND GT ISZERO ISZERO PUSH2 0x7F5 JUMPI DUP6 DUP5 PUSH3 0x15180 ADD GT ISZERO PUSH2 0x7E1 JUMPI PUSH1 0xFF DUP3 AND PUSH1 0x40 DUP7 ADD MSTORE PUSH2 0x7F5 JUMP JUMPDEST PUSH3 0x15180 SWAP4 SWAP1 SWAP4 ADD SWAP3 PUSH1 0x1 SWAP1 SWAP2 ADD SWAP1 PUSH2 0x7A6 JUMP JUMPDEST PUSH2 0x7FE DUP7 PUSH2 0x30C JUMP JUMPDEST PUSH1 0xFF AND PUSH1 0x60 DUP7 ADD MSTORE PUSH2 0x80F DUP7 PUSH2 0x6EA JUMP JUMPDEST PUSH1 0xFF AND PUSH1 0x80 DUP7 ADD MSTORE PUSH2 0x820 DUP7 PUSH2 0x385 JUMP JUMPDEST PUSH1 0xFF AND PUSH1 0xA0 DUP7 ADD MSTORE PUSH2 0x831 DUP7 PUSH2 0x329 JUMP JUMPDEST PUSH1 0xFF AND PUSH1 0xC0 DUP7 ADD MSTORE POP SWAP3 SWAP5 SWAP4 POP POP POP POP JUMP JUMPDEST PUSH2 0x180 PUSH1 0x40 MLOAD SWAP1 DUP2 ADD PUSH1 0x40 MSTORE DUP1 PUSH1 0xC SWAP1 PUSH1 0x20 DUP3 MUL DUP1 CODESIZE DUP4 CODECOPY POP SWAP2 SWAP3 SWAP2 POP POP JUMP JUMPDEST PUSH1 0x40 DUP1 MLOAD PUSH1 0xE0 DUP2 ADD DUP3 MSTORE PUSH1 0x0 DUP1 DUP3 MSTORE PUSH1 0x20 DUP3 ADD DUP2 SWAP1 MSTORE SWAP2 DUP2 ADD DUP3 SWAP1 MSTORE PUSH1 0x60 DUP2 ADD DUP3 SWAP1 MSTORE PUSH1 0x80 DUP2 ADD DUP3 SWAP1 MSTORE PUSH1 0xA0 DUP2 ADD DUP3 SWAP1 MSTORE PUSH1 0xC0 DUP2 ADD SWAP2 SWAP1 SWAP2 MSTORE SWAP1 JUMP STOP LOG1 PUSH6 0x627A7A723058 KECCAK256 DIV 0xe3 PUSH26 0xDC9C4136C0D23C9F01546F847B0737CDE3E5DECBA4BFCA39A8AC JUMPDEST SLOAD 0x21 STOP 0x29 "
        },
        "methodIdentifiers": {
          "beginOfDay(uint256)": "efd6ff9e",
          "getDay(uint256)": "65c72840",
          "getDaysInMonth(uint8,uint16)": "b238ad0e",
          "getHour(uint256)": "3e239e1a",
          "getMinute(uint256)": "fa93f883",
          "getMonth(uint256)": "a324ad24",
          "getSecond(uint256)": "8aa001fc",
          "getWeekday(uint256)": "4ac1ad78",
          "getYear(uint256)": "92d66313",
          "isLeapYear(uint16)": "a6f0e577",
          "leapYearsBefore(uint256)": "b1999937",
          "toTimestamp(uint16,uint8,uint8)": "8c8d98a0",
          "toTimestamp(uint16,uint8,uint8,uint8)": "7f791833",
          "toTimestamp(uint16,uint8,uint8,uint8,uint8)": "62ba9687",
          "toTimestamp(uint16,uint8,uint8,uint8,uint8,uint8)": "9054bdec"
        }
      }
    }
  }
}