{
  "_format": "hh-sol-artifact-1",
  "contractName": "KeenConfig",
  "sourceName": "contracts/KeenConfig.sol",
  "abi": [
    {
      "inputs": [
        {
          "internalType": "address",
          "name": "_betReceive",
          "type": "address"
        },
        {
          "internalType": "address",
          "name": "_betSender",
          "type": "address"
        },
        {
          "internalType": "address",
          "name": "_dateTimeAPI",
          "type": "address"
        }
      ],
      "stateMutability": "nonpayable",
      "type": "constructor"
    },
    {
      "anonymous": false,
      "inputs": [
        {
          "indexed": true,
          "internalType": "bytes32",
          "name": "role",
          "type": "bytes32"
        },
        {
          "indexed": true,
          "internalType": "bytes32",
          "name": "previousAdminRole",
          "type": "bytes32"
        },
        {
          "indexed": true,
          "internalType": "bytes32",
          "name": "newAdminRole",
          "type": "bytes32"
        }
      ],
      "name": "RoleAdminChanged",
      "type": "event"
    },
    {
      "anonymous": false,
      "inputs": [
        {
          "indexed": true,
          "internalType": "bytes32",
          "name": "role",
          "type": "bytes32"
        },
        {
          "indexed": true,
          "internalType": "address",
          "name": "account",
          "type": "address"
        },
        {
          "indexed": true,
          "internalType": "address",
          "name": "sender",
          "type": "address"
        }
      ],
      "name": "RoleGranted",
      "type": "event"
    },
    {
      "anonymous": false,
      "inputs": [
        {
          "indexed": true,
          "internalType": "bytes32",
          "name": "role",
          "type": "bytes32"
        },
        {
          "indexed": true,
          "internalType": "address",
          "name": "account",
          "type": "address"
        },
        {
          "indexed": true,
          "internalType": "address",
          "name": "sender",
          "type": "address"
        }
      ],
      "name": "RoleRevoked",
      "type": "event"
    },
    {
      "inputs": [],
      "name": "DAY_SECONDS",
      "outputs": [
        {
          "internalType": "uint256",
          "name": "",
          "type": "uint256"
        }
      ],
      "stateMutability": "view",
      "type": "function"
    },
    {
      "inputs": [],
      "name": "DEFAULT_ADMIN_ROLE",
      "outputs": [
        {
          "internalType": "bytes32",
          "name": "",
          "type": "bytes32"
        }
      ],
      "stateMutability": "view",
      "type": "function"
    },
    {
      "inputs": [],
      "name": "MONTH_SECONDS",
      "outputs": [
        {
          "internalType": "uint256",
          "name": "",
          "type": "uint256"
        }
      ],
      "stateMutability": "view",
      "type": "function"
    },
    {
      "inputs": [],
      "name": "UPDATE_ROLE",
      "outputs": [
        {
          "internalType": "bytes32",
          "name": "",
          "type": "bytes32"
        }
      ],
      "stateMutability": "view",
      "type": "function"
    },
    {
      "inputs": [],
      "name": "betInterval",
      "outputs": [
        {
          "internalType": "uint256",
          "name": "",
          "type": "uint256"
        }
      ],
      "stateMutability": "view",
      "type": "function"
    },
    {
      "inputs": [
        {
          "internalType": "address",
          "name": "",
          "type": "address"
        }
      ],
      "name": "betMintFactor",
      "outputs": [
        {
          "internalType": "uint256",
          "name": "",
          "type": "uint256"
        }
      ],
      "stateMutability": "view",
      "type": "function"
    },
    {
      "inputs": [
        {
          "internalType": "address",
          "name": "",
          "type": "address"
        }
      ],
      "name": "betMintMax",
      "outputs": [
        {
          "internalType": "uint256",
          "name": "",
          "type": "uint256"
        }
      ],
      "stateMutability": "view",
      "type": "function"
    },
    {
      "inputs": [],
      "name": "betReceive",
      "outputs": [
        {
          "internalType": "address",
          "name": "",
          "type": "address"
        }
      ],
      "stateMutability": "view",
      "type": "function"
    },
    {
      "inputs": [],
      "name": "betSender",
      "outputs": [
        {
          "internalType": "address",
          "name": "",
          "type": "address"
        }
      ],
      "stateMutability": "view",
      "type": "function"
    },
    {
      "inputs": [],
      "name": "committeeFreedStartTime",
      "outputs": [
        {
          "internalType": "uint256",
          "name": "",
          "type": "uint256"
        }
      ],
      "stateMutability": "view",
      "type": "function"
    },
    {
      "inputs": [],
      "name": "committeeFreedTimes",
      "outputs": [
        {
          "internalType": "uint256",
          "name": "",
          "type": "uint256"
        }
      ],
      "stateMutability": "view",
      "type": "function"
    },
    {
      "inputs": [],
      "name": "committeeIntervalTime",
      "outputs": [
        {
          "internalType": "uint256",
          "name": "",
          "type": "uint256"
        }
      ],
      "stateMutability": "view",
      "type": "function"
    },
    {
      "inputs": [],
      "name": "committeeMinStack",
      "outputs": [
        {
          "internalType": "uint256",
          "name": "",
          "type": "uint256"
        }
      ],
      "stateMutability": "view",
      "type": "function"
    },
    {
      "inputs": [],
      "name": "currentCommitteeFreedStartTime",
      "outputs": [
        {
          "internalType": "uint256",
          "name": "",
          "type": "uint256"
        }
      ],
      "stateMutability": "view",
      "type": "function"
    },
    {
      "inputs": [],
      "name": "dateTimeAPI",
      "outputs": [
        {
          "internalType": "contract DateTimeAPI",
          "name": "",
          "type": "address"
        }
      ],
      "stateMutability": "view",
      "type": "function"
    },
    {
      "inputs": [],
      "name": "getBetOdds",
      "outputs": [
        {
          "internalType": "uint256[]",
          "name": "_betOdds",
          "type": "uint256[]"
        }
      ],
      "stateMutability": "view",
      "type": "function"
    },
    {
      "inputs": [],
      "name": "getInviteRates",
      "outputs": [
        {
          "internalType": "uint256[]",
          "name": "_inviteRates",
          "type": "uint256[]"
        }
      ],
      "stateMutability": "view",
      "type": "function"
    },
    {
      "inputs": [
        {
          "internalType": "bytes32",
          "name": "role",
          "type": "bytes32"
        }
      ],
      "name": "getRoleAdmin",
      "outputs": [
        {
          "internalType": "bytes32",
          "name": "",
          "type": "bytes32"
        }
      ],
      "stateMutability": "view",
      "type": "function"
    },
    {
      "inputs": [
        {
          "internalType": "bytes32",
          "name": "role",
          "type": "bytes32"
        },
        {
          "internalType": "uint256",
          "name": "index",
          "type": "uint256"
        }
      ],
      "name": "getRoleMember",
      "outputs": [
        {
          "internalType": "address",
          "name": "",
          "type": "address"
        }
      ],
      "stateMutability": "view",
      "type": "function"
    },
    {
      "inputs": [
        {
          "internalType": "bytes32",
          "name": "role",
          "type": "bytes32"
        }
      ],
      "name": "getRoleMemberCount",
      "outputs": [
        {
          "internalType": "uint256",
          "name": "",
          "type": "uint256"
        }
      ],
      "stateMutability": "view",
      "type": "function"
    },
    {
      "inputs": [],
      "name": "getStackRatios",
      "outputs": [
        {
          "internalType": "uint256[]",
          "name": "stackRatios",
          "type": "uint256[]"
        }
      ],
      "stateMutability": "view",
      "type": "function"
    },
    {
      "inputs": [
        {
          "internalType": "bytes32",
          "name": "role",
          "type": "bytes32"
        },
        {
          "internalType": "address",
          "name": "account",
          "type": "address"
        }
      ],
      "name": "grantRole",
      "outputs": [],
      "stateMutability": "nonpayable",
      "type": "function"
    },
    {
      "inputs": [
        {
          "internalType": "bytes32",
          "name": "role",
          "type": "bytes32"
        },
        {
          "internalType": "address",
          "name": "account",
          "type": "address"
        }
      ],
      "name": "hasRole",
      "outputs": [
        {
          "internalType": "bool",
          "name": "",
          "type": "bool"
        }
      ],
      "stateMutability": "view",
      "type": "function"
    },
    {
      "inputs": [
        {
          "internalType": "bytes32",
          "name": "role",
          "type": "bytes32"
        },
        {
          "internalType": "address",
          "name": "account",
          "type": "address"
        }
      ],
      "name": "renounceRole",
      "outputs": [],
      "stateMutability": "nonpayable",
      "type": "function"
    },
    {
      "inputs": [
        {
          "internalType": "bytes32",
          "name": "role",
          "type": "bytes32"
        },
        {
          "internalType": "address",
          "name": "account",
          "type": "address"
        }
      ],
      "name": "revokeRole",
      "outputs": [],
      "stateMutability": "nonpayable",
      "type": "function"
    },
    {
      "inputs": [
        {
          "internalType": "uint256",
          "name": "_betInterval",
          "type": "uint256"
        }
      ],
      "name": "setBetInterval",
      "outputs": [],
      "stateMutability": "nonpayable",
      "type": "function"
    },
    {
      "inputs": [
        {
          "internalType": "address",
          "name": "_pair",
          "type": "address"
        },
        {
          "internalType": "uint256",
          "name": "_factor",
          "type": "uint256"
        }
      ],
      "name": "setBetMintFactor",
      "outputs": [],
      "stateMutability": "nonpayable",
      "type": "function"
    },
    {
      "inputs": [
        {
          "internalType": "address",
          "name": "_pair",
          "type": "address"
        },
        {
          "internalType": "uint256",
          "name": "_max",
          "type": "uint256"
        }
      ],
      "name": "setBetMintMax",
      "outputs": [],
      "stateMutability": "nonpayable",
      "type": "function"
    },
    {
      "inputs": [
        {
          "internalType": "uint256[]",
          "name": "_betOdds",
          "type": "uint256[]"
        }
      ],
      "name": "setBetOdds",
      "outputs": [],
      "stateMutability": "nonpayable",
      "type": "function"
    },
    {
      "inputs": [
        {
          "internalType": "address",
          "name": "_betReceive",
          "type": "address"
        }
      ],
      "name": "setBetReceive",
      "outputs": [],
      "stateMutability": "nonpayable",
      "type": "function"
    },
    {
      "inputs": [
        {
          "internalType": "address",
          "name": "_betSender",
          "type": "address"
        }
      ],
      "name": "setBetSender",
      "outputs": [],
      "stateMutability": "nonpayable",
      "type": "function"
    },
    {
      "inputs": [
        {
          "internalType": "uint256",
          "name": "_committeeFreedStartTime",
          "type": "uint256"
        }
      ],
      "name": "setCommitteeFreedStartTime",
      "outputs": [],
      "stateMutability": "nonpayable",
      "type": "function"
    },
    {
      "inputs": [
        {
          "internalType": "uint256",
          "name": "_committeeFreedTimes",
          "type": "uint256"
        }
      ],
      "name": "setCommitteeFreedTimes",
      "outputs": [],
      "stateMutability": "nonpayable",
      "type": "function"
    },
    {
      "inputs": [
        {
          "internalType": "uint256",
          "name": "_committeeIntervalTime",
          "type": "uint256"
        }
      ],
      "name": "setCommitteeIntervalTime",
      "outputs": [],
      "stateMutability": "nonpayable",
      "type": "function"
    },
    {
      "inputs": [
        {
          "internalType": "uint256",
          "name": "_committeeMinStack",
          "type": "uint256"
        }
      ],
      "name": "setCommitteeMinStack",
      "outputs": [],
      "stateMutability": "nonpayable",
      "type": "function"
    },
    {
      "inputs": [
        {
          "internalType": "uint256[]",
          "name": "_inviteRates",
          "type": "uint256[]"
        }
      ],
      "name": "setInviteRates",
      "outputs": [],
      "stateMutability": "nonpayable",
      "type": "function"
    },
    {
      "inputs": [
        {
          "internalType": "uint256",
          "name": "_companyStackRatio",
          "type": "uint256"
        },
        {
          "internalType": "uint256",
          "name": "_committeeStackRatio",
          "type": "uint256"
        },
        {
          "internalType": "uint256",
          "name": "_shareholderStackRatio",
          "type": "uint256"
        }
      ],
      "name": "setStackRatios",
      "outputs": [],
      "stateMutability": "nonpayable",
      "type": "function"
    },
    {
      "inputs": [
        {
          "internalType": "bytes4",
          "name": "interfaceId",
          "type": "bytes4"
        }
      ],
      "name": "supportsInterface",
      "outputs": [
        {
          "internalType": "bool",
          "name": "",
          "type": "bool"
        }
      ],
      "stateMutability": "view",
      "type": "function"
    }
  ],
  "bytecode": "0x60c060405260c3608081815260a09190915262000021906003906002620002f1565b5060146006908155601e6007556032600855603c6009556040805161014081018252600a80825260208201939093526005918101919091526004606082015260036080820152600260a0820152600160c0820181905260e08201819052610100820181905261012082015262000099919081620002f1565b50600a600b55620000af62015180601e6200035d565b600c55620000c262015180601e6200035d565b620000cf9060036200035d565b600d5569010f0cf064dd59200000600e55348015620000ed57600080fd5b50604051620019ae380380620019ae8339810160408190526200011091620003a8565b6200011d6000336200018c565b620001497f3ee192ac25847473237ced4bba57f848e1fd794930ff85b42823290580967205336200018c565b600480546001600160a01b039485166001600160a01b031991821617909155600580549385169382169390931790925560028054919093169116179055620003f2565b6200019882826200019c565b5050565b620001b38282620001df60201b62000c271760201c565b6000828152600160209081526040909120620001da91839062000cab6200027f821b17901c565b505050565b6000828152602081815260408083206001600160a01b038516845290915290205460ff1662000198576000828152602081815260408083206001600160a01b03851684529091529020805460ff191660011790556200023b3390565b6001600160a01b0316816001600160a01b0316837f2f8788117e7eff1d82e926ec794901d17c78024a50270940304540a733656f0d60405160405180910390a45050565b600062000296836001600160a01b0384166200029f565b90505b92915050565b6000818152600183016020526040812054620002e85750815460018181018455600084815260208082209093018490558454848252828601909352604090209190915562000299565b50600062000299565b82805482825590600052602060002090810192821562000334579160200282015b8281111562000334578251829060ff1690559160200191906001019062000312565b506200034292915062000346565b5090565b5b8082111562000342576000815560010162000347565b60008160001904831182151516156200038657634e487b7160e01b600052601160045260246000fd5b500290565b80516001600160a01b0381168114620003a357600080fd5b919050565b600080600060608486031215620003be57600080fd5b620003c9846200038b565b9250620003d9602085016200038b565b9150620003e9604085016200038b565b90509250925092565b6115ac80620004026000396000f3fe608060405234801561001057600080fd5b50600436106102315760003560e01c806377cdd40011610130578063a82d2e30116100b8578063ca15c8731161007c578063ca15c873146104b8578063d1426e1c146104cb578063d547741f146104d3578063e0222522146104e6578063f4a814fd146104f957600080fd5b8063a82d2e3014610463578063a942dcf114610476578063aab7069814610489578063ab72024a1461049c578063baf6d282146104a557600080fd5b80639010d07c116100ff5780639010d07c1461042357806391d148541461043657806392ae399814610449578063969e651f14610452578063a217fddf1461045b57600080fd5b806377cdd400146103e25780637a89cfff146103ea5780637e48abff146103fd5780638750f6081461041057600080fd5b806336568abe116101be57806358e6d53c1161018257806358e6d53c146103a15780635d915ebb146103ab57806360b65a7d146103b35780636e822068146103bc57806376a2a7cb146103cf57600080fd5b806336568abe14610340578063382ccb7d146103535780633fc30a93146103665780634830a7cc146103795780634e926bc91461038e57600080fd5b8063091426a511610205578063091426a5146102b55780631afe7d73146102d5578063222b6315146102f5578063248a9ca31461030a5780632f2ff15d1461032d57600080fd5b80624978461461023657806301ffc9a71461025e5780630379a34914610281578063084cc5111461028a575b600080fd5b61024b60008051602061155783398151915281565b6040519081526020015b60405180910390f35b61027161026c3660046111a2565b610501565b6040519015158152602001610255565b61024b600e5481565b60055461029d906001600160a01b031681565b6040516001600160a01b039091168152602001610255565b61024b6102c33660046111e8565b600f6020526000908152604090205481565b61024b6102e33660046111e8565b60106020526000908152604090205481565b610308610303366004611203565b61052c565b005b61024b61031836600461122d565b60009081526020819052604090206001015490565b61030861033b366004611246565b610596565b61030861034e366004611246565b6105c0565b6103086103613660046111e8565b61063e565b61030861037436600461122d565b6106a5565b6103816106ef565b6040516102559190611272565b60025461029d906001600160a01b031681565b61024b6201518081565b61024b61077a565b61024b600b5481565b6103086103ca3660046112b6565b6107ff565b6103086103dd3660046112b6565b610850565b6103816108a1565b6103086103f836600461122d565b6108f9565b61030861040b36600461122d565b610943565b61030861041e36600461122d565b61098d565b61029d61043136600461132b565b6109d7565b610271610444366004611246565b6109f6565b61024b600c5481565b61024b60095481565b61024b600081565b61030861047136600461122d565b610a1f565b610308610484366004611203565b610a69565b6103086104973660046111e8565b610aca565b61024b600d5481565b6103086104b336600461134d565b610b31565b61024b6104c636600461122d565b610b84565b610381610b9b565b6103086104e1366004611246565b610bf1565b60045461029d906001600160a01b031681565b61024b610c16565b60006001600160e01b03198216635a05180f60e01b1480610526575061052682610cc0565b92915050565b610544600080516020611557833981519152336109f6565b8061055557506105556000336109f6565b61057a5760405162461bcd60e51b815260040161057190611379565b60405180910390fd5b6001600160a01b03909116600090815260106020526040902055565b6000828152602081905260409020600101546105b181610cf5565b6105bb8383610d02565b505050565b6001600160a01b03811633146106305760405162461bcd60e51b815260206004820152602f60248201527f416363657373436f6e74726f6c3a2063616e206f6e6c792072656e6f756e636560448201526e103937b632b9903337b91039b2b63360891b6064820152608401610571565b61063a8282610d24565b5050565b610656600080516020611557833981519152336109f6565b8061066757506106676000336109f6565b6106835760405162461bcd60e51b815260040161057190611379565b600580546001600160a01b0319166001600160a01b0392909216919091179055565b6106bd600080516020611557833981519152336109f6565b806106ce57506106ce6000336109f6565b6106ea5760405162461bcd60e51b815260040161057190611379565b600b55565b6040805160038082526080820190925260609160208201838036833701905050905060065481600081518110610727576107276113be565b60200260200101818152505060075481600181518110610749576107496113be565b6020026020010181815250506008548160028151811061076b5761076b6113be565b60200260200101818152505090565b600080600d544261078b91906113ea565b6002546040516377eb7fcf60e11b8152600481018390529192506001600160a01b03169063efd6ff9e90602401602060405180830381865afa1580156107d5573d6000803e3d6000fd5b505050506040513d601f19601f820116820180604052508101906107f99190611402565b91505090565b610817600080516020611557833981519152336109f6565b8061082857506108286000336109f6565b6108445760405162461bcd60e51b815260040161057190611379565b6105bb600a8383611142565b610868600080516020611557833981519152336109f6565b8061087957506108796000336109f6565b6108955760405162461bcd60e51b815260040161057190611379565b6105bb60038383611142565b6060600a8054806020026020016040519081016040528092919081815260200182805480156108ef57602002820191906000526020600020905b8154815260200190600101908083116108db575b5050505050905090565b610911600080516020611557833981519152336109f6565b8061092257506109226000336109f6565b61093e5760405162461bcd60e51b815260040161057190611379565b600d55565b61095b600080516020611557833981519152336109f6565b8061096c575061096c6000336109f6565b6109885760405162461bcd60e51b815260040161057190611379565b600c55565b6109a5600080516020611557833981519152336109f6565b806109b657506109b66000336109f6565b6109d25760405162461bcd60e51b815260040161057190611379565b600e55565b60008281526001602052604081206109ef9083610d46565b9392505050565b6000918252602082815260408084206001600160a01b0393909316845291905290205460ff1690565b610a37600080516020611557833981519152336109f6565b80610a485750610a486000336109f6565b610a645760405162461bcd60e51b815260040161057190611379565b600955565b610a81600080516020611557833981519152336109f6565b80610a925750610a926000336109f6565b610aae5760405162461bcd60e51b815260040161057190611379565b6001600160a01b039091166000908152600f6020526040902055565b610ae2600080516020611557833981519152336109f6565b80610af35750610af36000336109f6565b610b0f5760405162461bcd60e51b815260040161057190611379565b600480546001600160a01b0319166001600160a01b0392909216919091179055565b610b49600080516020611557833981519152336109f6565b80610b5a5750610b5a6000336109f6565b610b765760405162461bcd60e51b815260040161057190611379565b600692909255600755600855565b600081815260016020526040812061052690610d52565b606060038054806020026020016040519081016040528092919081815260200182805480156108ef57602002820191906000526020600020908154815260200190600101908083116108db575050505050905090565b600082815260208190526040902060010154610c0c81610cf5565b6105bb8383610d24565b610c2462015180601e61141b565b81565b610c3182826109f6565b61063a576000828152602081815260408083206001600160a01b03851684529091529020805460ff19166001179055610c673390565b6001600160a01b0316816001600160a01b0316837f2f8788117e7eff1d82e926ec794901d17c78024a50270940304540a733656f0d60405160405180910390a45050565b60006109ef836001600160a01b038416610d5c565b60006001600160e01b03198216637965db0b60e01b148061052657506301ffc9a760e01b6001600160e01b0319831614610526565b610cff8133610dab565b50565b610d0c8282610c27565b60008281526001602052604090206105bb9082610cab565b610d2e8282610e0f565b60008281526001602052604090206105bb9082610e74565b60006109ef8383610e89565b6000610526825490565b6000818152600183016020526040812054610da357508154600181810184556000848152602080822090930184905584548482528286019093526040902091909155610526565b506000610526565b610db582826109f6565b61063a57610dcd816001600160a01b03166014610eb3565b610dd8836020610eb3565b604051602001610de992919061146a565b60408051601f198184030181529082905262461bcd60e51b8252610571916004016114df565b610e1982826109f6565b1561063a576000828152602081815260408083206001600160a01b0385168085529252808320805460ff1916905551339285917ff6391f5c32d9c69d2a47ea670b442974b53935d1edc7fd64eb21e047a839171b9190a45050565b60006109ef836001600160a01b03841661104f565b6000826000018281548110610ea057610ea06113be565b9060005260206000200154905092915050565b60606000610ec283600261141b565b610ecd9060026113ea565b67ffffffffffffffff811115610ee557610ee56113a8565b6040519080825280601f01601f191660200182016040528015610f0f576020820181803683370190505b509050600360fc1b81600081518110610f2a57610f2a6113be565b60200101906001600160f81b031916908160001a905350600f60fb1b81600181518110610f5957610f596113be565b60200101906001600160f81b031916908160001a9053506000610f7d84600261141b565b610f889060016113ea565b90505b6001811115611000576f181899199a1a9b1b9c1cb0b131b232b360811b85600f1660108110610fbc57610fbc6113be565b1a60f81b828281518110610fd257610fd26113be565b60200101906001600160f81b031916908160001a90535060049490941c93610ff981611512565b9050610f8b565b5083156109ef5760405162461bcd60e51b815260206004820181905260248201527f537472696e67733a20686578206c656e67746820696e73756666696369656e746044820152606401610571565b60008181526001830160205260408120548015611138576000611073600183611529565b855490915060009061108790600190611529565b90508181146110ec5760008660000182815481106110a7576110a76113be565b90600052602060002001549050808760000184815481106110ca576110ca6113be565b6000918252602080832090910192909255918252600188019052604090208390555b85548690806110fd576110fd611540565b600190038181906000526020600020016000905590558560010160008681526020019081526020016000206000905560019350505050610526565b6000915050610526565b82805482825590600052602060002090810192821561117d579160200282015b8281111561117d578235825591602001919060010190611162565b5061118992915061118d565b5090565b5b80821115611189576000815560010161118e565b6000602082840312156111b457600080fd5b81356001600160e01b0319811681146109ef57600080fd5b80356001600160a01b03811681146111e357600080fd5b919050565b6000602082840312156111fa57600080fd5b6109ef826111cc565b6000806040838503121561121657600080fd5b61121f836111cc565b946020939093013593505050565b60006020828403121561123f57600080fd5b5035919050565b6000806040838503121561125957600080fd5b82359150611269602084016111cc565b90509250929050565b6020808252825182820181905260009190848201906040850190845b818110156112aa5783518352928401929184019160010161128e565b50909695505050505050565b600080602083850312156112c957600080fd5b823567ffffffffffffffff808211156112e157600080fd5b818501915085601f8301126112f557600080fd5b81358181111561130457600080fd5b8660208260051b850101111561131957600080fd5b60209290920196919550909350505050565b6000806040838503121561133e57600080fd5b50508035926020909101359150565b60008060006060848603121561136257600080fd5b505081359360208301359350604090920135919050565b60208082526015908201527425b2b2b721b7b73334b39d102327a92124a22222a760591b604082015260600190565b634e487b7160e01b600052604160045260246000fd5b634e487b7160e01b600052603260045260246000fd5b634e487b7160e01b600052601160045260246000fd5b600082198211156113fd576113fd6113d4565b500190565b60006020828403121561141457600080fd5b5051919050565b6000816000190483118215151615611435576114356113d4565b500290565b60005b8381101561145557818101518382015260200161143d565b83811115611464576000848401525b50505050565b7f416363657373436f6e74726f6c3a206163636f756e74200000000000000000008152600083516114a281601785016020880161143a565b7001034b99036b4b9b9b4b733903937b6329607d1b60179184019182015283516114d381602884016020880161143a565b01602801949350505050565b60208152600082518060208401526114fe81604085016020870161143a565b601f01601f19169190910160400192915050565b600081611521576115216113d4565b506000190190565b60008282101561153b5761153b6113d4565b500390565b634e487b7160e01b600052603160045260246000fdfe3ee192ac25847473237ced4bba57f848e1fd794930ff85b42823290580967205a264697066735822122075d47441b420f45591fba9bd0528860175d6e2c76072f3ddae82ca9623e726fc64736f6c634300080a0033",
  "linkReferences": {},
  "deployedLinkReferences": {}
}