{
  "_format": "hh-sol-artifact-1",
  "contractName": "KeenRouter",
  "sourceName": "contracts/KeenRouter.sol",
  "abi": [
    {
      "inputs": [
        {
          "internalType": "address",
          "name": "_factory",
          "type": "address"
        },
        {
          "internalType": "address",
          "name": "_WETH",
          "type": "address"
        }
      ],
      "stateMutability": "nonpayable",
      "type": "constructor"
    },
    {
      "inputs": [],
      "name": "WETH",
      "outputs": [
        {
          "internalType": "address",
          "name": "",
          "type": "address"
        }
      ],
      "stateMutability": "view",
      "type": "function"
    },
    {
      "inputs": [
        {
          "internalType": "address",
          "name": "tokenA",
          "type": "address"
        },
        {
          "internalType": "address",
          "name": "tokenB",
          "type": "address"
        },
        {
          "internalType": "uint256",
          "name": "amountADesired",
          "type": "uint256"
        },
        {
          "internalType": "uint256",
          "name": "amountBDesired",
          "type": "uint256"
        },
        {
          "internalType": "uint256",
          "name": "amountAMin",
          "type": "uint256"
        },
        {
          "internalType": "uint256",
          "name": "amountBMin",
          "type": "uint256"
        },
        {
          "internalType": "address",
          "name": "to",
          "type": "address"
        },
        {
          "internalType": "uint256",
          "name": "deadline",
          "type": "uint256"
        }
      ],
      "name": "addLiquidity",
      "outputs": [
        {
          "internalType": "uint256",
          "name": "amountA",
          "type": "uint256"
        },
        {
          "internalType": "uint256",
          "name": "amountB",
          "type": "uint256"
        },
        {
          "internalType": "uint256",
          "name": "liquidity",
          "type": "uint256"
        }
      ],
      "stateMutability": "nonpayable",
      "type": "function"
    },
    {
      "inputs": [
        {
          "internalType": "address",
          "name": "token",
          "type": "address"
        },
        {
          "internalType": "uint256",
          "name": "amountTokenDesired",
          "type": "uint256"
        },
        {
          "internalType": "uint256",
          "name": "amountTokenMin",
          "type": "uint256"
        },
        {
          "internalType": "uint256",
          "name": "amountETHMin",
          "type": "uint256"
        },
        {
          "internalType": "address",
          "name": "to",
          "type": "address"
        },
        {
          "internalType": "uint256",
          "name": "deadline",
          "type": "uint256"
        }
      ],
      "name": "addLiquidityETH",
      "outputs": [
        {
          "internalType": "uint256",
          "name": "amountToken",
          "type": "uint256"
        },
        {
          "internalType": "uint256",
          "name": "amountETH",
          "type": "uint256"
        },
        {
          "internalType": "uint256",
          "name": "liquidity",
          "type": "uint256"
        }
      ],
      "stateMutability": "payable",
      "type": "function"
    },
    {
      "inputs": [],
      "name": "factory",
      "outputs": [
        {
          "internalType": "address",
          "name": "",
          "type": "address"
        }
      ],
      "stateMutability": "view",
      "type": "function"
    },
    {
      "inputs": [
        {
          "internalType": "uint256",
          "name": "amountOut",
          "type": "uint256"
        },
        {
          "internalType": "uint256",
          "name": "reserveIn",
          "type": "uint256"
        },
        {
          "internalType": "uint256",
          "name": "reserveOut",
          "type": "uint256"
        }
      ],
      "name": "getAmountIn",
      "outputs": [
        {
          "internalType": "uint256",
          "name": "amountIn",
          "type": "uint256"
        }
      ],
      "stateMutability": "pure",
      "type": "function"
    },
    {
      "inputs": [
        {
          "internalType": "uint256",
          "name": "amountIn",
          "type": "uint256"
        },
        {
          "internalType": "uint256",
          "name": "reserveIn",
          "type": "uint256"
        },
        {
          "internalType": "uint256",
          "name": "reserveOut",
          "type": "uint256"
        }
      ],
      "name": "getAmountOut",
      "outputs": [
        {
          "internalType": "uint256",
          "name": "amountOut",
          "type": "uint256"
        }
      ],
      "stateMutability": "pure",
      "type": "function"
    },
    {
      "inputs": [
        {
          "internalType": "uint256",
          "name": "amountOut",
          "type": "uint256"
        },
        {
          "internalType": "address[]",
          "name": "path",
          "type": "address[]"
        }
      ],
      "name": "getAmountsIn",
      "outputs": [
        {
          "internalType": "uint256[]",
          "name": "amounts",
          "type": "uint256[]"
        }
      ],
      "stateMutability": "view",
      "type": "function"
    },
    {
      "inputs": [
        {
          "internalType": "uint256",
          "name": "amountIn",
          "type": "uint256"
        },
        {
          "internalType": "address[]",
          "name": "path",
          "type": "address[]"
        }
      ],
      "name": "getAmountsOut",
      "outputs": [
        {
          "internalType": "uint256[]",
          "name": "amounts",
          "type": "uint256[]"
        }
      ],
      "stateMutability": "view",
      "type": "function"
    },
    {
      "inputs": [
        {
          "internalType": "address",
          "name": "addressA",
          "type": "address"
        },
        {
          "internalType": "address",
          "name": "addressB",
          "type": "address"
        }
      ],
      "name": "getReserves",
      "outputs": [
        {
          "internalType": "uint256",
          "name": "reserve0",
          "type": "uint256"
        },
        {
          "internalType": "uint256",
          "name": "reserve1",
          "type": "uint256"
        }
      ],
      "stateMutability": "view",
      "type": "function"
    },
    {
      "inputs": [
        {
          "internalType": "address",
          "name": "tokenA",
          "type": "address"
        },
        {
          "internalType": "address",
          "name": "tokenB",
          "type": "address"
        }
      ],
      "name": "pairFor",
      "outputs": [
        {
          "internalType": "address",
          "name": "pair",
          "type": "address"
        }
      ],
      "stateMutability": "view",
      "type": "function"
    },
    {
      "inputs": [
        {
          "internalType": "uint256",
          "name": "amountA",
          "type": "uint256"
        },
        {
          "internalType": "uint256",
          "name": "reserveA",
          "type": "uint256"
        },
        {
          "internalType": "uint256",
          "name": "reserveB",
          "type": "uint256"
        }
      ],
      "name": "quote",
      "outputs": [
        {
          "internalType": "uint256",
          "name": "amountB",
          "type": "uint256"
        }
      ],
      "stateMutability": "pure",
      "type": "function"
    },
    {
      "inputs": [
        {
          "internalType": "address",
          "name": "tokenA",
          "type": "address"
        },
        {
          "internalType": "address",
          "name": "tokenB",
          "type": "address"
        },
        {
          "internalType": "uint256",
          "name": "liquidity",
          "type": "uint256"
        },
        {
          "internalType": "uint256",
          "name": "amountAMin",
          "type": "uint256"
        },
        {
          "internalType": "uint256",
          "name": "amountBMin",
          "type": "uint256"
        },
        {
          "internalType": "address",
          "name": "to",
          "type": "address"
        },
        {
          "internalType": "uint256",
          "name": "deadline",
          "type": "uint256"
        }
      ],
      "name": "removeLiquidity",
      "outputs": [
        {
          "internalType": "uint256",
          "name": "amountA",
          "type": "uint256"
        },
        {
          "internalType": "uint256",
          "name": "amountB",
          "type": "uint256"
        }
      ],
      "stateMutability": "nonpayable",
      "type": "function"
    },
    {
      "inputs": [
        {
          "internalType": "address",
          "name": "token",
          "type": "address"
        },
        {
          "internalType": "uint256",
          "name": "liquidity",
          "type": "uint256"
        },
        {
          "internalType": "uint256",
          "name": "amountTokenMin",
          "type": "uint256"
        },
        {
          "internalType": "uint256",
          "name": "amountETHMin",
          "type": "uint256"
        },
        {
          "internalType": "address",
          "name": "to",
          "type": "address"
        },
        {
          "internalType": "uint256",
          "name": "deadline",
          "type": "uint256"
        }
      ],
      "name": "removeLiquidityETH",
      "outputs": [
        {
          "internalType": "uint256",
          "name": "amountToken",
          "type": "uint256"
        },
        {
          "internalType": "uint256",
          "name": "amountETH",
          "type": "uint256"
        }
      ],
      "stateMutability": "nonpayable",
      "type": "function"
    },
    {
      "inputs": [
        {
          "internalType": "address",
          "name": "token",
          "type": "address"
        },
        {
          "internalType": "uint256",
          "name": "liquidity",
          "type": "uint256"
        },
        {
          "internalType": "uint256",
          "name": "amountTokenMin",
          "type": "uint256"
        },
        {
          "internalType": "uint256",
          "name": "amountETHMin",
          "type": "uint256"
        },
        {
          "internalType": "address",
          "name": "to",
          "type": "address"
        },
        {
          "internalType": "uint256",
          "name": "deadline",
          "type": "uint256"
        }
      ],
      "name": "removeLiquidityETHSupportingFeeOnTransferTokens",
      "outputs": [
        {
          "internalType": "uint256",
          "name": "amountETH",
          "type": "uint256"
        }
      ],
      "stateMutability": "nonpayable",
      "type": "function"
    },
    {
      "inputs": [
        {
          "internalType": "address",
          "name": "token",
          "type": "address"
        },
        {
          "internalType": "uint256",
          "name": "liquidity",
          "type": "uint256"
        },
        {
          "internalType": "uint256",
          "name": "amountTokenMin",
          "type": "uint256"
        },
        {
          "internalType": "uint256",
          "name": "amountETHMin",
          "type": "uint256"
        },
        {
          "internalType": "address",
          "name": "to",
          "type": "address"
        },
        {
          "internalType": "uint256",
          "name": "deadline",
          "type": "uint256"
        },
        {
          "internalType": "bool",
          "name": "approveMax",
          "type": "bool"
        },
        {
          "internalType": "uint8",
          "name": "v",
          "type": "uint8"
        },
        {
          "internalType": "bytes32",
          "name": "r",
          "type": "bytes32"
        },
        {
          "internalType": "bytes32",
          "name": "s",
          "type": "bytes32"
        }
      ],
      "name": "removeLiquidityETHWithPermit",
      "outputs": [
        {
          "internalType": "uint256",
          "name": "amountToken",
          "type": "uint256"
        },
        {
          "internalType": "uint256",
          "name": "amountETH",
          "type": "uint256"
        }
      ],
      "stateMutability": "nonpayable",
      "type": "function"
    },
    {
      "inputs": [
        {
          "internalType": "address",
          "name": "token",
          "type": "address"
        },
        {
          "internalType": "uint256",
          "name": "liquidity",
          "type": "uint256"
        },
        {
          "internalType": "uint256",
          "name": "amountTokenMin",
          "type": "uint256"
        },
        {
          "internalType": "uint256",
          "name": "amountETHMin",
          "type": "uint256"
        },
        {
          "internalType": "address",
          "name": "to",
          "type": "address"
        },
        {
          "internalType": "uint256",
          "name": "deadline",
          "type": "uint256"
        },
        {
          "internalType": "bool",
          "name": "approveMax",
          "type": "bool"
        },
        {
          "internalType": "uint8",
          "name": "v",
          "type": "uint8"
        },
        {
          "internalType": "bytes32",
          "name": "r",
          "type": "bytes32"
        },
        {
          "internalType": "bytes32",
          "name": "s",
          "type": "bytes32"
        }
      ],
      "name": "removeLiquidityETHWithPermitSupportingFeeOnTransferTokens",
      "outputs": [
        {
          "internalType": "uint256",
          "name": "amountETH",
          "type": "uint256"
        }
      ],
      "stateMutability": "nonpayable",
      "type": "function"
    },
    {
      "inputs": [
        {
          "internalType": "address",
          "name": "tokenA",
          "type": "address"
        },
        {
          "internalType": "address",
          "name": "tokenB",
          "type": "address"
        },
        {
          "internalType": "uint256",
          "name": "liquidity",
          "type": "uint256"
        },
        {
          "internalType": "uint256",
          "name": "amountAMin",
          "type": "uint256"
        },
        {
          "internalType": "uint256",
          "name": "amountBMin",
          "type": "uint256"
        },
        {
          "internalType": "address",
          "name": "to",
          "type": "address"
        },
        {
          "internalType": "uint256",
          "name": "deadline",
          "type": "uint256"
        },
        {
          "internalType": "bool",
          "name": "approveMax",
          "type": "bool"
        },
        {
          "internalType": "uint8",
          "name": "v",
          "type": "uint8"
        },
        {
          "internalType": "bytes32",
          "name": "r",
          "type": "bytes32"
        },
        {
          "internalType": "bytes32",
          "name": "s",
          "type": "bytes32"
        }
      ],
      "name": "removeLiquidityWithPermit",
      "outputs": [
        {
          "internalType": "uint256",
          "name": "amountA",
          "type": "uint256"
        },
        {
          "internalType": "uint256",
          "name": "amountB",
          "type": "uint256"
        }
      ],
      "stateMutability": "nonpayable",
      "type": "function"
    },
    {
      "inputs": [
        {
          "internalType": "uint256",
          "name": "amountOut",
          "type": "uint256"
        },
        {
          "internalType": "address[]",
          "name": "path",
          "type": "address[]"
        },
        {
          "internalType": "address",
          "name": "to",
          "type": "address"
        },
        {
          "internalType": "uint256",
          "name": "deadline",
          "type": "uint256"
        }
      ],
      "name": "swapETHForExactTokens",
      "outputs": [
        {
          "internalType": "uint256[]",
          "name": "amounts",
          "type": "uint256[]"
        }
      ],
      "stateMutability": "payable",
      "type": "function"
    },
    {
      "inputs": [
        {
          "internalType": "uint256",
          "name": "amountOutMin",
          "type": "uint256"
        },
        {
          "internalType": "address[]",
          "name": "path",
          "type": "address[]"
        },
        {
          "internalType": "address",
          "name": "to",
          "type": "address"
        },
        {
          "internalType": "uint256",
          "name": "deadline",
          "type": "uint256"
        }
      ],
      "name": "swapExactETHForTokens",
      "outputs": [
        {
          "internalType": "uint256[]",
          "name": "amounts",
          "type": "uint256[]"
        }
      ],
      "stateMutability": "payable",
      "type": "function"
    },
    {
      "inputs": [
        {
          "internalType": "uint256",
          "name": "amountOutMin",
          "type": "uint256"
        },
        {
          "internalType": "address[]",
          "name": "path",
          "type": "address[]"
        },
        {
          "internalType": "address",
          "name": "to",
          "type": "address"
        },
        {
          "internalType": "uint256",
          "name": "deadline",
          "type": "uint256"
        }
      ],
      "name": "swapExactETHForTokensSupportingFeeOnTransferTokens",
      "outputs": [],
      "stateMutability": "payable",
      "type": "function"
    },
    {
      "inputs": [
        {
          "internalType": "uint256",
          "name": "amountIn",
          "type": "uint256"
        },
        {
          "internalType": "uint256",
          "name": "amountOutMin",
          "type": "uint256"
        },
        {
          "internalType": "address[]",
          "name": "path",
          "type": "address[]"
        },
        {
          "internalType": "address",
          "name": "to",
          "type": "address"
        },
        {
          "internalType": "uint256",
          "name": "deadline",
          "type": "uint256"
        }
      ],
      "name": "swapExactTokensForETH",
      "outputs": [
        {
          "internalType": "uint256[]",
          "name": "amounts",
          "type": "uint256[]"
        }
      ],
      "stateMutability": "nonpayable",
      "type": "function"
    },
    {
      "inputs": [
        {
          "internalType": "uint256",
          "name": "amountIn",
          "type": "uint256"
        },
        {
          "internalType": "uint256",
          "name": "amountOutMin",
          "type": "uint256"
        },
        {
          "internalType": "address[]",
          "name": "path",
          "type": "address[]"
        },
        {
          "internalType": "address",
          "name": "to",
          "type": "address"
        },
        {
          "internalType": "uint256",
          "name": "deadline",
          "type": "uint256"
        }
      ],
      "name": "swapExactTokensForETHSupportingFeeOnTransferTokens",
      "outputs": [],
      "stateMutability": "nonpayable",
      "type": "function"
    },
    {
      "inputs": [
        {
          "internalType": "uint256",
          "name": "amountIn",
          "type": "uint256"
        },
        {
          "internalType": "uint256",
          "name": "amountOutMin",
          "type": "uint256"
        },
        {
          "internalType": "address[]",
          "name": "path",
          "type": "address[]"
        },
        {
          "internalType": "address",
          "name": "to",
          "type": "address"
        },
        {
          "internalType": "uint256",
          "name": "deadline",
          "type": "uint256"
        }
      ],
      "name": "swapExactTokensForTokens",
      "outputs": [
        {
          "internalType": "uint256[]",
          "name": "amounts",
          "type": "uint256[]"
        }
      ],
      "stateMutability": "nonpayable",
      "type": "function"
    },
    {
      "inputs": [
        {
          "internalType": "uint256",
          "name": "amountIn",
          "type": "uint256"
        },
        {
          "internalType": "uint256",
          "name": "amountOutMin",
          "type": "uint256"
        },
        {
          "internalType": "address[]",
          "name": "path",
          "type": "address[]"
        },
        {
          "internalType": "address",
          "name": "to",
          "type": "address"
        },
        {
          "internalType": "uint256",
          "name": "deadline",
          "type": "uint256"
        }
      ],
      "name": "swapExactTokensForTokensSupportingFeeOnTransferTokens",
      "outputs": [],
      "stateMutability": "nonpayable",
      "type": "function"
    },
    {
      "inputs": [
        {
          "internalType": "uint256",
          "name": "amountOut",
          "type": "uint256"
        },
        {
          "internalType": "uint256",
          "name": "amountInMax",
          "type": "uint256"
        },
        {
          "internalType": "address[]",
          "name": "path",
          "type": "address[]"
        },
        {
          "internalType": "address",
          "name": "to",
          "type": "address"
        },
        {
          "internalType": "uint256",
          "name": "deadline",
          "type": "uint256"
        }
      ],
      "name": "swapTokensForExactETH",
      "outputs": [
        {
          "internalType": "uint256[]",
          "name": "amounts",
          "type": "uint256[]"
        }
      ],
      "stateMutability": "nonpayable",
      "type": "function"
    },
    {
      "inputs": [
        {
          "internalType": "uint256",
          "name": "amountOut",
          "type": "uint256"
        },
        {
          "internalType": "uint256",
          "name": "amountInMax",
          "type": "uint256"
        },
        {
          "internalType": "address[]",
          "name": "path",
          "type": "address[]"
        },
        {
          "internalType": "address",
          "name": "to",
          "type": "address"
        },
        {
          "internalType": "uint256",
          "name": "deadline",
          "type": "uint256"
        }
      ],
      "name": "swapTokensForExactTokens",
      "outputs": [
        {
          "internalType": "uint256[]",
          "name": "amounts",
          "type": "uint256[]"
        }
      ],
      "stateMutability": "nonpayable",
      "type": "function"
    },
    {
      "stateMutability": "payable",
      "type": "receive"
    }
  ],
  "bytecode": "0x60c060405234801561001057600080fd5b506040516200484c3803806200484c8339818101604052604081101561003557600080fd5b5080516020909101516001600160601b0319606092831b8116608052911b1660a05260805160601c60a05160601c6146bd6200018f600039806101955280610d905280610dcb5280610ec252806110e0528061146a52806115d052806119975280611a915280611b475280611c155280611d5b5280611de3528061205552806120d0528061217f528061224b52806122e0528061235452806128905280612b035280612b595280612b8d5280612c015280612da15280612ee45280612f6c525080610f50528061102752806111a652806111df528061131a52806114f852806115ae528061171e5280611ca85280611e155280611f78528061202d528061238652806125df52806127d752806128005280612831528061286e52806129db5280612b375280612e345280612f9e528061384152806138845280613b635280613ce2528061421152806142bf528061433f52506146bd6000f3fe6080604052600436106101855760003560e01c806396ed28f9116100d1578063c45a01551161008a578063ded9382a11610064578063ded9382a14610b86578063e8e3370014610bf9578063f305d71914610c79578063fb3bdb4114610cbf576101be565b8063c45a015514610a81578063d06ca61f14610a96578063d52bb6f414610b4b576101be565b806396ed28f9146108ab578063ad5c464814610902578063ad615dec14610917578063af2979eb1461094d578063b6f9de95146109a0578063baa2abde14610a24576101be565b80634a25d94a1161013e578063791ac94711610118578063791ac947146106c55780637ff36ab51461075b57806385f8c259146107df5780638803dbee14610815576101be565b80634a25d94a146105265780635b0d5984146105bc5780635c11d7951461062f576101be565b806302751cec146101c3578063054d50d41461022f57806318cbafe5146102775780631f00ca741461035d5780632195995c1461041257806338ed173914610490576101be565b366101be57336001600160a01b037f000000000000000000000000000000000000000000000000000000000000000016146101bc57fe5b005b600080fd5b3480156101cf57600080fd5b50610216600480360360c08110156101e657600080fd5b506001600160a01b0381358116916020810135916040820135916060810135916080820135169060a00135610d43565b6040805192835260208301919091528051918290030190f35b34801561023b57600080fd5b506102656004803603606081101561025257600080fd5b5080359060208101359060400135610e5d565b60408051918252519081900360200190f35b34801561028357600080fd5b5061030d600480360360a081101561029a57600080fd5b813591602081013591810190606081016040820135600160201b8111156102c057600080fd5b8201836020820111156102d257600080fd5b803590602001918460208302840111600160201b831117156102f357600080fd5b91935091506001600160a01b038135169060200135610e72565b60408051602080825283518183015283519192839290830191858101910280838360005b83811015610349578181015183820152602001610331565b505050509050019250505060405180910390f35b34801561036957600080fd5b5061030d6004803603604081101561038057600080fd5b81359190810190604081016020820135600160201b8111156103a157600080fd5b8201836020820111156103b357600080fd5b803590602001918460208302840111600160201b831117156103d457600080fd5b91908080602002602001604051908101604052809392919081815260200183836020028082843760009201919091525092955061119f945050505050565b34801561041e57600080fd5b50610216600480360361016081101561043657600080fd5b506001600160a01b038135811691602081013582169160408201359160608101359160808201359160a08101359091169060c08101359060e081013515159060ff61010082013516906101208101359061014001356111d5565b34801561049c57600080fd5b5061030d600480360360a08110156104b357600080fd5b813591602081013591810190606081016040820135600160201b8111156104d957600080fd5b8201836020820111156104eb57600080fd5b803590602001918460208302840111600160201b8311171561050c57600080fd5b91935091506001600160a01b0381351690602001356112cf565b34801561053257600080fd5b5061030d600480360360a081101561054957600080fd5b813591602081013591810190606081016040820135600160201b81111561056f57600080fd5b82018360208201111561058157600080fd5b803590602001918460208302840111600160201b831117156105a257600080fd5b91935091506001600160a01b03813516906020013561141a565b3480156105c857600080fd5b5061026560048036036101408110156105e057600080fd5b506001600160a01b0381358116916020810135916040820135916060810135916080820135169060a08101359060c081013515159060ff60e082013516906101008101359061012001356115a6565b34801561063b57600080fd5b506101bc600480360360a081101561065257600080fd5b813591602081013591810190606081016040820135600160201b81111561067857600080fd5b82018360208201111561068a57600080fd5b803590602001918460208302840111600160201b831117156106ab57600080fd5b91935091506001600160a01b0381351690602001356116b4565b3480156106d157600080fd5b506101bc600480360360a08110156106e857600080fd5b813591602081013591810190606081016040820135600160201b81111561070e57600080fd5b82018360208201111561072057600080fd5b803590602001918460208302840111600160201b8311171561074157600080fd5b91935091506001600160a01b038135169060200135611949565b61030d6004803603608081101561077157600080fd5b81359190810190604081016020820135600160201b81111561079257600080fd5b8201836020820111156107a457600080fd5b803590602001918460208302840111600160201b831117156107c557600080fd5b91935091506001600160a01b038135169060200135611bcd565b3480156107eb57600080fd5b506102656004803603606081101561080257600080fd5b5080359060208101359060400135611f20565b34801561082157600080fd5b5061030d600480360360a081101561083857600080fd5b813591602081013591810190606081016040820135600160201b81111561085e57600080fd5b82018360208201111561087057600080fd5b803590602001918460208302840111600160201b8311171561089157600080fd5b91935091506001600160a01b038135169060200135611f2d565b3480156108b757600080fd5b506108e6600480360360408110156108ce57600080fd5b506001600160a01b0381358116916020013516612026565b604080516001600160a01b039092168252519081900360200190f35b34801561090e57600080fd5b506108e6612053565b34801561092357600080fd5b506102656004803603606081101561093a57600080fd5b5080359060208101359060400135612077565b34801561095957600080fd5b50610265600480360360c081101561097057600080fd5b506001600160a01b0381358116916020810135916040820135916060810135916080820135169060a00135612084565b6101bc600480360360808110156109b657600080fd5b81359190810190604081016020820135600160201b8111156109d757600080fd5b8201836020820111156109e957600080fd5b803590602001918460208302840111600160201b83111715610a0a57600080fd5b91935091506001600160a01b038135169060200135612205565b348015610a3057600080fd5b50610216600480360360e0811015610a4757600080fd5b506001600160a01b038135811691602081013582169160408201359160608101359160808201359160a08101359091169060c00135612591565b348015610a8d57600080fd5b506108e66127d5565b348015610aa257600080fd5b5061030d60048036036040811015610ab957600080fd5b81359190810190604081016020820135600160201b811115610ada57600080fd5b820183602082011115610aec57600080fd5b803590602001918460208302840111600160201b83111715610b0d57600080fd5b9190808060200260200160405190810160405280939291908181526020018383602002808284376000920191909152509295506127f9945050505050565b348015610b5757600080fd5b5061021660048036036040811015610b6e57600080fd5b506001600160a01b0381358116916020013516612826565b348015610b9257600080fd5b506102166004803603610140811015610baa57600080fd5b506001600160a01b0381358116916020810135916040820135916060810135916080820135169060a08101359060c081013515159060ff60e08201351690610100810135906101200135612864565b348015610c0557600080fd5b50610c5b6004803603610100811015610c1d57600080fd5b506001600160a01b038135811691602081013582169160408201359160608101359160808201359160a08101359160c0820135169060e00135612978565b60408051938452602084019290925282820152519081900360600190f35b610c5b600480360360c0811015610c8f57600080fd5b506001600160a01b0381358116916020810135916040820135916060810135916080820135169060a00135612ab4565b61030d60048036036080811015610cd557600080fd5b81359190810190604081016020820135600160201b811115610cf657600080fd5b820183602082011115610d0857600080fd5b803590602001918460208302840111600160201b83111715610d2957600080fd5b91935091506001600160a01b038135169060200135612d59565b6000808242811015610d8a576040805162461bcd60e51b81526020600482015260136024820152600080516020614507833981519152604482015290519081900360640190fd5b610db9897f00000000000000000000000000000000000000000000000000000000000000008a8a8a308a612591565b9093509150610dc98986856130db565b7f00000000000000000000000000000000000000000000000000000000000000006001600160a01b0316632e1a7d4d836040518263ffffffff1660e01b815260040180828152602001915050600060405180830381600087803b158015610e2f57600080fd5b505af1158015610e43573d6000803e3d6000fd5b50505050610e518583613245565b50965096945050505050565b6000610e6a84848461333d565b949350505050565b60608142811015610eb8576040805162461bcd60e51b81526020600482015260136024820152600080516020614507833981519152604482015290519081900360640190fd5b6001600160a01b037f00000000000000000000000000000000000000000000000000000000000000001686866000198101818110610ef257fe5b905060200201356001600160a01b03166001600160a01b031614610f4b576040805162461bcd60e51b8152602060048201526018602482015260008051602061458d833981519152604482015290519081900360640190fd5b610fa97f00000000000000000000000000000000000000000000000000000000000000008988888080602002602001604051908101604052809392919081815260200183836020028082843760009201919091525061342d92505050565b91508682600184510381518110610fbc57fe5b602002602001015110156110015760405162461bcd60e51b81526004018080602001828103825260268152602001806145fa6026913960400191505060405180910390fd5b61109f8686600081811061101157fe5b905060200201356001600160a01b0316336110857f00000000000000000000000000000000000000000000000000000000000000008a8a600081811061105357fe5b905060200201356001600160a01b03168b8b600181811061107057fe5b905060200201356001600160a01b0316613575565b8560008151811061109257fe5b6020026020010151613635565b6110de82878780806020026020016040519081016040528093929190818152602001838360200280828437600092019190915250309250613792915050565b7f00000000000000000000000000000000000000000000000000000000000000006001600160a01b0316632e1a7d4d8360018551038151811061111d57fe5b60200260200101516040518263ffffffff1660e01b815260040180828152602001915050600060405180830381600087803b15801561115b57600080fd5b505af115801561116f573d6000803e3d6000fd5b50505050611194848360018551038151811061118757fe5b6020026020010151613245565b509695505050505050565b60606111cc7f000000000000000000000000000000000000000000000000000000000000000084846139d8565b90505b92915050565b60008060006112057f00000000000000000000000000000000000000000000000000000000000000008f8f613575565b9050600087611214578c611218565b6000195b6040805163d505accf60e01b815233600482015230602482015260448101839052606481018c905260ff8a16608482015260a4810189905260c4810188905290519192506001600160a01b0384169163d505accf9160e48082019260009290919082900301818387803b15801561128e57600080fd5b505af11580156112a2573d6000803e3d6000fd5b505050506112b58f8f8f8f8f8f8f612591565b809450819550505050509b509b9950505050505050505050565b60608142811015611315576040805162461bcd60e51b81526020600482015260136024820152600080516020614507833981519152604482015290519081900360640190fd5b6113737f00000000000000000000000000000000000000000000000000000000000000008988888080602002602001604051908101604052809392919081815260200183836020028082843760009201919091525061342d92505050565b9150868260018451038151811061138657fe5b602002602001015110156113cb5760405162461bcd60e51b81526004018080602001828103825260268152602001806145fa6026913960400191505060405180910390fd5b6113db8686600081811061101157fe5b61119482878780806020026020016040519081016040528093929190818152602001838360200280828437600092019190915250899250613792915050565b60608142811015611460576040805162461bcd60e51b81526020600482015260136024820152600080516020614507833981519152604482015290519081900360640190fd5b6001600160a01b037f0000000000000000000000000000000000000000000000000000000000000000168686600019810181811061149a57fe5b905060200201356001600160a01b03166001600160a01b0316146114f3576040805162461bcd60e51b8152602060048201526018602482015260008051602061458d833981519152604482015290519081900360640190fd5b6115517f0000000000000000000000000000000000000000000000000000000000000000898888808060200260200160405190810160405280939291908181526020018383602002808284376000920191909152506139d892505050565b9150868260008151811061156157fe5b602002602001015111156110015760405162461bcd60e51b81526004018080602001828103825260228152602001806145276022913960400191505060405180910390fd5b6000806115f47f00000000000000000000000000000000000000000000000000000000000000008d7f0000000000000000000000000000000000000000000000000000000000000000613575565b9050600086611603578b611607565b6000195b6040805163d505accf60e01b815233600482015230602482015260448101839052606481018b905260ff8916608482015260a4810188905260c4810187905290519192506001600160a01b0384169163d505accf9160e48082019260009290919082900301818387803b15801561167d57600080fd5b505af1158015611691573d6000803e3d6000fd5b505050506116a38d8d8d8d8d8d612084565b9d9c50505050505050505050505050565b80428110156116f8576040805162461bcd60e51b81526020600482015260136024820152600080516020614507833981519152604482015290519081900360640190fd5b61176d8585600081811061170857fe5b905060200201356001600160a01b0316336117677f00000000000000000000000000000000000000000000000000000000000000008989600081811061174a57fe5b905060200201356001600160a01b03168a8a600181811061107057fe5b8a613635565b60008585600019810181811061177f57fe5b905060200201356001600160a01b03166001600160a01b03166370a08231856040518263ffffffff1660e01b815260040180826001600160a01b03166001600160a01b0316815260200191505060206040518083038186803b1580156117e457600080fd5b505afa1580156117f8573d6000803e3d6000fd5b505050506040513d602081101561180e57600080fd5b50516040805160208881028281018201909352888252929350611850929091899189918291850190849080828437600092019190915250889250613b0c915050565b86611902828888600019810181811061186557fe5b905060200201356001600160a01b03166001600160a01b03166370a08231886040518263ffffffff1660e01b815260040180826001600160a01b03166001600160a01b0316815260200191505060206040518083038186803b1580156118ca57600080fd5b505afa1580156118de573d6000803e3d6000fd5b505050506040513d60208110156118f457600080fd5b50519063ffffffff613e1716565b101561193f5760405162461bcd60e51b81526004018080602001828103825260268152602001806145fa6026913960400191505060405180910390fd5b5050505050505050565b804281101561198d576040805162461bcd60e51b81526020600482015260136024820152600080516020614507833981519152604482015290519081900360640190fd5b6001600160a01b037f000000000000000000000000000000000000000000000000000000000000000016858560001981018181106119c757fe5b905060200201356001600160a01b03166001600160a01b031614611a20576040805162461bcd60e51b8152602060048201526018602482015260008051602061458d833981519152604482015290519081900360640190fd5b611a308585600081811061170857fe5b611a6e858580806020026020016040519081016040528093929190818152602001838360200280828437600092019190915250309250613b0c915050565b604080516370a0823160e01b815230600482015290516000916001600160a01b037f000000000000000000000000000000000000000000000000000000000000000016916370a0823191602480820192602092909190829003018186803b158015611ad857600080fd5b505afa158015611aec573d6000803e3d6000fd5b505050506040513d6020811015611b0257600080fd5b5051905086811015611b455760405162461bcd60e51b81526004018080602001828103825260268152602001806145fa6026913960400191505060405180910390fd5b7f00000000000000000000000000000000000000000000000000000000000000006001600160a01b0316632e1a7d4d826040518263ffffffff1660e01b815260040180828152602001915050600060405180830381600087803b158015611bab57600080fd5b505af1158015611bbf573d6000803e3d6000fd5b5050505061193f8482613245565b60608142811015611c13576040805162461bcd60e51b81526020600482015260136024820152600080516020614507833981519152604482015290519081900360640190fd5b7f00000000000000000000000000000000000000000000000000000000000000006001600160a01b031686866000818110611c4a57fe5b905060200201356001600160a01b03166001600160a01b031614611ca3576040805162461bcd60e51b8152602060048201526018602482015260008051602061458d833981519152604482015290519081900360640190fd5b611d017f00000000000000000000000000000000000000000000000000000000000000003488888080602002602001604051908101604052809392919081815260200183836020028082843760009201919091525061342d92505050565b91508682600184510381518110611d1457fe5b60200260200101511015611d595760405162461bcd60e51b81526004018080602001828103825260268152602001806145fa6026913960400191505060405180910390fd5b7f00000000000000000000000000000000000000000000000000000000000000006001600160a01b031663d0e30db083600081518110611d9557fe5b60200260200101516040518263ffffffff1660e01b81526004016000604051808303818588803b158015611dc857600080fd5b505af1158015611ddc573d6000803e3d6000fd5b50505050507f00000000000000000000000000000000000000000000000000000000000000006001600160a01b031663a9059cbb611e417f00000000000000000000000000000000000000000000000000000000000000008989600081811061174a57fe5b84600081518110611e4e57fe5b60200260200101516040518363ffffffff1660e01b815260040180836001600160a01b03166001600160a01b0316815260200182815260200192505050602060405180830381600087803b158015611ea557600080fd5b505af1158015611eb9573d6000803e3d6000fd5b505050506040513d6020811015611ecf57600080fd5b5051611ed757fe5b611f1682878780806020026020016040519081016040528093929190818152602001838360200280828437600092019190915250899250613792915050565b5095945050505050565b6000610e6a848484613e67565b60608142811015611f73576040805162461bcd60e51b81526020600482015260136024820152600080516020614507833981519152604482015290519081900360640190fd5b611fd17f0000000000000000000000000000000000000000000000000000000000000000898888808060200260200160405190810160405280939291908181526020018383602002808284376000920191909152506139d892505050565b91508682600081518110611fe157fe5b602002602001015111156113cb5760405162461bcd60e51b81526004018080602001828103825260228152602001806145276022913960400191505060405180910390fd5b60006111cc7f00000000000000000000000000000000000000000000000000000000000000008484613575565b7f000000000000000000000000000000000000000000000000000000000000000081565b6000610e6a848484613f57565b600081428110156120ca576040805162461bcd60e51b81526020600482015260136024820152600080516020614507833981519152604482015290519081900360640190fd5b6120f9887f00000000000000000000000000000000000000000000000000000000000000008989893089612591565b604080516370a0823160e01b8152306004820152905191945061217d92508a9187916001600160a01b038416916370a0823191602480820192602092909190829003018186803b15801561214c57600080fd5b505afa158015612160573d6000803e3d6000fd5b505050506040513d602081101561217657600080fd5b50516130db565b7f00000000000000000000000000000000000000000000000000000000000000006001600160a01b0316632e1a7d4d836040518263ffffffff1660e01b815260040180828152602001915050600060405180830381600087803b1580156121e357600080fd5b505af11580156121f7573d6000803e3d6000fd5b505050506111948483613245565b8042811015612249576040805162461bcd60e51b81526020600482015260136024820152600080516020614507833981519152604482015290519081900360640190fd5b7f00000000000000000000000000000000000000000000000000000000000000006001600160a01b03168585600081811061228057fe5b905060200201356001600160a01b03166001600160a01b0316146122d9576040805162461bcd60e51b8152602060048201526018602482015260008051602061458d833981519152604482015290519081900360640190fd5b60003490507f00000000000000000000000000000000000000000000000000000000000000006001600160a01b031663d0e30db0826040518263ffffffff1660e01b81526004016000604051808303818588803b15801561233957600080fd5b505af115801561234d573d6000803e3d6000fd5b50505050507f00000000000000000000000000000000000000000000000000000000000000006001600160a01b031663a9059cbb6123b27f00000000000000000000000000000000000000000000000000000000000000008989600081811061174a57fe5b836040518363ffffffff1660e01b815260040180836001600160a01b03166001600160a01b0316815260200182815260200192505050602060405180830381600087803b15801561240257600080fd5b505af1158015612416573d6000803e3d6000fd5b505050506040513d602081101561242c57600080fd5b505161243457fe5b60008686600019810181811061244657fe5b905060200201356001600160a01b03166001600160a01b03166370a08231866040518263ffffffff1660e01b815260040180826001600160a01b03166001600160a01b0316815260200191505060206040518083038186803b1580156124ab57600080fd5b505afa1580156124bf573d6000803e3d6000fd5b505050506040513d60208110156124d557600080fd5b505160408051602089810282810182019093528982529293506125179290918a918a918291850190849080828437600092019190915250899250613b0c915050565b87611902828989600019810181811061252c57fe5b905060200201356001600160a01b03166001600160a01b03166370a08231896040518263ffffffff1660e01b815260040180826001600160a01b03166001600160a01b0316815260200191505060206040518083038186803b1580156118ca57600080fd5b60008082428110156125d8576040805162461bcd60e51b81526020600482015260136024820152600080516020614507833981519152604482015290519081900360640190fd5b60006126057f00000000000000000000000000000000000000000000000000000000000000008c8c613575565b604080516323b872dd60e01b81523360048201526001600160a01b03831660248201819052604482018d9052915192935090916323b872dd916064808201926020929091908290030181600087803b15801561266057600080fd5b505af1158015612674573d6000803e3d6000fd5b505050506040513d602081101561268a57600080fd5b50506040805163226bf2d160e21b81526001600160a01b03888116600483015282516000938493928616926389afcb44926024808301939282900301818787803b1580156126d757600080fd5b505af11580156126eb573d6000803e3d6000fd5b505050506040513d604081101561270157600080fd5b5080516020909101519092509050600061271b8e8e614019565b509050806001600160a01b03168e6001600160a01b03161461273e578183612741565b82825b90975095508a8710156127855760405162461bcd60e51b81526004018080602001828103825260218152602001806146676021913960400191505060405180910390fd5b898610156127c45760405162461bcd60e51b81526004018080602001828103825260218152602001806145496021913960400191505060405180910390fd5b505050505097509795505050505050565b7f000000000000000000000000000000000000000000000000000000000000000081565b60606111cc7f0000000000000000000000000000000000000000000000000000000000000000848461342d565b6000806000806128577f0000000000000000000000000000000000000000000000000000000000000000878761410d565b9097909650945050505050565b60008060006128b47f00000000000000000000000000000000000000000000000000000000000000008e7f0000000000000000000000000000000000000000000000000000000000000000613575565b90506000876128c3578c6128c7565b6000195b6040805163d505accf60e01b815233600482015230602482015260448101839052606481018c905260ff8a16608482015260a4810189905260c4810188905290519192506001600160a01b0384169163d505accf9160e48082019260009290919082900301818387803b15801561293d57600080fd5b505af1158015612951573d6000803e3d6000fd5b505050506129638e8e8e8e8e8e610d43565b909f909e509c50505050505050505050505050565b600080600083428110156129c1576040805162461bcd60e51b81526020600482015260136024820152600080516020614507833981519152604482015290519081900360640190fd5b6129cf8c8c8c8c8c8c6141e0565b90945092506000612a017f00000000000000000000000000000000000000000000000000000000000000008e8e613575565b9050612a0f8d338388613635565b612a1b8c338387613635565b806001600160a01b0316636a627842886040518263ffffffff1660e01b815260040180826001600160a01b03166001600160a01b03168152602001915050602060405180830381600087803b158015612a7357600080fd5b505af1158015612a87573d6000803e3d6000fd5b505050506040513d6020811015612a9d57600080fd5b5051949d939c50939a509198505050505050505050565b60008060008342811015612afd576040805162461bcd60e51b81526020600482015260136024820152600080516020614507833981519152604482015290519081900360640190fd5b612b2b8a7f00000000000000000000000000000000000000000000000000000000000000008b348c8c6141e0565b90945092506000612b7d7f00000000000000000000000000000000000000000000000000000000000000008c7f0000000000000000000000000000000000000000000000000000000000000000613575565b9050612b8b8b338388613635565b7f00000000000000000000000000000000000000000000000000000000000000006001600160a01b031663d0e30db0856040518263ffffffff1660e01b81526004016000604051808303818588803b158015612be657600080fd5b505af1158015612bfa573d6000803e3d6000fd5b50505050507f00000000000000000000000000000000000000000000000000000000000000006001600160a01b031663a9059cbb82866040518363ffffffff1660e01b815260040180836001600160a01b03166001600160a01b0316815260200182815260200192505050602060405180830381600087803b158015612c7f57600080fd5b505af1158015612c93573d6000803e3d6000fd5b505050506040513d6020811015612ca957600080fd5b5051612cb157fe5b806001600160a01b0316636a627842886040518263ffffffff1660e01b815260040180826001600160a01b03166001600160a01b03168152602001915050602060405180830381600087803b158015612d0957600080fd5b505af1158015612d1d573d6000803e3d6000fd5b505050506040513d6020811015612d3357600080fd5b5051925034841015612d4b57612d4b33853403613245565b505096509650969350505050565b60608142811015612d9f576040805162461bcd60e51b81526020600482015260136024820152600080516020614507833981519152604482015290519081900360640190fd5b7f00000000000000000000000000000000000000000000000000000000000000006001600160a01b031686866000818110612dd657fe5b905060200201356001600160a01b03166001600160a01b031614612e2f576040805162461bcd60e51b8152602060048201526018602482015260008051602061458d833981519152604482015290519081900360640190fd5b612e8d7f0000000000000000000000000000000000000000000000000000000000000000888888808060200260200160405190810160405280939291908181526020018383602002808284376000920191909152506139d892505050565b91503482600081518110612e9d57fe5b60200260200101511115612ee25760405162461bcd60e51b81526004018080602001828103825260228152602001806145276022913960400191505060405180910390fd5b7f00000000000000000000000000000000000000000000000000000000000000006001600160a01b031663d0e30db083600081518110612f1e57fe5b60200260200101516040518263ffffffff1660e01b81526004016000604051808303818588803b158015612f5157600080fd5b505af1158015612f65573d6000803e3d6000fd5b50505050507f00000000000000000000000000000000000000000000000000000000000000006001600160a01b031663a9059cbb612fca7f00000000000000000000000000000000000000000000000000000000000000008989600081811061174a57fe5b84600081518110612fd757fe5b60200260200101516040518363ffffffff1660e01b815260040180836001600160a01b03166001600160a01b0316815260200182815260200192505050602060405180830381600087803b15801561302e57600080fd5b505af1158015613042573d6000803e3d6000fd5b505050506040513d602081101561305857600080fd5b505161306057fe5b61309f82878780806020026020016040519081016040528093929190818152602001838360200280828437600092019190915250899250613792915050565b816000815181106130ac57fe5b6020026020010151341115611f1657611f1633836000815181106130cc57fe5b60200260200101513403613245565b604080516001600160a01b038481166024830152604480830185905283518084039091018152606490920183526020820180516001600160e01b031663a9059cbb60e01b178152925182516000946060949389169392918291908083835b602083106131585780518252601f199092019160209182019101613139565b6001836020036101000a0380198251168184511680821785525050505050509050019150506000604051808303816000865af19150503d80600081146131ba576040519150601f19603f3d011682016040523d82523d6000602084013e6131bf565b606091505b50915091508180156131ed5750805115806131ed57508080602001905160208110156131ea57600080fd5b50515b61323e576040805162461bcd60e51b815260206004820152601f60248201527f5472616e7366657248656c7065723a205452414e534645525f4641494c454400604482015290519081900360640190fd5b5050505050565b604080516000808252602082019092526001600160a01b0384169083906040518082805190602001908083835b602083106132915780518252601f199092019160209182019101613272565b6001836020036101000a03801982511681845116808217855250505050505090500191505060006040518083038185875af1925050503d80600081146132f3576040519150601f19603f3d011682016040523d82523d6000602084013e6132f8565b606091505b50509050806133385760405162461bcd60e51b81526004018080602001828103825260238152602001806146206023913960400191505060405180910390fd5b505050565b600080841161337d5760405162461bcd60e51b81526004018080602001828103825260268152602001806145d46026913960400191505060405180910390fd5b60008311801561338d5750600082115b6133c85760405162461bcd60e51b815260040180806020018281038252602381526020018061456a6023913960400191505060405180910390fd5b60006133dc856126f763ffffffff61445416565b905060006133f0828563ffffffff61445416565b905060006134168361340a8861271063ffffffff61445416565b9063ffffffff6144b716565b905080828161342157fe5b04979650505050505050565b6060600282511015613482576040805162461bcd60e51b8152602060048201526019602482015278096cacadc98d2c4e4c2e4f27440929cac82989288bea082a89603b1b604482015290519081900360640190fd5b815167ffffffffffffffff8111801561349a57600080fd5b506040519080825280602002602001820160405280156134c4578160200160208202803683370190505b50905082816000815181106134d557fe5b60200260200101818152505060005b600183510381101561356d576000806135278786858151811061350357fe5b602002602001015187866001018151811061351a57fe5b602002602001015161410d565b9150915061354984848151811061353a57fe5b6020026020010151838361333d565b84846001018151811061355857fe5b602090810291909101015250506001016134e4565b509392505050565b60008060006135848585614019565b604080516bffffffffffffffffffffffff19606094851b811660208084019190915293851b81166034830152825160288184030181526048830184528051908501206001600160f81b031960688401529a90941b9093166069840152607d8301989098527f23d69c6195341fef78742aae1957f436d9055f869be31a6d6e8877faa254226e609d808401919091528851808403909101815260bd909201909752805196019590952095945050505050565b604080516001600160a01b0385811660248301528481166044830152606480830185905283518084039091018152608490920183526020820180516001600160e01b03166323b872dd60e01b17815292518251600094606094938a169392918291908083835b602083106136ba5780518252601f19909201916020918201910161369b565b6001836020036101000a0380198251168184511680821785525050505050509050019150506000604051808303816000865af19150503d806000811461371c576040519150601f19603f3d011682016040523d82523d6000602084013e613721565b606091505b509150915081801561374f57508051158061374f575080806020019051602081101561374c57600080fd5b50515b61378a5760405162461bcd60e51b81526004018080602001828103825260248152602001806146436024913960400191505060405180910390fd5b505050505050565b60005b60018351038110156139d2576000808483815181106137b057fe5b60200260200101518584600101815181106137c757fe5b60200260200101519150915060006137df8383614019565b50905060008785600101815181106137f357fe5b60200260200101519050600080836001600160a01b0316866001600160a01b03161461382157826000613825565b6000835b91509150600060028a5103881061383c578861387d565b61387d7f0000000000000000000000000000000000000000000000000000000000000000878c8b6002018151811061387057fe5b6020026020010151613575565b90506138aa7f00000000000000000000000000000000000000000000000000000000000000008888613575565b6001600160a01b031663022c0d9f84848460006040519080825280601f01601f1916602001820160405280156138e7576020820181803683370190505b506040518563ffffffff1660e01b815260040180858152602001848152602001836001600160a01b03166001600160a01b0316815260200180602001828103825283818151815260200191508051906020019080838360005b83811015613958578181015183820152602001613940565b50505050905090810190601f1680156139855780820380516001836020036101000a031916815260200191505b5095505050505050600060405180830381600087803b1580156139a757600080fd5b505af11580156139bb573d6000803e3d6000fd5b505060019099019850613795975050505050505050565b50505050565b6060600282511015613a2d576040805162461bcd60e51b8152602060048201526019602482015278096cacadc98d2c4e4c2e4f27440929cac82989288bea082a89603b1b604482015290519081900360640190fd5b815167ffffffffffffffff81118015613a4557600080fd5b50604051908082528060200260200182016040528015613a6f578160200160208202803683370190505b5090508281600183510381518110613a8357fe5b60209081029190910101528151600019015b801561356d57600080613ac587866001860381518110613ab157fe5b602002602001015187868151811061351a57fe5b91509150613ae7848481518110613ad857fe5b60200260200101518383613e67565b846001850381518110613af657fe5b6020908102919091010152505060001901613a95565b60005b600183510381101561333857600080848381518110613b2a57fe5b6020026020010151858460010181518110613b4157fe5b6020026020010151915091506000613b598383614019565b5090506000613b897f00000000000000000000000000000000000000000000000000000000000000008585613575565b9050600080600080846001600160a01b0316630902f1ac6040518163ffffffff1660e01b815260040160606040518083038186803b158015613bca57600080fd5b505afa158015613bde573d6000803e3d6000fd5b505050506040513d6060811015613bf457600080fd5b5080516020909101516001600160701b0391821693501690506000806001600160a01b038a811690891614613c2a578284613c2d565b83835b91509150613c8b828b6001600160a01b03166370a082318a6040518263ffffffff1660e01b815260040180826001600160a01b03166001600160a01b0316815260200191505060206040518083038186803b1580156118ca57600080fd5b9550613c9886838361333d565b945050505050600080856001600160a01b0316886001600160a01b031614613cc257826000613cc6565b6000835b91509150600060028c51038a10613cdd578a613d11565b613d117f0000000000000000000000000000000000000000000000000000000000000000898e8d6002018151811061387057fe5b604080516000808252602082019283905263022c0d9f60e01b835260248201878152604483018790526001600160a01b038086166064850152608060848501908152845160a48601819052969750908c169563022c0d9f958a958a958a9591949193919260c486019290918190849084905b83811015613d9b578181015183820152602001613d83565b50505050905090810190601f168015613dc85780820380516001836020036101000a031916815260200191505b5095505050505050600060405180830381600087803b158015613dea57600080fd5b505af1158015613dfe573d6000803e3d6000fd5b50506001909b019a50613b0f9950505050505050505050565b808203828111156111cf576040805162461bcd60e51b815260206004820152601560248201527464732d6d6174682d7375622d756e646572666c6f7760581b604482015290519081900360640190fd5b6000808411613ea75760405162461bcd60e51b81526004018080602001828103825260278152602001806145ad6027913960400191505060405180910390fd5b600083118015613eb75750600082115b613ef25760405162461bcd60e51b815260040180806020018281038252602381526020018061456a6023913960400191505060405180910390fd5b6000613f16612710613f0a868863ffffffff61445416565b9063ffffffff61445416565b90506000613f306126f7613f0a868963ffffffff613e1716565b9050613f4d6001828481613f4057fe5b049063ffffffff6144b716565b9695505050505050565b6000808411613fad576040805162461bcd60e51b815260206004820181905260248201527f4b65656e4c6962726172793a20494e53554646494349454e545f414d4f554e54604482015290519081900360640190fd5b600083118015613fbd5750600082115b613ff85760405162461bcd60e51b815260040180806020018281038252602381526020018061456a6023913960400191505060405180910390fd5b82614009858463ffffffff61445416565b8161401057fe5b04949350505050565b600080826001600160a01b0316846001600160a01b03161415614083576040805162461bcd60e51b815260206004820181905260248201527f4b65656e4c6962726172793a204944454e544943414c5f414444524553534553604482015290519081900360640190fd5b826001600160a01b0316846001600160a01b0316106140a35782846140a6565b83835b90925090506001600160a01b038216614106576040805162461bcd60e51b815260206004820152601960248201527f4b65656e4c6962726172793a205a45524f5f4144445245535300000000000000604482015290519081900360640190fd5b9250929050565b600080600061411c8585614019565b50905061412a868686613575565b50600080614139888888613575565b6001600160a01b0316630902f1ac6040518163ffffffff1660e01b815260040160606040518083038186803b15801561417157600080fd5b505afa158015614185573d6000803e3d6000fd5b505050506040513d606081101561419b57600080fd5b5080516020909101516001600160701b0391821693501690506001600160a01b03878116908416146141ce5780826141d1565b81815b90999098509650505050505050565b6040805163e6a4390560e01b81526001600160a01b03888116600483015287811660248301529151600092839283927f00000000000000000000000000000000000000000000000000000000000000009092169163e6a4390591604480820192602092909190829003018186803b15801561425a57600080fd5b505afa15801561426e573d6000803e3d6000fd5b505050506040513d602081101561428457600080fd5b50516001600160a01b0316141561433757604080516364e329cb60e11b81526001600160a01b038a81166004830152898116602483015291517f00000000000000000000000000000000000000000000000000000000000000009092169163c9c65396916044808201926020929091908290030181600087803b15801561430a57600080fd5b505af115801561431e573d6000803e3d6000fd5b505050506040513d602081101561433457600080fd5b50505b6000806143657f00000000000000000000000000000000000000000000000000000000000000008b8b61410d565b91509150816000148015614377575080155b1561438757879350869250614447565b6000614394898484613f57565b90508781116143e757858110156143dc5760405162461bcd60e51b81526004018080602001828103825260218152602001806145496021913960400191505060405180910390fd5b889450925082614445565b60006143f4898486613f57565b90508981111561440057fe5b8781101561443f5760405162461bcd60e51b81526004018080602001828103825260218152602001806146676021913960400191505060405180910390fd5b94508793505b505b5050965096945050505050565b600081158061446f5750508082028282828161446c57fe5b04145b6111cf576040805162461bcd60e51b815260206004820152601460248201527364732d6d6174682d6d756c2d6f766572666c6f7760601b604482015290519081900360640190fd5b808201828110156111cf576040805162461bcd60e51b815260206004820152601460248201527364732d6d6174682d6164642d6f766572666c6f7760601b604482015290519081900360640190fdfe4b65656e526f757465723a2045585049524544000000000000000000000000004b65656e526f757465723a204558434553534956455f494e5055545f414d4f554e544b65656e526f757465723a20494e53554646494349454e545f425f414d4f554e544b65656e4c6962726172793a20494e53554646494349454e545f4c49515549444954594b65656e526f757465723a20494e56414c49445f5041544800000000000000004b65656e4c6962726172793a20494e53554646494349454e545f4f55545055545f414d4f554e544b65656e4c6962726172793a20494e53554646494349454e545f494e5055545f414d4f554e544b65656e526f757465723a20494e53554646494349454e545f4f55545055545f414d4f554e545472616e7366657248656c7065723a204554485f5452414e534645525f4641494c45445472616e7366657248656c7065723a205452414e534645525f46524f4d5f4641494c45444b65656e526f757465723a20494e53554646494349454e545f415f414d4f554e54a2646970667358221220eaa1074b99eb5fa22f351647d0c0a34815439283bb923842db0d5182de776e7c64736f6c63430006060033",
  "linkReferences": {},
  "deployedLinkReferences": {}
}