{
  "_format": "hh-sol-artifact-1",
  "contractName": "KeenRouter",
  "sourceName": "contracts/KeenRouter.sol",
  "abi": [
    {
      "inputs": [
        {
          "internalType": "address",
          "name": "_factory",
          "type": "address"
        },
        {
          "internalType": "address",
          "name": "_WKEEN",
          "type": "address"
        },
        {
          "internalType": "address",
          "name": "_keenUserContract",
          "type": "address"
        },
        {
          "internalType": "address",
          "name": "_committeeStackHolder",
          "type": "address"
        }
      ],
      "stateMutability": "nonpayable",
      "type": "constructor"
    },
    {
      "inputs": [],
      "name": "WKEEN",
      "outputs": [
        {
          "internalType": "address",
          "name": "",
          "type": "address"
        }
      ],
      "stateMutability": "view",
      "type": "function"
    },
    {
      "inputs": [
        {
          "internalType": "address[]",
          "name": "path",
          "type": "address[]"
        },
        {
          "internalType": "uint256",
          "name": "betTime",
          "type": "uint256"
        },
        {
          "internalType": "uint256",
          "name": "deadline",
          "type": "uint256"
        }
      ],
      "name": "accept",
      "outputs": [],
      "stateMutability": "nonpayable",
      "type": "function"
    },
    {
      "inputs": [
        {
          "internalType": "address",
          "name": "tokenA",
          "type": "address"
        },
        {
          "internalType": "address",
          "name": "tokenB",
          "type": "address"
        },
        {
          "internalType": "bool",
          "name": "isWKEEN",
          "type": "bool"
        },
        {
          "internalType": "uint256",
          "name": "amountADesired",
          "type": "uint256"
        },
        {
          "internalType": "uint256",
          "name": "amountBDesired",
          "type": "uint256"
        },
        {
          "internalType": "uint256",
          "name": "amountAMin",
          "type": "uint256"
        },
        {
          "internalType": "uint256",
          "name": "amountBMin",
          "type": "uint256"
        },
        {
          "internalType": "address",
          "name": "to",
          "type": "address"
        },
        {
          "internalType": "uint256",
          "name": "deadline",
          "type": "uint256"
        },
        {
          "internalType": "address",
          "name": "parent",
          "type": "address"
        }
      ],
      "name": "addCommitteeLiquidity",
      "outputs": [
        {
          "internalType": "uint256",
          "name": "amountA",
          "type": "uint256"
        },
        {
          "internalType": "uint256",
          "name": "amountB",
          "type": "uint256"
        },
        {
          "internalType": "uint256",
          "name": "liquidity",
          "type": "uint256"
        }
      ],
      "stateMutability": "nonpayable",
      "type": "function"
    },
    {
      "inputs": [
        {
          "internalType": "address",
          "name": "tokenA",
          "type": "address"
        },
        {
          "internalType": "address",
          "name": "tokenB",
          "type": "address"
        },
        {
          "internalType": "uint256",
          "name": "amountADesired",
          "type": "uint256"
        },
        {
          "internalType": "uint256",
          "name": "amountBDesired",
          "type": "uint256"
        },
        {
          "internalType": "uint256",
          "name": "amountAMin",
          "type": "uint256"
        },
        {
          "internalType": "uint256",
          "name": "amountBMin",
          "type": "uint256"
        },
        {
          "internalType": "address",
          "name": "to",
          "type": "address"
        },
        {
          "internalType": "uint256",
          "name": "deadline",
          "type": "uint256"
        }
      ],
      "name": "addCompanyLiquidity",
      "outputs": [
        {
          "internalType": "uint256",
          "name": "amountA",
          "type": "uint256"
        },
        {
          "internalType": "uint256",
          "name": "amountB",
          "type": "uint256"
        },
        {
          "internalType": "uint256",
          "name": "liquidity",
          "type": "uint256"
        }
      ],
      "stateMutability": "nonpayable",
      "type": "function"
    },
    {
      "inputs": [
        {
          "internalType": "address",
          "name": "tokenA",
          "type": "address"
        },
        {
          "internalType": "address",
          "name": "tokenB",
          "type": "address"
        },
        {
          "internalType": "uint256",
          "name": "amountADesired",
          "type": "uint256"
        },
        {
          "internalType": "uint256",
          "name": "amountBDesired",
          "type": "uint256"
        },
        {
          "internalType": "uint256",
          "name": "amountAMin",
          "type": "uint256"
        },
        {
          "internalType": "uint256",
          "name": "amountBMin",
          "type": "uint256"
        },
        {
          "internalType": "address",
          "name": "to",
          "type": "address"
        },
        {
          "internalType": "uint256",
          "name": "deadline",
          "type": "uint256"
        }
      ],
      "name": "addCompanyLiquidityByReplaceToken",
      "outputs": [
        {
          "internalType": "uint256",
          "name": "amountA",
          "type": "uint256"
        },
        {
          "internalType": "uint256",
          "name": "amountB",
          "type": "uint256"
        },
        {
          "internalType": "uint256",
          "name": "liquidity",
          "type": "uint256"
        }
      ],
      "stateMutability": "nonpayable",
      "type": "function"
    },
    {
      "inputs": [
        {
          "internalType": "address",
          "name": "tokenA",
          "type": "address"
        },
        {
          "internalType": "address",
          "name": "tokenB",
          "type": "address"
        },
        {
          "internalType": "uint256",
          "name": "amountADesired",
          "type": "uint256"
        },
        {
          "internalType": "uint256",
          "name": "amountBDesired",
          "type": "uint256"
        },
        {
          "internalType": "uint256",
          "name": "amountAMin",
          "type": "uint256"
        },
        {
          "internalType": "uint256",
          "name": "amountBMin",
          "type": "uint256"
        },
        {
          "internalType": "address",
          "name": "to",
          "type": "address"
        },
        {
          "internalType": "uint256",
          "name": "deadline",
          "type": "uint256"
        },
        {
          "internalType": "address",
          "name": "parent",
          "type": "address"
        }
      ],
      "name": "addShareholdersLiquidity",
      "outputs": [
        {
          "internalType": "uint256",
          "name": "amountA",
          "type": "uint256"
        },
        {
          "internalType": "uint256",
          "name": "amountB",
          "type": "uint256"
        },
        {
          "internalType": "uint256",
          "name": "liquidity",
          "type": "uint256"
        }
      ],
      "stateMutability": "nonpayable",
      "type": "function"
    },
    {
      "inputs": [
        {
          "internalType": "uint256",
          "name": "amountIn",
          "type": "uint256"
        },
        {
          "internalType": "address[]",
          "name": "path",
          "type": "address[]"
        },
        {
          "internalType": "uint256",
          "name": "betType",
          "type": "uint256"
        },
        {
          "internalType": "uint256",
          "name": "betTime",
          "type": "uint256"
        },
        {
          "internalType": "uint256",
          "name": "deadline",
          "type": "uint256"
        }
      ],
      "name": "bet",
      "outputs": [],
      "stateMutability": "nonpayable",
      "type": "function"
    },
    {
      "inputs": [],
      "name": "committeeStackHolder",
      "outputs": [
        {
          "internalType": "address",
          "name": "",
          "type": "address"
        }
      ],
      "stateMutability": "view",
      "type": "function"
    },
    {
      "inputs": [],
      "name": "factory",
      "outputs": [
        {
          "internalType": "address",
          "name": "",
          "type": "address"
        }
      ],
      "stateMutability": "view",
      "type": "function"
    },
    {
      "inputs": [
        {
          "internalType": "uint256",
          "name": "amountOut",
          "type": "uint256"
        },
        {
          "internalType": "uint256",
          "name": "reserveIn",
          "type": "uint256"
        },
        {
          "internalType": "uint256",
          "name": "reserveOut",
          "type": "uint256"
        }
      ],
      "name": "getAmountIn",
      "outputs": [
        {
          "internalType": "uint256",
          "name": "amountIn",
          "type": "uint256"
        }
      ],
      "stateMutability": "pure",
      "type": "function"
    },
    {
      "inputs": [
        {
          "internalType": "uint256",
          "name": "amountIn",
          "type": "uint256"
        },
        {
          "internalType": "uint256",
          "name": "reserveIn",
          "type": "uint256"
        },
        {
          "internalType": "uint256",
          "name": "reserveOut",
          "type": "uint256"
        }
      ],
      "name": "getAmountOut",
      "outputs": [
        {
          "internalType": "uint256",
          "name": "amountOut",
          "type": "uint256"
        }
      ],
      "stateMutability": "pure",
      "type": "function"
    },
    {
      "inputs": [
        {
          "internalType": "uint256",
          "name": "amountOut",
          "type": "uint256"
        },
        {
          "internalType": "address[]",
          "name": "path",
          "type": "address[]"
        }
      ],
      "name": "getAmountsIn",
      "outputs": [
        {
          "internalType": "uint256[]",
          "name": "amounts",
          "type": "uint256[]"
        }
      ],
      "stateMutability": "view",
      "type": "function"
    },
    {
      "inputs": [
        {
          "internalType": "uint256",
          "name": "amountIn",
          "type": "uint256"
        },
        {
          "internalType": "address[]",
          "name": "path",
          "type": "address[]"
        }
      ],
      "name": "getAmountsOut",
      "outputs": [
        {
          "internalType": "uint256[]",
          "name": "amounts",
          "type": "uint256[]"
        }
      ],
      "stateMutability": "view",
      "type": "function"
    },
    {
      "inputs": [
        {
          "internalType": "address",
          "name": "addressA",
          "type": "address"
        },
        {
          "internalType": "address",
          "name": "addressB",
          "type": "address"
        }
      ],
      "name": "getReserves",
      "outputs": [
        {
          "internalType": "uint256",
          "name": "reserve0",
          "type": "uint256"
        },
        {
          "internalType": "uint256",
          "name": "reserve1",
          "type": "uint256"
        }
      ],
      "stateMutability": "view",
      "type": "function"
    },
    {
      "inputs": [],
      "name": "keenUserContract",
      "outputs": [
        {
          "internalType": "address",
          "name": "",
          "type": "address"
        }
      ],
      "stateMutability": "view",
      "type": "function"
    },
    {
      "inputs": [
        {
          "internalType": "address",
          "name": "tokenA",
          "type": "address"
        },
        {
          "internalType": "address",
          "name": "tokenB",
          "type": "address"
        }
      ],
      "name": "pairFor",
      "outputs": [
        {
          "internalType": "address",
          "name": "pair",
          "type": "address"
        }
      ],
      "stateMutability": "view",
      "type": "function"
    },
    {
      "inputs": [
        {
          "internalType": "uint256",
          "name": "amountA",
          "type": "uint256"
        },
        {
          "internalType": "uint256",
          "name": "reserveA",
          "type": "uint256"
        },
        {
          "internalType": "uint256",
          "name": "reserveB",
          "type": "uint256"
        }
      ],
      "name": "quote",
      "outputs": [
        {
          "internalType": "uint256",
          "name": "amountB",
          "type": "uint256"
        }
      ],
      "stateMutability": "pure",
      "type": "function"
    },
    {
      "inputs": [
        {
          "internalType": "address",
          "name": "tokenA",
          "type": "address"
        },
        {
          "internalType": "address",
          "name": "tokenB",
          "type": "address"
        },
        {
          "internalType": "uint256",
          "name": "liquidity",
          "type": "uint256"
        },
        {
          "internalType": "uint256",
          "name": "amountAMin",
          "type": "uint256"
        },
        {
          "internalType": "uint256",
          "name": "amountBMin",
          "type": "uint256"
        },
        {
          "internalType": "address",
          "name": "to",
          "type": "address"
        },
        {
          "internalType": "uint256",
          "name": "deadline",
          "type": "uint256"
        },
        {
          "internalType": "uint256",
          "name": "stackType",
          "type": "uint256"
        }
      ],
      "name": "removeLiquidity",
      "outputs": [
        {
          "internalType": "uint256",
          "name": "amountA",
          "type": "uint256"
        },
        {
          "internalType": "uint256",
          "name": "amountB",
          "type": "uint256"
        }
      ],
      "stateMutability": "nonpayable",
      "type": "function"
    }
  ],
  "bytecode": "0x61010060405234801561001157600080fd5b50604051612bb0380380612bb08339818101604052608081101561003457600080fd5b508051602082015160408301516060938401516001600160601b031993851b841660805291841b831660a052831b821660c05290911b1660e05260805160601c60a05160601c60c05160601c60e05160601c612a6661014a60003980610c6a528061149f52806114ca528061154e5280611579525080610782528061113352806111ec52806119195280612334528061246f528061251f525080610f5a528061147d528061152c525080610758528061089252806108c15280610a1b5280610a9d5280610b825280610ca05280610d1c5280610f365280610f835280610fb4528061105252806111c25280611401528061143652806116b2528061179d528061182d5280611aa95280611b825250612a666000f3fe608060405234801561001057600080fd5b50600436106101165760003560e01c8063c45a0155116100a2578063dca9be8c11610071578063dca9be8c14610531578063df2c717414610591578063df3f431014610599578063e2372111146105ee578063f684b8f31461065557610116565b8063c45a01551461044b578063ce385c8114610453578063d06ca61f1461045b578063d52bb6f41461050357610116565b8063415bc445116100e9578063415bc4451461033757806385f8c2591461035b57806396ed28f914610384578063a3459139146103b2578063ad615dec1461042257610116565b8063054d50d41461011b578063118ff727146101565780631f00ca74146101c95780633662d003146102c1575b600080fd5b6101446004803603606081101561013157600080fd5b50803590602081013590604001356106d6565b60408051918252519081900360200190f35b6101ab600480360361010081101561016d57600080fd5b506001600160a01b038135811691602081013582169160408201359160608101359160808201359160a08101359160c0820135169060e001356106eb565b60408051938452602084019290925282820152519081900360600190f35b610271600480360360408110156101df57600080fd5b81359190810190604081016020820135600160201b81111561020057600080fd5b82018360208201111561021257600080fd5b803590602001918460208302840111600160201b8311171561023357600080fd5b919080806020026020016040519081016040528093929190818152602001838360200280828437600092019190915250929550610a14945050505050565b60408051602080825283518183015283519192839290830191858101910280838360005b838110156102ad578181015183820152602001610295565b505050509050019250505060405180910390f35b610335600480360360608110156102d757600080fd5b810190602081018135600160201b8111156102f157600080fd5b82018360208201111561030357600080fd5b803590602001918460208302840111600160201b8311171561032457600080fd5b919350915080359060200135610a4a565b005b61033f610c68565b604080516001600160a01b039092168252519081900360200190f35b6101446004803603606081101561037157600080fd5b5080359060208101359060400135610c8c565b61033f6004803603604081101561039a57600080fd5b506001600160a01b0381358116916020013516610c99565b61040960048036036101008110156103c957600080fd5b506001600160a01b038135811691602081013582169160408201359160608101359160808201359160a08101359091169060c08101359060e00135610cc6565b6040805192835260208301919091528051918290030190f35b6101446004803603606081101561043857600080fd5b5080359060208101359060400135610f27565b61033f610f34565b61033f610f58565b6102716004803603604081101561047157600080fd5b81359190810190604081016020820135600160201b81111561049257600080fd5b8201836020820111156104a457600080fd5b803590602001918460208302840111600160201b831117156104c557600080fd5b919080806020026020016040519081016040528093929190818152602001838360200280828437600092019190915250929550610f7c945050505050565b6104096004803603604081101561051957600080fd5b506001600160a01b0381358116916020013516610fa9565b6101ab600480360361012081101561054857600080fd5b506001600160a01b038135811691602081013582169160408201359160608101359160808201359160a08101359160c082013581169160e0810135916101009091013516610fe7565b61033f611131565b6101ab60048036036101008110156105b057600080fd5b506001600160a01b038135811691602081013582169160408201359160608101359160808201359160a08101359160c0820135169060e00135611155565b6101ab600480360361014081101561060557600080fd5b506001600160a01b0381358116916020810135821691604082013515159160608101359160808201359160a08101359160c08201359160e081013582169161010082013591610120013516611394565b610335600480360360a081101561066b57600080fd5b81359190810190604081016020820135600160201b81111561068c57600080fd5b82018360208201111561069e57600080fd5b803590602001918460208302840111600160201b831117156106bf57600080fd5b91935091508035906020810135906040013561165f565b60006106e3848484611988565b949350505050565b6000806000834281101561073c576040805162461bcd60e51b815260206004820152601360248201527212d9595b949bdd5d195c8e8811561412549151606a1b604482015290519081900360640190fd5b8b8b61074c82828e8e8e8e611a78565b9096509450600061077e7f00000000000000000000000000000000000000000000000000000000000000008484611c97565b90507f00000000000000000000000000000000000000000000000000000000000000006001600160a01b0316632fd4aa8a60018b6040518363ffffffff1660e01b815260040180838152602001826001600160a01b03166001600160a01b031681526020019250505060206040518083038186803b1580156107ff57600080fd5b505afa158015610813573d6000803e3d6000fd5b505050506040513d602081101561082957600080fd5b505161087c576040805162461bcd60e51b815260206004820152601b60248201527f4b65656e526f757465723a204d5553545f49535f434f4d50414e590000000000604482015290519081900360640190fd5b60006108888484611d57565b50905060006108b87f00000000000000000000000000000000000000000000000000000000000000008686611e4b565b905060006108e77f00000000000000000000000000000000000000000000000000000000000000008787611ed0565b90506001600160a01b0382161561092357856001600160a01b0316836001600160a01b0316141561091a5781955061091e565b8194505b610957565b6001600160a01b0381161561095757856001600160a01b0316836001600160a01b03161461095357809550610957565b8094505b6109638633868d611f21565b61096f8533868c611f21565b604080516340c10f1960e01b81526001600160a01b038e81166004830152600160248301529151918616916340c10f19916044808201926020929091908290030181600087803b1580156109c257600080fd5b505af11580156109d6573d6000803e3d6000fd5b505050506040513d60208110156109ec57600080fd5b8101908080519060200190929190505050975050505050505050985098509895505050505050565b6060610a417f0000000000000000000000000000000000000000000000000000000000000000848461207e565b90505b92915050565b8042811015610a96576040805162461bcd60e51b815260206004820152601360248201527212d9595b949bdd5d195c8e8811561412549151606a1b604482015290519081900360640190fd5b6000610afb7f000000000000000000000000000000000000000000000000000000000000000087876000818110610ac957fe5b905060200201356001600160a01b031688886001818110610ae657fe5b905060200201356001600160a01b03166121c7565b9050806001600160a01b031686866000818110610b1457fe5b905060200201356001600160a01b03166001600160a01b03161415610b7b576040805162461bcd60e51b815260206004820152601860248201527725b2b2b72937baba32b91d102820aa242f982fa2a92927a960411b604482015290519081900360640190fd5b6000610be07f000000000000000000000000000000000000000000000000000000000000000088886000818110610bae57fe5b905060200201356001600160a01b031689896001818110610bcb57fe5b905060200201356001600160a01b0316611c97565b60408051633359d5c760e21b81523360048201526024810188905290519192506001600160a01b0383169163cd67571c916044808201926020929091908290030181600087803b158015610c3357600080fd5b505af1158015610c47573d6000803e3d6000fd5b505050506040513d6020811015610c5d57600080fd5b505050505050505050565b7f000000000000000000000000000000000000000000000000000000000000000081565b60006106e3848484612218565b6000610a417f00000000000000000000000000000000000000000000000000000000000000008484611c97565b6000808342811015610d15576040805162461bcd60e51b815260206004820152601360248201527212d9595b949bdd5d195c8e8811561412549151606a1b604482015290519081900360640190fd5b6000610d427f00000000000000000000000000000000000000000000000000000000000000008d8d611c97565b604080516323b872dd60e01b81523360048201526001600160a01b03831660248201819052604482018e9052915192935090916323b872dd916064808201926020929091908290030181600087803b158015610d9d57600080fd5b505af1158015610db1573d6000803e3d6000fd5b505050506040513d6020811015610dc757600080fd5b505060408051632770a7eb60e21b81526001600160a01b038981166004830152602482018890528251600093849392861692639dc29fac926044808301939282900301818787803b158015610e1b57600080fd5b505af1158015610e2f573d6000803e3d6000fd5b505050506040513d6040811015610e4557600080fd5b50805160209091015190925090506000610e5f8f8f611d57565b509050806001600160a01b03168f6001600160a01b031614610e82578183610e85565b82825b90975095508b871015610ec95760405162461bcd60e51b8152600401808060200182810382526021815260200180612a106021913960400191505060405180910390fd5b8a861015610f085760405162461bcd60e51b815260040180806020018281038252602181526020018061295b6021913960400191505060405180910390fd5b610f15848b8a6000612308565b50505050509850989650505050505050565b60006106e3848484612589565b7f000000000000000000000000000000000000000000000000000000000000000081565b7f000000000000000000000000000000000000000000000000000000000000000081565b6060610a417f0000000000000000000000000000000000000000000000000000000000000000848461264b565b600080600080610fda7f0000000000000000000000000000000000000000000000000000000000000000878761277e565b9097909650945050505050565b60008060008442811015611038576040805162461bcd60e51b815260206004820152601360248201527212d9595b949bdd5d195c8e8811561412549151606a1b604482015290519081900360640190fd5b6110468d8d8d8d8d8d611a78565b909450925060006110787f00000000000000000000000000000000000000000000000000000000000000008f8f611c97565b90506110868e338388611f21565b6110928d338387611f21565b604080516340c10f1960e01b81526001600160a01b038a81166004830152600360248301529151918316916340c10f19916044808201926020929091908290030181600087803b1580156110e557600080fd5b505af11580156110f9573d6000803e3d6000fd5b505050506040513d602081101561110f57600080fd5b505192506111208189600389612308565b505099509950999650505050505050565b7f000000000000000000000000000000000000000000000000000000000000000081565b600080600083428110156111a6576040805162461bcd60e51b815260206004820152601360248201527212d9595b949bdd5d195c8e8811561412549151606a1b604482015290519081900360640190fd5b8b8b6111b682828e8e8e8e611a78565b909650945060006111e87f00000000000000000000000000000000000000000000000000000000000000008484611c97565b90507f00000000000000000000000000000000000000000000000000000000000000006001600160a01b0316632fd4aa8a60018b6040518363ffffffff1660e01b815260040180838152602001826001600160a01b03166001600160a01b031681526020019250505060206040518083038186803b15801561126957600080fd5b505afa15801561127d573d6000803e3d6000fd5b505050506040513d602081101561129357600080fd5b50516112e6576040805162461bcd60e51b815260206004820152601b60248201527f4b65656e526f757465723a204d5553545f49535f434f4d50414e590000000000604482015290519081900360640190fd5b6112f28333838a611f21565b6112fe82338389611f21565b604080516340c10f1960e01b81526001600160a01b038b81166004830152600160248301529151918316916340c10f19916044808201926020929091908290030181600087803b15801561135157600080fd5b505af1158015611365573d6000803e3d6000fd5b505050506040513d602081101561137b57600080fd5b5051969f959e50959c50939a5050505050505050505050565b600080600084428110156113e5576040805162461bcd60e51b815260206004820152601360248201527212d9595b949bdd5d195c8e8811561412549151606a1b604482015290519081900360640190fd5b8d8d6113f582828f8f8f8f611a78565b909650945060006114277f00000000000000000000000000000000000000000000000000000000000000008484611c97565b90508e156115a557600061145c7f000000000000000000000000000000000000000000000000000000000000000085856121c7565b9050836001600160a01b0316816001600160a01b03161415611501576114c47f0000000000000000000000000000000000000000000000000000000000000000337f00000000000000000000000000000000000000000000000000000000000000008b611f21565b6114f0847f0000000000000000000000000000000000000000000000000000000000000000848b611f21565b6114fc8333848a611f21565b61159f565b826001600160a01b0316816001600160a01b0316141561159f576115278433848b611f21565b6115737f0000000000000000000000000000000000000000000000000000000000000000337f00000000000000000000000000000000000000000000000000000000000000008a611f21565b61159f837f0000000000000000000000000000000000000000000000000000000000000000848a611f21565b506115bd565b6115b18333838a611f21565b6115bd82338389611f21565b604080516340c10f1960e01b81526001600160a01b038c81166004830152600260248301529151918316916340c10f19916044808201926020929091908290030181600087803b15801561161057600080fd5b505af1158015611624573d6000803e3d6000fd5b505050506040513d602081101561163a57600080fd5b5051945061164b818b60028b612308565b505050509a509a509a975050505050505050565b80428110156116ab576040805162461bcd60e51b815260206004820152601360248201527212d9595b949bdd5d195c8e8811561412549151606a1b604482015290519081900360640190fd5b60006116fb7f0000000000000000000000000000000000000000000000000000000000000000888860008181106116de57fe5b905060200201356001600160a01b031689896001818110610ae657fe5b9050806001600160a01b03168787600181811061171457fe5b905060200201356001600160a01b03166001600160a01b03161461177a576040805162461bcd60e51b815260206004820152601860248201527725b2b2b72937baba32b91d102820aa242f982fa2a92927a960411b604482015290519081900360640190fd5b6118268787600081811061178a57fe5b905060200201356001600160a01b0316337f00000000000000000000000000000000000000000000000000000000000000006001600160a01b031663c090ee746040518163ffffffff1660e01b815260040160206040518083038186803b1580156117f457600080fd5b505afa158015611808573d6000803e3d6000fd5b505050506040513d602081101561181e57600080fd5b50518b611f21565b60006118767f00000000000000000000000000000000000000000000000000000000000000008989600081811061185957fe5b905060200201356001600160a01b03168a8a6001818110610bcb57fe5b6040805162fae06760e01b8152600481018c9052336024820152604481018990526064810188905290519192506001600160a01b0383169162fae0679160848082019260009290919082900301818387803b1580156118d457600080fd5b505af11580156118e8573d6000803e3d6000fd5b505060408051638d974f1560e01b81526001600160a01b038581166004830152602482018e905233604483015291517f00000000000000000000000000000000000000000000000000000000000000009092169350638d974f15925060648082019260009290919082900301818387803b15801561196557600080fd5b505af1158015611979573d6000803e3d6000fd5b50505050505050505050505050565b60008084116119c85760405162461bcd60e51b81526004018080602001828103825260268152602001806129c66026913960400191505060405180910390fd5b6000831180156119d85750600082115b611a135760405162461bcd60e51b815260040180806020018281038252602381526020018061297c6023913960400191505060405180910390fd5b6000611a27856126f763ffffffff61285816565b90506000611a3b828563ffffffff61285816565b90506000611a6183611a558861271063ffffffff61285816565b9063ffffffff6128bb16565b9050808281611a6c57fe5b04979650505050505050565b6040805163e6a4390560e01b81526001600160a01b03888116600483015287811660248301529151600092839283927f00000000000000000000000000000000000000000000000000000000000000009092169163e6a4390591604480820192602092909190829003018186803b158015611af257600080fd5b505afa158015611b06573d6000803e3d6000fd5b505050506040513d6020811015611b1c57600080fd5b50516001600160a01b03161415611b7a576040805162461bcd60e51b815260206004820152601a60248201527f4b65656e526f757465723a20504149525f4e4f545f4558495354000000000000604482015290519081900360640190fd5b600080611ba87f00000000000000000000000000000000000000000000000000000000000000008b8b61277e565b91509150816000148015611bba575080155b15611bca57879350869250611c8a565b6000611bd7898484612589565b9050878111611c2a5785811015611c1f5760405162461bcd60e51b815260040180806020018281038252602181526020018061295b6021913960400191505060405180910390fd5b889450925082611c88565b6000611c37898486612589565b905089811115611c4357fe5b87811015611c825760405162461bcd60e51b8152600401808060200182810382526021815260200180612a106021913960400191505060405180910390fd5b94508793505b505b5050965096945050505050565b6000806000611ca68585611d57565b604080516bffffffffffffffffffffffff19606094851b811660208084019190915293851b81166034830152825160288184030181526048830184528051908501206001600160f81b031960688401529a90941b9093166069840152607d8301989098527fed643b98febb8bc860df619b52a17f5f217eaca97713c32a12fa0f73534ba68b609d808401919091528851808403909101815260bd909201909752805196019590952095945050505050565b600080826001600160a01b0316846001600160a01b03161415611dc1576040805162461bcd60e51b815260206004820181905260248201527f4b65656e4c6962726172793a204944454e544943414c5f414444524553534553604482015290519081900360640190fd5b826001600160a01b0316846001600160a01b031610611de1578284611de4565b83835b90925090506001600160a01b038216611e44576040805162461bcd60e51b815260206004820152601960248201527f4b65656e4c6962726172793a205a45524f5f4144445245535300000000000000604482015290519081900360640190fd5b9250929050565b6000611e58848484611c97565b50611e64848484611c97565b6001600160a01b031663cb40b2b46040518163ffffffff1660e01b815260040160206040518083038186803b158015611e9c57600080fd5b505afa158015611eb0573d6000803e3d6000fd5b505050506040513d6020811015611ec657600080fd5b5051949350505050565b6000611edd848484611c97565b50611ee9848484611c97565b6001600160a01b031663bd897a046040518163ffffffff1660e01b815260040160206040518083038186803b158015611e9c57600080fd5b604080516001600160a01b0385811660248301528481166044830152606480830185905283518084039091018152608490920183526020820180516001600160e01b03166323b872dd60e01b17815292518251600094606094938a169392918291908083835b60208310611fa65780518252601f199092019160209182019101611f87565b6001836020036101000a0380198251168184511680821785525050505050509050019150506000604051808303816000865af19150503d8060008114612008576040519150601f19603f3d011682016040523d82523d6000602084013e61200d565b606091505b509150915081801561203b57508051158061203b575080806020019051602081101561203857600080fd5b50515b6120765760405162461bcd60e51b81526004018080602001828103825260248152602001806129ec6024913960400191505060405180910390fd5b505050505050565b60606002825110156120d3576040805162461bcd60e51b8152602060048201526019602482015278096cacadc98d2c4e4c2e4f27440929cac82989288bea082a89603b1b604482015290519081900360640190fd5b815167ffffffffffffffff811180156120eb57600080fd5b50604051908082528060200260200182016040528015612115578160200160208202803683370190505b509050828160018351038151811061212957fe5b60209081029190910101528151600019015b80156121bf576000806121788786600186038151811061215757fe5b602002602001015187868151811061216b57fe5b602002602001015161277e565b9150915061219a84848151811061218b57fe5b60200260200101518383612218565b8460018503815181106121a957fe5b602090810291909101015250506000190161213b565b509392505050565b60006121d4848484611c97565b506121e0848484611c97565b6001600160a01b031663581a58096040518163ffffffff1660e01b815260040160206040518083038186803b158015611e9c57600080fd5b60008084116122585760405162461bcd60e51b815260040180806020018281038252602781526020018061299f6027913960400191505060405180910390fd5b6000831180156122685750600082115b6122a35760405162461bcd60e51b815260040180806020018281038252602381526020018061297c6023913960400191505060405180910390fd5b60006122c76127106122bb868863ffffffff61285816565b9063ffffffff61285816565b905060006122e16126f76122bb868963ffffffff61290a16565b90506122fe60018284816122f157fe5b049063ffffffff6128bb16565b9695505050505050565b604080516317ea554560e11b8152600481018490526001600160a01b03858116602483015291516000927f00000000000000000000000000000000000000000000000000000000000000001691632fd4aa8a916044808301926020929190829003018186803b15801561237a57600080fd5b505afa15801561238e573d6000803e3d6000fd5b505050506040513d60208110156123a457600080fd5b50516040805163c366a84360e01b81526001600160a01b03878116600483015291519293506000929188169163c366a84391602480820192602092909190829003018186803b1580156123f657600080fd5b505afa15801561240a573d6000803e3d6000fd5b505050506040513d602081101561242057600080fd5b50519050818015612439575068056bc75e2d6310000081105b156124d2576040805163ac1467ab60e01b81526001600160a01b03878116600483015260248201879052858116604483015291517f00000000000000000000000000000000000000000000000000000000000000009092169163ac1467ab9160648082019260009290919082900301818387803b1580156124b957600080fd5b505af11580156124cd573d6000803e3d6000fd5b505050505b811580156124e9575068056bc75e2d631000008110155b156120765760408051633a62260d60e11b81526001600160a01b03878116600483015260248201879052858116604483015291517f0000000000000000000000000000000000000000000000000000000000000000909216916374c44c1a9160648082019260009290919082900301818387803b15801561256957600080fd5b505af115801561257d573d6000803e3d6000fd5b50505050505050505050565b60008084116125df576040805162461bcd60e51b815260206004820181905260248201527f4b65656e4c6962726172793a20494e53554646494349454e545f414d4f554e54604482015290519081900360640190fd5b6000831180156125ef5750600082115b61262a5760405162461bcd60e51b815260040180806020018281038252602381526020018061297c6023913960400191505060405180910390fd5b8261263b858463ffffffff61285816565b8161264257fe5b04949350505050565b60606002825110156126a0576040805162461bcd60e51b8152602060048201526019602482015278096cacadc98d2c4e4c2e4f27440929cac82989288bea082a89603b1b604482015290519081900360640190fd5b815167ffffffffffffffff811180156126b857600080fd5b506040519080825280602002602001820160405280156126e2578160200160208202803683370190505b50905082816000815181106126f357fe5b60200260200101818152505060005b60018351038110156121bf576000806127388786858151811061272157fe5b602002602001015187866001018151811061216b57fe5b9150915061275a84848151811061274b57fe5b60200260200101518383611988565b84846001018151811061276957fe5b60209081029190910101525050600101612702565b600080600061278d8585611d57565b50905061279b868686611c97565b506000806127aa888888611c97565b6001600160a01b0316630902f1ac6040518163ffffffff1660e01b815260040160606040518083038186803b1580156127e257600080fd5b505afa1580156127f6573d6000803e3d6000fd5b505050506040513d606081101561280c57600080fd5b5080516020909101516dffffffffffffffffffffffffffff91821693501690506001600160a01b0387811690841614612846578082612849565b81815b90999098509650505050505050565b60008115806128735750508082028282828161287057fe5b04145b610a44576040805162461bcd60e51b815260206004820152601460248201527364732d6d6174682d6d756c2d6f766572666c6f7760601b604482015290519081900360640190fd5b80820182811015610a44576040805162461bcd60e51b815260206004820152601460248201527364732d6d6174682d6164642d6f766572666c6f7760601b604482015290519081900360640190fd5b80820382811115610a44576040805162461bcd60e51b815260206004820152601560248201527464732d6d6174682d7375622d756e646572666c6f7760581b604482015290519081900360640190fdfe4b65656e526f757465723a20494e53554646494349454e545f425f414d4f554e544b65656e4c6962726172793a20494e53554646494349454e545f4c49515549444954594b65656e4c6962726172793a20494e53554646494349454e545f4f55545055545f414d4f554e544b65656e4c6962726172793a20494e53554646494349454e545f494e5055545f414d4f554e545472616e7366657248656c7065723a205452414e534645525f46524f4d5f4641494c45444b65656e526f757465723a20494e53554646494349454e545f415f414d4f554e54a2646970667358221220c9a9c89be3ca0018fb9d5ed60f85de4b6de18fa391a7d97a4d69d4c66253f42464736f6c63430006060033",
  "linkReferences": {},
  "deployedLinkReferences": {}
}