{
  "_format": "hh-sol-artifact-1",
  "contractName": "DateTime",
  "sourceName": "contracts/DateTime.sol",
  "abi": [
    {
      "constant": true,
      "inputs": [
        {
          "name": "timestamp",
          "type": "uint256"
        }
      ],
      "name": "getHour",
      "outputs": [
        {
          "name": "",
          "type": "uint8"
        }
      ],
      "payable": false,
      "stateMutability": "pure",
      "type": "function"
    },
    {
      "constant": true,
      "inputs": [
        {
          "name": "timestamp",
          "type": "uint256"
        }
      ],
      "name": "getWeekday",
      "outputs": [
        {
          "name": "",
          "type": "uint8"
        }
      ],
      "payable": false,
      "stateMutability": "pure",
      "type": "function"
    },
    {
      "constant": true,
      "inputs": [
        {
          "name": "year",
          "type": "uint16"
        },
        {
          "name": "month",
          "type": "uint8"
        },
        {
          "name": "day",
          "type": "uint8"
        },
        {
          "name": "hour",
          "type": "uint8"
        },
        {
          "name": "minute",
          "type": "uint8"
        }
      ],
      "name": "toTimestamp",
      "outputs": [
        {
          "name": "timestamp",
          "type": "uint256"
        }
      ],
      "payable": false,
      "stateMutability": "pure",
      "type": "function"
    },
    {
      "constant": true,
      "inputs": [
        {
          "name": "timestamp",
          "type": "uint256"
        }
      ],
      "name": "getDay",
      "outputs": [
        {
          "name": "",
          "type": "uint8"
        }
      ],
      "payable": false,
      "stateMutability": "pure",
      "type": "function"
    },
    {
      "constant": true,
      "inputs": [
        {
          "name": "year",
          "type": "uint16"
        },
        {
          "name": "month",
          "type": "uint8"
        },
        {
          "name": "day",
          "type": "uint8"
        },
        {
          "name": "hour",
          "type": "uint8"
        }
      ],
      "name": "toTimestamp",
      "outputs": [
        {
          "name": "timestamp",
          "type": "uint256"
        }
      ],
      "payable": false,
      "stateMutability": "pure",
      "type": "function"
    },
    {
      "constant": true,
      "inputs": [
        {
          "name": "timestamp",
          "type": "uint256"
        }
      ],
      "name": "getSecond",
      "outputs": [
        {
          "name": "",
          "type": "uint8"
        }
      ],
      "payable": false,
      "stateMutability": "pure",
      "type": "function"
    },
    {
      "constant": true,
      "inputs": [
        {
          "name": "year",
          "type": "uint16"
        },
        {
          "name": "month",
          "type": "uint8"
        },
        {
          "name": "day",
          "type": "uint8"
        }
      ],
      "name": "toTimestamp",
      "outputs": [
        {
          "name": "timestamp",
          "type": "uint256"
        }
      ],
      "payable": false,
      "stateMutability": "pure",
      "type": "function"
    },
    {
      "constant": true,
      "inputs": [
        {
          "name": "year",
          "type": "uint16"
        },
        {
          "name": "month",
          "type": "uint8"
        },
        {
          "name": "day",
          "type": "uint8"
        },
        {
          "name": "hour",
          "type": "uint8"
        },
        {
          "name": "minute",
          "type": "uint8"
        },
        {
          "name": "second",
          "type": "uint8"
        }
      ],
      "name": "toTimestamp",
      "outputs": [
        {
          "name": "timestamp",
          "type": "uint256"
        }
      ],
      "payable": false,
      "stateMutability": "pure",
      "type": "function"
    },
    {
      "constant": true,
      "inputs": [
        {
          "name": "timestamp",
          "type": "uint256"
        }
      ],
      "name": "getYear",
      "outputs": [
        {
          "name": "",
          "type": "uint16"
        }
      ],
      "payable": false,
      "stateMutability": "pure",
      "type": "function"
    },
    {
      "constant": true,
      "inputs": [
        {
          "name": "timestamp",
          "type": "uint256"
        }
      ],
      "name": "getMonth",
      "outputs": [
        {
          "name": "",
          "type": "uint8"
        }
      ],
      "payable": false,
      "stateMutability": "pure",
      "type": "function"
    },
    {
      "constant": true,
      "inputs": [
        {
          "name": "year",
          "type": "uint16"
        }
      ],
      "name": "isLeapYear",
      "outputs": [
        {
          "name": "",
          "type": "bool"
        }
      ],
      "payable": false,
      "stateMutability": "pure",
      "type": "function"
    },
    {
      "constant": true,
      "inputs": [
        {
          "name": "year",
          "type": "uint256"
        }
      ],
      "name": "leapYearsBefore",
      "outputs": [
        {
          "name": "",
          "type": "uint256"
        }
      ],
      "payable": false,
      "stateMutability": "pure",
      "type": "function"
    },
    {
      "constant": true,
      "inputs": [
        {
          "name": "month",
          "type": "uint8"
        },
        {
          "name": "year",
          "type": "uint16"
        }
      ],
      "name": "getDaysInMonth",
      "outputs": [
        {
          "name": "",
          "type": "uint8"
        }
      ],
      "payable": false,
      "stateMutability": "pure",
      "type": "function"
    },
    {
      "constant": true,
      "inputs": [
        {
          "name": "timestamp",
          "type": "uint256"
        }
      ],
      "name": "beginOfDay",
      "outputs": [
        {
          "name": "",
          "type": "uint256"
        }
      ],
      "payable": false,
      "stateMutability": "pure",
      "type": "function"
    },
    {
      "constant": true,
      "inputs": [
        {
          "name": "timestamp",
          "type": "uint256"
        }
      ],
      "name": "getMinute",
      "outputs": [
        {
          "name": "",
          "type": "uint8"
        }
      ],
      "payable": false,
      "stateMutability": "pure",
      "type": "function"
    }
  ],
  "bytecode": "0x608060405234801561001057600080fd5b506108cb806100206000396000f3006080604052600436106100da5763ffffffff7c01000000000000000000000000000000000000000000000000000000006000350416633e239e1a81146100df5780634ac1ad781461010d57806362ba96871461012557806365c728401461016b5780637f791833146101835780638aa001fc146101b15780638c8d98a0146101c95780639054bdec146101f157806392d663131461022b578063a324ad241461025a578063a6f0e57714610272578063b1999937146102a2578063b238ad0e146102ba578063efd6ff9e146102dc578063fa93f883146102f4575b600080fd5b3480156100eb57600080fd5b506100f760043561030c565b6040805160ff9092168252519081900360200190f35b34801561011957600080fd5b506100f7600435610329565b34801561013157600080fd5b5061015961ffff6004351660ff6024358116906044358116906064358116906084351661033b565b60408051918252519081900360200190f35b34801561017757600080fd5b506100f7600435610356565b34801561018f57600080fd5b5061015961ffff6004351660ff6024358116906044358116906064351661036b565b3480156101bd57600080fd5b506100f7600435610385565b3480156101d557600080fd5b5061015961ffff6004351660ff6024358116906044351661038f565b3480156101fd57600080fd5b5061015961ffff6004351660ff60243581169060443581169060643581169060843581169060a435166103a9565b34801561023757600080fd5b506102436004356104ef565b6040805161ffff9092168252519081900360200190f35b34801561026657600080fd5b506100f760043561057f565b34801561027e57600080fd5b5061028e61ffff60043516610594565b604080519115158252519081900360200190f35b3480156102ae57600080fd5b506101596004356105e2565b3480156102c657600080fd5b506100f760ff6004351661ffff602435166105fd565b3480156102e857600080fd5b506101596004356106c5565b34801561030057600080fd5b506100f76004356106ea565b60006018603c8084045b0481151561032057fe5b0690505b919050565b60006007600462015180840401610320565b600061034c868686868660006103a9565b9695505050505050565b6000610361826106f5565b6040015192915050565b600061037c858585856000806103a9565b95945050505050565b6000603c82610320565b60006103a184848460008060006103a9565b949350505050565b6000806103b4610843565b6107b291505b8861ffff168261ffff1610156103fb576103d382610594565b156103e6576301e28500830192506103f0565b6301e13380830192505b6001909101906103ba565b601f815261040889610594565b1561041957601d6020820152610421565b601c60208201525b601f60408201819052601e606083018190526080830182905260a0830181905260c0830182905260e0830182905261010083018190526101208301829052610140830152610160820152600191505b8760ff168261ffff1610156104b1578061ffff600019840116600c811061049357fe5b602002015160ff166201518002830192508180600101925050610470565b6001870360ff166201518002830192508560ff16610e1002830192508460ff16603c02830192508360ff168301925082925050509695505050505050565b6000806107b26301e133808404810190829061050a906105e2565b6105178361ffff166105e2565b039050806301e285000283019250806107b2830361ffff16036301e1338002830192505b848311156105775761054f60018303610594565b15610562576301e285008303925061056c565b6301e13380830392505b60018203915061053b565b509392505050565b600061058a826106f5565b6020015192915050565b600060038216156105a757506000610324565b606461ffff83160661ffff16156105c057506001610324565b61019061ffff83160661ffff16156105da57506000610324565b506001919050565b60001901600061019082046064830460048404030192915050565b60008260ff166001148061061457508260ff166003145b8061062257508260ff166005145b8061063057508260ff166007145b8061063e57508260ff166008145b8061064c57508260ff16600a145b8061065a57508260ff16600c145b156106675750601f6106bf565b8260ff166004148061067c57508260ff166006145b8061068a57508260ff166009145b8061069857508260ff16600b145b156106a55750601e6106bf565b6106ae82610594565b156106bb5750601d6106bf565b50601c5b92915050565b60006106bf6106d3836104ef565b6106dc8461057f565b6106e585610356565b61038f565b6000603c8083610316565b6106fd610863565b600080808061070b866104ef565b61ffff16855261071c6107b26105e2565b855161072b9061ffff166105e2565b039250826301e285000284019350826107b286600001510361ffff16036301e133800284019350600191505b600c60ff8316116107a1576107708286600001516105fd565b60ff16620151800290508584820111156107925760ff821660208601526107a1565b92830192600190910190610757565b600191505b6107b8856020015186600001516105fd565b60ff168260ff161115156107f5578584620151800111156107e15760ff821660408601526107f5565b6201518093909301926001909101906107a6565b6107fe8661030c565b60ff16606086015261080f866106ea565b60ff16608086015261082086610385565b60ff1660a086015261083186610329565b60ff1660c08601525092949350505050565b61018060405190810160405280600c906020820280388339509192915050565b6040805160e081018252600080825260208201819052918101829052606081018290526080810182905260a0810182905260c0810191909152905600a165627a7a7230582004e379dc9c4136c0d23c9f01546f847b0737cde3e5decba4bfca39a8ac5b54210029",
  "linkReferences": {},
  "deployedLinkReferences": {}
}