{
  "_format": "hh-sol-artifact-1",
  "contractName": "KeenFactory",
  "sourceName": "contracts/KeenFactory.sol",
  "abi": [
    {
      "inputs": [
        {
          "internalType": "address",
          "name": "_feeToSetter",
          "type": "address"
        },
        {
          "internalType": "address",
          "name": "_keenConfig",
          "type": "address"
        }
      ],
      "payable": false,
      "stateMutability": "nonpayable",
      "type": "constructor"
    },
    {
      "anonymous": false,
      "inputs": [
        {
          "indexed": false,
          "internalType": "uint256",
          "name": "betType",
          "type": "uint256"
        },
        {
          "indexed": false,
          "internalType": "uint256",
          "name": "",
          "type": "uint256"
        }
      ],
      "name": "AnnounceResult",
      "type": "event"
    },
    {
      "anonymous": false,
      "inputs": [
        {
          "indexed": true,
          "internalType": "address",
          "name": "token0",
          "type": "address"
        },
        {
          "indexed": true,
          "internalType": "address",
          "name": "token1",
          "type": "address"
        },
        {
          "indexed": false,
          "internalType": "address",
          "name": "pair",
          "type": "address"
        },
        {
          "indexed": false,
          "internalType": "uint256",
          "name": "",
          "type": "uint256"
        }
      ],
      "name": "PairCreated",
      "type": "event"
    },
    {
      "constant": true,
      "inputs": [],
      "name": "INIT_CODE_PAIR_HASH",
      "outputs": [
        {
          "internalType": "bytes32",
          "name": "",
          "type": "bytes32"
        }
      ],
      "payable": false,
      "stateMutability": "view",
      "type": "function"
    },
    {
      "constant": false,
      "inputs": [
        {
          "internalType": "address",
          "name": "tokenA",
          "type": "address"
        },
        {
          "internalType": "address",
          "name": "tokenB",
          "type": "address"
        },
        {
          "internalType": "uint256",
          "name": "_stack",
          "type": "uint256"
        }
      ],
      "name": "addStack",
      "outputs": [],
      "payable": false,
      "stateMutability": "nonpayable",
      "type": "function"
    },
    {
      "constant": true,
      "inputs": [
        {
          "internalType": "uint256",
          "name": "",
          "type": "uint256"
        }
      ],
      "name": "allPairs",
      "outputs": [
        {
          "internalType": "address",
          "name": "",
          "type": "address"
        }
      ],
      "payable": false,
      "stateMutability": "view",
      "type": "function"
    },
    {
      "constant": true,
      "inputs": [],
      "name": "allPairsLength",
      "outputs": [
        {
          "internalType": "uint256",
          "name": "",
          "type": "uint256"
        }
      ],
      "payable": false,
      "stateMutability": "view",
      "type": "function"
    },
    {
      "constant": false,
      "inputs": [
        {
          "internalType": "uint256",
          "name": "betTime",
          "type": "uint256"
        },
        {
          "internalType": "uint256[]",
          "name": "results",
          "type": "uint256[]"
        }
      ],
      "name": "announce",
      "outputs": [],
      "payable": false,
      "stateMutability": "nonpayable",
      "type": "function"
    },
    {
      "constant": true,
      "inputs": [
        {
          "internalType": "uint256",
          "name": "betTime",
          "type": "uint256"
        }
      ],
      "name": "betResultArray",
      "outputs": [
        {
          "internalType": "uint256[]",
          "name": "",
          "type": "uint256[]"
        }
      ],
      "payable": false,
      "stateMutability": "view",
      "type": "function"
    },
    {
      "constant": true,
      "inputs": [
        {
          "internalType": "uint256",
          "name": "maxStake",
          "type": "uint256"
        },
        {
          "internalType": "uint256",
          "name": "ratio",
          "type": "uint256"
        }
      ],
      "name": "calculateStack",
      "outputs": [
        {
          "internalType": "uint256",
          "name": "",
          "type": "uint256"
        }
      ],
      "payable": false,
      "stateMutability": "pure",
      "type": "function"
    },
    {
      "constant": true,
      "inputs": [
        {
          "internalType": "uint256",
          "name": "maxStake",
          "type": "uint256"
        }
      ],
      "name": "calculateStackArray",
      "outputs": [
        {
          "internalType": "uint256[]",
          "name": "",
          "type": "uint256[]"
        }
      ],
      "payable": false,
      "stateMutability": "view",
      "type": "function"
    },
    {
      "constant": false,
      "inputs": [
        {
          "internalType": "address[]",
          "name": "path",
          "type": "address[]"
        },
        {
          "internalType": "address[]",
          "name": "replacePath",
          "type": "address[]"
        },
        {
          "internalType": "uint256",
          "name": "maxStake",
          "type": "uint256"
        }
      ],
      "name": "createPair",
      "outputs": [
        {
          "internalType": "address",
          "name": "pair",
          "type": "address"
        }
      ],
      "payable": false,
      "stateMutability": "nonpayable",
      "type": "function"
    },
    {
      "constant": true,
      "inputs": [],
      "name": "feeTo",
      "outputs": [
        {
          "internalType": "address",
          "name": "",
          "type": "address"
        }
      ],
      "payable": false,
      "stateMutability": "view",
      "type": "function"
    },
    {
      "constant": true,
      "inputs": [],
      "name": "feeToSetter",
      "outputs": [
        {
          "internalType": "address",
          "name": "",
          "type": "address"
        }
      ],
      "payable": false,
      "stateMutability": "view",
      "type": "function"
    },
    {
      "constant": true,
      "inputs": [],
      "name": "getBetReceive",
      "outputs": [
        {
          "internalType": "address",
          "name": "",
          "type": "address"
        }
      ],
      "payable": false,
      "stateMutability": "view",
      "type": "function"
    },
    {
      "constant": true,
      "inputs": [
        {
          "internalType": "address",
          "name": "",
          "type": "address"
        },
        {
          "internalType": "address",
          "name": "",
          "type": "address"
        }
      ],
      "name": "getPair",
      "outputs": [
        {
          "internalType": "address",
          "name": "",
          "type": "address"
        }
      ],
      "payable": false,
      "stateMutability": "view",
      "type": "function"
    },
    {
      "constant": true,
      "inputs": [],
      "name": "keenConfig",
      "outputs": [
        {
          "internalType": "address",
          "name": "",
          "type": "address"
        }
      ],
      "payable": false,
      "stateMutability": "view",
      "type": "function"
    },
    {
      "constant": false,
      "inputs": [
        {
          "internalType": "address",
          "name": "_feeTo",
          "type": "address"
        }
      ],
      "name": "setFeeTo",
      "outputs": [],
      "payable": false,
      "stateMutability": "nonpayable",
      "type": "function"
    },
    {
      "constant": false,
      "inputs": [
        {
          "internalType": "address",
          "name": "_feeToSetter",
          "type": "address"
        }
      ],
      "name": "setFeeToSetter",
      "outputs": [],
      "payable": false,
      "stateMutability": "nonpayable",
      "type": "function"
    },
    {
      "constant": false,
      "inputs": [
        {
          "internalType": "address",
          "name": "_keenConfig",
          "type": "address"
        }
      ],
      "name": "setKeenConfig",
      "outputs": [],
      "payable": false,
      "stateMutability": "nonpayable",
      "type": "function"
    }
  ],
  "bytecode": "0x608060405234801561001057600080fd5b506040516160d93803806160d98339818101604052604081101561003357600080fd5b508051602090910151600180546001600160a01b039384166001600160a01b0319918216179091556002805493909216921691909117905561605f8061007a6000396000f3fe608060405234801561001057600080fd5b506004361061010b5760003560e01c806385da5530116100a2578063bfe4122311610071578063bfe412231461034c578063c090ee74146103c1578063e6a43905146103c9578063f23dc6ca146103f7578063f46901ed1461041d5761010b565b806385da553014610213578063913f069a14610230578063998d5c9414610268578063a2e74af6146103265761010b565b80633fda0bc8116100de5780633fda0bc8146101c6578063574f2ba3146101fb5780635855a25a1461020357806378aa59f61461020b5761010b565b8063017e7e5814610110578063094b7415146101345780631e3dd18b1461013c57806323ef0e6914610159575b600080fd5b610118610443565b604080516001600160a01b039092168252519081900360200190f35b610118610452565b6101186004803603602081101561015257600080fd5b5035610461565b6101766004803603602081101561016f57600080fd5b5035610488565b60408051602080825283518183015283519192839290830191858101910280838360005b838110156101b257818101518382015260200161019a565b505050509050019250505060405180910390f35b6101e9600480360360408110156101dc57600080fd5b50803590602001356104ea565b60408051918252519081900360200190f35b6101e9610516565b6101e961051d565b6101186105b0565b6101766004803603602081101561022957600080fd5b50356105bf565b6102666004803603606081101561024657600080fd5b506001600160a01b0381358116916020810135909116906040013561078e565b005b6101186004803603606081101561027e57600080fd5b810190602081018135600160201b81111561029857600080fd5b8201836020820111156102aa57600080fd5b803590602001918460208302840111600160201b831117156102cb57600080fd5b919390929091602081019035600160201b8111156102e857600080fd5b8201836020820111156102fa57600080fd5b803590602001918460208302840111600160201b8311171561031b57600080fd5b91935091503561092d565b6102666004803603602081101561033c57600080fd5b50356001600160a01b031661104c565b6102666004803603604081101561036257600080fd5b81359190810190604081016020820135600160201b81111561038357600080fd5b82018360208201111561039557600080fd5b803590602001918460208302840111600160201b831117156103b657600080fd5b5090925090506110bf565b61011861129d565b610118600480360360408110156103df57600080fd5b506001600160a01b0381358116916020013516611313565b6102666004803603602081101561040d57600080fd5b50356001600160a01b0316611339565b6102666004803603602081101561043357600080fd5b50356001600160a01b03166113ac565b6000546001600160a01b031681565b6001546001600160a01b031681565b6005818154811061046e57fe5b6000918252602090912001546001600160a01b0316905081565b6000818152600360209081526040918290208054835181840281018401909452808452606093928301828280156104de57602002820191906000526020600020905b8154815260200190600101908083116104ca575b50505050509050919050565b600061050d6064610501858563ffffffff61141f16565b9063ffffffff61148216565b90505b92915050565b6005545b90565b60405161052c602082016114e0565b6020820181038252601f19601f820116604052506040516020018082805190602001908083835b602083106105725780518252601f199092019160209182019101610553565b6001836020036101000a0380198251168184511680821785525050505050509050019150506040516020818303038152906040528051906020012081565b6002546001600160a01b031681565b606080600260009054906101000a90046001600160a01b03166001600160a01b0316634830a7cc6040518163ffffffff1660e01b815260040160006040518083038186803b15801561061057600080fd5b505afa158015610624573d6000803e3d6000fd5b505050506040513d6000823e601f3d908101601f19168201604052602081101561064d57600080fd5b8101908080516040519392919084600160201b82111561066c57600080fd5b90830190602082018581111561068157600080fd5b82518660208202830111600160201b8211171561069d57600080fd5b82525081516020918201928201910280838360005b838110156106ca5781810151838201526020016106b2565b50506003949092018481526080810160405297985060609796509294505050505081602001602082028038833901905050905061071b848360008151811061070e57fe5b60200260200101516104ea565b8160008151811061072857fe5b602002602001018181525050610745848360018151811061070e57fe5b8160018151811061075257fe5b60200260200101818152505061076f848360028151811061070e57fe5b8160028151811061077c57fe5b60209081029190910101529392505050565b6001546001600160a01b031633146107df576040805162461bcd60e51b815260206004820152600f60248201526e25b2b2b71d102327a92124a22222a760891b604482015290519081900360640190fd5b6001600160a01b038381166000908152600460209081526040808320868516845290915290205416610850576040805162461bcd60e51b81526020600482015260156024820152744b65656e3a20504149525f4e4f545f45584953545360581b604482015290519081900360640190fd5b606061085b826105bf565b6001600160a01b038086166000908152600460209081526040808320888516845290915281205483519394509091169163eb60d45791849161089957fe5b6020026020010151836001815181106108ae57fe5b6020026020010151846002815181106108c357fe5b60200260200101516040518463ffffffff1660e01b8152600401808481526020018381526020018281526020019350505050600060405180830381600087803b15801561090f57600080fd5b505af1158015610923573d6000803e3d6000fd5b5050505050505050565b6000808686600081811061093d57fe5b6001546001600160a01b03602090920293909301358116935085923391161490506109a1576040805162461bcd60e51b815260206004820152600f60248201526e25b2b2b71d102327a92124a22222a760891b604482015290519081900360640190fd5b878760018181106109ae57fe5b905060200201356001600160a01b03166001600160a01b0316888860008181106109d457fe5b905060200201356001600160a01b03166001600160a01b03161415610a40576040805162461bcd60e51b815260206004820152601960248201527f4b65656e3a204944454e544943414c5f41444452455353455300000000000000604482015290519081900360640190fd5b600086868281610a4c57fe5b905060200201356001600160a01b03166001600160a01b03161480610a965750600086866001818110610a7b57fe5b905060200201356001600160a01b03166001600160a01b0316145b610ad15760405162461bcd60e51b8152600401808060200182810382526036815260200180615ff56036913960400191505060405180910390fd5b60008089896001818110610ae157fe5b905060200201356001600160a01b03166001600160a01b03168a8a6000818110610b0757fe5b905060200201356001600160a01b03166001600160a01b031610610b645789896001818110610b3257fe5b905060200201356001600160a01b03168a8a6000818110610b4f57fe5b905060200201356001600160a01b0316610b9f565b89896000818110610b7157fe5b905060200201356001600160a01b03168a8a6001818110610b8e57fe5b905060200201356001600160a01b03165b915091506000808b8b6001818110610bb357fe5b905060200201356001600160a01b03166001600160a01b03168c8c6000818110610bd957fe5b905060200201356001600160a01b03166001600160a01b031610610c365789896001818110610c0457fe5b905060200201356001600160a01b03168a8a6000818110610c2157fe5b905060200201356001600160a01b0316610c71565b89896000818110610c4357fe5b905060200201356001600160a01b03168a8a6001818110610c6057fe5b905060200201356001600160a01b03165b90925090506001600160a01b038416610cc6576040805162461bcd60e51b81526020600482015260126024820152714b65656e3a205a45524f5f4144445245535360701b604482015290519081900360640190fd5b6001600160a01b03848116600090815260046020908152604080832087851684529091529020541615610d34576040805162461bcd60e51b81526020600482015260116024820152704b65656e3a20504149525f45584953545360781b604482015290519081900360640190fd5b606060405180602001610d46906114e0565b6020820181038252601f19601f8201166040525090506000858560405160200180836001600160a01b03166001600160a01b031660601b8152601401826001600160a01b03166001600160a01b031660601b815260140192505050604051602081830303815290604052805190602001209050808251602084016000f59850886001600160a01b031663f05d0982878787878d610de28e6105bf565b6040516001600160e01b031960e089901b1681526001600160a01b0380881660048301908152878216602484015286821660448401528582166064840152908416608483015260c060a48301908152835160c484015283519192909160e4909101906020858101910280838360005b83811015610e69578181015183820152602001610e51565b50505050905001975050505050505050600060405180830381600087803b158015610e9357600080fd5b505af1158015610ea7573d6000803e3d6000fd5b505050508860046000886001600160a01b03166001600160a01b031681526020019081526020016000206000876001600160a01b03166001600160a01b0316815260200190815260200160002060006101000a8154816001600160a01b0302191690836001600160a01b031602179055508860046000876001600160a01b03166001600160a01b031681526020019081526020016000206000886001600160a01b03166001600160a01b0316815260200190815260200160002060006101000a8154816001600160a01b0302191690836001600160a01b0316021790555060058990806001815401808255809150509060018203906000526020600020016000909192909190916101000a8154816001600160a01b0302191690836001600160a01b0316021790555050846001600160a01b0316866001600160a01b03167f0d3648bd0f6ba80134a33ba9275ac585d9d315f0ad8355cddefde31afa28d0e98b60058054905060405180836001600160a01b03166001600160a01b031681526020018281526020019250505060405180910390a3505050505050505095945050505050565b6001546001600160a01b0316331461109d576040805162461bcd60e51b815260206004820152600f60248201526e25b2b2b71d102327a92124a22222a760891b604482015290519081900360640190fd5b600180546001600160a01b0319166001600160a01b0392909216919091179055565b6001546001600160a01b03163314611110576040805162461bcd60e51b815260206004820152600f60248201526e25b2b2b71d102327a92124a22222a760891b604482015290519081900360640190fd5b60008381526003602052604090205415611171576040805162461bcd60e51b815260206004820152601960248201527f4b65656e3a20524553554c545f5245504541545f4552524f5200000000000000604482015290519081900360640190fd5b600083815260036020526040902061118a9083836114ed565b5060005b60055481101561125c576000600582815481106111a757fe5b600091825260209182902001546040805163bfe4122360e01b81526004810189815260248201928352604482018890526001600160a01b039093169450849363bfe41223938a938a938a936064909101908590850280828437600081840152601f19601f820116905080830192505050945050505050600060405180830381600087803b15801561123757600080fd5b505af115801561124b573d6000803e3d6000fd5b50506001909301925061118e915050565b50604080518481526020810183905281517f14c83676fe0737901345bcb538bbf271c2b970aecf78edacd9da056f4e32e162929181900390910190a1505050565b60025460408051637011129160e11b815290516000926001600160a01b03169163e0222522916004808301926020929190829003018186803b1580156112e257600080fd5b505afa1580156112f6573d6000803e3d6000fd5b505050506040513d602081101561130c57600080fd5b5051905090565b60046020908152600092835260408084209091529082529020546001600160a01b031681565b6001546001600160a01b0316331461138a576040805162461bcd60e51b815260206004820152600f60248201526e25b2b2b71d102327a92124a22222a760891b604482015290519081900360640190fd5b600280546001600160a01b0319166001600160a01b0392909216919091179055565b6001546001600160a01b031633146113fd576040805162461bcd60e51b815260206004820152600f60248201526e25b2b2b71d102327a92124a22222a760891b604482015290519081900360640190fd5b600080546001600160a01b0319166001600160a01b0392909216919091179055565b600081158061143a5750508082028282828161143757fe5b04145b610510576040805162461bcd60e51b815260206004820152601460248201527364732d6d6174682d6d756c2d6f766572666c6f7760601b604482015290519081900360640190fd5b60008082116114cf576040805162461bcd60e51b815260206004820152601460248201527364732d6d6174682d6469762d6f766572666c6f7760601b604482015290519081900360640190fd5b8183816114d857fe5b049392505050565b614aa28061155383390190565b828054828255906000526020600020908101928215611528579160200282015b8281111561152857823582559160200191906001019061150d565b50611534929150611538565b5090565b61051a91905b80821115611534576000815560010161153e56fe6080604052600160185534801561001557600080fd5b50604051469080605262004a50823960408051918290036052018220828201825260088352674b65656e204c507360c01b6020938401528151808301835260018152603160f81b908401528151808401919091527f42b38892dd5fed3ef87b344cb7e06c7fd6216f7552b0c825660f06ff8a5baed3818301527fc89efdaa54c0f20c7adf612882df0950f5a951637e0307cdcb4c672f298b8bc6606082015260808101949094523060a0808601919091528151808603909101815260c09094019052825192019190912060035550600580546001600160a01b0319163317905561494b80620001056000396000f3fe608060405234801561001057600080fd5b506004361061027e5760003560e01c80637464fc3d1161015c578063c366a843116100ce578063d505accf11610087578063d505accf146107bd578063dd62ed3e1461080e578063eb60d4571461083c578063f05d098214610865578063f3e5857414610904578063fff6cae9146109215761027e565b8063c366a84314610730578063c45a015514610756578063cb40b2b41461075e578063cd67571c14610766578063cf15b55614610792578063d21220a7146107b55761027e565b806395d89b411161012057806395d89b41146106325780639dc29fac1461063a578063a9059cbb1461067f578063ba9a7a56146106ab578063bd897a04146106b3578063bfe41223146106bb5761027e565b80637464fc3d146105aa5780637ecebe00146105b2578063814fd081146105d857806384afb766146105fe57806389d2e047146106065761027e565b806330849434116101f557806340c10f19116101b957806340c10f191461050e578063581a58091461053a5780635909c0d5146105425780635a3d54931461054a5780636d01485e1461055257806370a08231146105845761027e565b806330849434146104b257806330adf81f146104d8578063313ce567146104e05780633644e515146104fe5780633d074ee7146105065761027e565b806311ed15121161024757806311ed1512146103d65780631261dcf71461041457806318160ddd1461041c57806323b872dd146104245780632aa4bdb71461045a5780632d28b749146104865761027e565b8062fae0671461028357806306fdde03146102bd5780630902f1ac1461033a578063095ea7b3146103725780630dfe1681146103b2575b600080fd5b6102bb6004803603608081101561029957600080fd5b508035906001600160a01b036020820135169060408101359060600135610929565b005b6102c5610d67565b6040805160208082528351818301528351919283929083019185019080838360005b838110156102ff5781810151838201526020016102e7565b50505050905090810190601f16801561032c5780820380516001836020036101000a031916815260200191505b509250505060405180910390f35b610342610d8b565b604080516001600160701b03948516815292909316602083015263ffffffff168183015290519081900360600190f35b61039e6004803603604081101561038857600080fd5b506001600160a01b038135169060200135610db5565b604080519115158252519081900360200190f35b6103ba610dcc565b604080516001600160a01b039092168252519081900360200190f35b610402600480360360408110156103ec57600080fd5b506001600160a01b038135169060200135610ddb565b60408051918252519081900360200190f35b610402610e09565b610402610e0f565b61039e6004803603606081101561043a57600080fd5b506001600160a01b03813581169160208101359091169060400135610e15565b6104026004803603604081101561047057600080fd5b506001600160a01b038135169060200135610eaf565b6102bb6004803603604081101561049c57600080fd5b506001600160a01b038135169060200135610ecc565b610402600480360360208110156104c857600080fd5b50356001600160a01b03166112a3565b610402611361565b6104e8611385565b6040805160ff9092168252519081900360200190f35b61040261138a565b610402611390565b6104026004803603604081101561052457600080fd5b506001600160a01b038135169060200135611396565b6103ba611a3f565b610402611a4e565b610402611a54565b6104026004803603606081101561056857600080fd5b50803590602081013590604001356001600160a01b0316611a5a565b6104026004803603602081101561059a57600080fd5b50356001600160a01b0316611a7d565b610402611a8f565b610402600480360360208110156105c857600080fd5b50356001600160a01b0316611a95565b610402600480360360208110156105ee57600080fd5b50356001600160a01b0316611aa7565b610402611b5b565b6104026004803603604081101561061c57600080fd5b50803590602001356001600160a01b0316611b61565b6102c5611b7e565b6106666004803603604081101561065057600080fd5b506001600160a01b038135169060200135611ba1565b6040805192835260208301919091528051918290030190f35b61039e6004803603604081101561069557600080fd5b506001600160a01b0381351690602001356122e0565b6104026122ed565b6103ba6122f3565b6102bb600480360360408110156106d157600080fd5b81359190810190604081016020820135600160201b8111156106f257600080fd5b82018360208201111561070457600080fd5b803590602001918460208302840111600160201b8311171561072557600080fd5b509092509050612302565b6104026004803603602081101561074657600080fd5b50356001600160a01b0316612ce8565b6103ba612f0d565b6103ba612f1c565b6104026004803603604081101561077c57600080fd5b506001600160a01b038135169060200135612f2b565b610402600480360360408110156107a857600080fd5b50803590602001356134d5565b6103ba6134f2565b6102bb600480360360e08110156107d357600080fd5b506001600160a01b03813581169160208101359091169060408101359060608101359060ff6080820135169060a08101359060c00135613501565b6104026004803603604081101561082457600080fd5b506001600160a01b03813581169160200135166136fe565b6102bb6004803603606081101561085257600080fd5b508035906020810135906040013561371b565b6102bb600480360360c081101561087b57600080fd5b6001600160a01b03823581169260208101358216926040820135831692606083013581169260808101359091169181019060c0810160a0820135600160201b8111156108c657600080fd5b8201836020820111156108d857600080fd5b803590602001918460208302840111600160201b831117156108f957600080fd5b50909250905061378a565b6104026004803603602081101561091a57600080fd5b50356138d8565b6102bb6138ea565b60185460011461096f576040805162461bcd60e51b815260206004820152600c60248201526b12d9595b8e881313d0d2d15160a21b604482015290519081900360640190fd5b6000601855836109c6576040805162461bcd60e51b815260206004820181905260248201527f4b65656e3a20494e53554646494349454e545f4f55545055545f414d4f554e54604482015290519081900360640190fd5b60055460408051633c552cfb60e11b815290516000926001600160a01b0316916378aa59f6916004808301926020929190829003018186803b158015610a0b57600080fd5b505afa158015610a1f573d6000803e3d6000fd5b505050506040513d6020811015610a3557600080fd5b50516040805163969e651f60e01b815290519192506001600160a01b0383169163969e651f91600480820192602092909190829003018186803b158015610a7b57600080fd5b505afa158015610a8f573d6000803e3d6000fd5b505050506040513d6020811015610aa557600080fd5b50518281610aaf57fe5b0615610b02576040805162461bcd60e51b815260206004820152601a60248201527f4b65656e526f757465723a204245545f54494d455f4552524f52000000000000604482015290519081900360640190fd5b428211610b56576040805162461bcd60e51b815260206004820152601c60248201527f4b65656e526f757465723a204245545f54494d455f4558504952454400000000604482015290519081900360640190fd5b6007546006546001600160a01b039182169116811415610b7e57506008546001600160a01b03165b6000816001600160a01b03166370a08231846001600160a01b031663e02225226040518163ffffffff1660e01b815260040160206040518083038186803b158015610bc857600080fd5b505afa158015610bdc573d6000803e3d6000fd5b505050506040513d6020811015610bf257600080fd5b5051604080516001600160e01b031960e085901b1681526001600160a01b039092166004830152516024808301926020929190829003018186803b158015610c3957600080fd5b505afa158015610c4d573d6000803e3d6000fd5b505050506040513d6020811015610c6357600080fd5b5051600085815260126020526040902054909150810387811015610cc1576040805162461bcd60e51b815260206004820152601060248201526f25b2b2b71d102122aa29afa2a92927a960811b604482015290519081900360640190fd5b60008581526012602090815260408083208054850190556013825280832089845282528083208054850190558783526015825280832089845282528083206001600160a01b038b168085529083529281902080548501905580518b81529182018990528181018890525133917fa7215b4c782230096ffc5d20a6ed5bb548c3a4da8477efd5db2b8856ea5bf611919081900360600190a350506001601855505050505050565b604051806040016040528060088152602001674b65656e204c507360c01b81525081565b600b546001600160701b0380821692600160701b830490911691600160e01b900463ffffffff1690565b6000610dc2338484613b18565b5060015b92915050565b6007546001600160a01b031681565b60166020528160005260406000208181548110610df457fe5b90600052602060002001600091509150505481565b60105481565b60005481565b6001600160a01b038316600090815260026020908152604080832033845290915281205460001914610e9a576001600160a01b0384166000908152600260209081526040808320338452909152902054610e75908363ffffffff613b7a16565b6001600160a01b03851660009081526002602090815260408083203384529091529020555b610ea5848484613bca565b5060019392505050565b601760209081526000928352604080842090915290825290205481565b601854600114610f12576040805162461bcd60e51b815260206004820152600c60248201526b12d9595b8e881313d0d2d15160a21b604482015290519081900360640190fd5b60006018819055600754600854604080516370a0823160e01b815230600482015290516001600160a01b0393841694929093169284916370a08231916024808301926020929190829003018186803b158015610f6d57600080fd5b505afa158015610f81573d6000803e3d6000fd5b505050506040513d6020811015610f9757600080fd5b505160095490915081906001600160a01b03161561103757600954604080516370a0823160e01b81523060048201529051611034926001600160a01b0316916370a08231916024808301926020929190829003018186803b158015610ffb57600080fd5b505afa15801561100f573d6000803e3d6000fd5b505050506040513d602081101561102557600080fd5b5051829063ffffffff613c8416565b90505b604080516370a0823160e01b815230600482015290516000916001600160a01b038616916370a0823191602480820192602092909190829003018186803b15801561108157600080fd5b505afa158015611095573d6000803e3d6000fd5b505050506040513d60208110156110ab57600080fd5b5051600a5490915081906001600160a01b03161561111257600a54604080516370a0823160e01b8152306004820152905161110f926001600160a01b0316916370a08231916024808301926020929190829003018186803b158015610ffb57600080fd5b90505b600b546000906111329085906001600160701b031663ffffffff613b7a16565b600b54909150600090611156908490600160701b90046001600160701b0316613b7a565b6006549091506000906001600160a01b038a811691161415611179575081611192565b6006546001600160a01b03898116911614156111925750805b89600114156111b657600f546111ae908263ffffffff613b7a16565b600f556111fa565b89600214156111da576010546111d2908263ffffffff613b7a16565b6010556111fa565b89600314156111fa576011546111f6908263ffffffff613b7a16565b6011555b8683116112115761120c898c85613cd3565b611248565b861561122257611222898c89613cd3565b600954611248906001600160a01b03168c611243868b63ffffffff613b7a16565b613cd3565b84821161125f5761125a888c84613cd3565b611291565b861561127057611270888c87613cd3565b600a54611291906001600160a01b03168c611243858963ffffffff613b7a16565b50506001601855505050505050505050565b6001600160a01b0381166000908152601660205260408120546112c85750600061135c565b6000805b6001600160a01b038416600090815260166020526040902054811015611358576001600160a01b038416600090815260166020526040812080548390811061131057fe5b906000526020600020015490504281101561134f576001600160a01b038516600090815260176020908152604080832084845290915290205492909201915b506001016112cc565b5090505b919050565b7f6e71edae12b1b97f4d1f60370fef10105fa2faae0126114a169c64845d6126c981565b601281565b60035481565b60115481565b60006018546001146113de576040805162461bcd60e51b815260206004820152600c60248201526b12d9595b8e881313d0d2d15160a21b604482015290519081900360640190fd5b60006018819055806113ee610d8b565b50600754604080516370a0823160e01b815230600482015290519395509193506000926001600160a01b03909116916370a08231916024808301926020929190829003018186803b15801561144257600080fd5b505afa158015611456573d6000803e3d6000fd5b505050506040513d602081101561146c57600080fd5b50516009549091506001600160a01b0316156114d157600954604080516370a0823160e01b815230600482015290516114ce926001600160a01b0316916370a08231916024808301926020929190829003018186803b158015610ffb57600080fd5b90505b600854604080516370a0823160e01b815230600482015290516000926001600160a01b0316916370a08231916024808301926020929190829003018186803b15801561151c57600080fd5b505afa158015611530573d6000803e3d6000fd5b505050506040513d602081101561154657600080fd5b5051600a549091506001600160a01b0316156115ab57600a54604080516370a0823160e01b815230600482015290516115a8926001600160a01b0316916370a08231916024808301926020929190829003018186803b158015610ffb57600080fd5b90505b60006115c6836001600160701b03871663ffffffff613b7a16565b905060006115e3836001600160701b03871663ffffffff613b7a16565b6007546006549192506000916001600160a01b0390811691161415611609575081611625565b6008546006546001600160a01b03908116911614156116255750805b886001141561169b5780600f541015611680576040805162461bcd60e51b81526020600482015260186024820152774b65656e3a20494e53554646494349454e545f535441434b60401b604482015290519081900360640190fd5b600f54611693908263ffffffff613b7a16565b600f556118b4565b8860021415611842578060105410156116f6576040805162461bcd60e51b81526020600482015260186024820152774b65656e3a20494e53554646494349454e545f535441434b60401b604482015290519081900360640190fd5b600560009054906101000a90046001600160a01b03166001600160a01b03166378aa59f66040518163ffffffff1660e01b815260040160206040518083038186803b15801561174457600080fd5b505afa158015611758573d6000803e3d6000fd5b505050506040513d602081101561176e57600080fd5b505160408051630379a34960e01b815290516001600160a01b0390921691630379a34991600480820192602092909190829003018186803b1580156117b257600080fd5b505afa1580156117c6573d6000803e3d6000fd5b505050506040513d60208110156117dc57600080fd5b5051811015611827576040805162461bcd60e51b81526020600482015260126024820152714b65656e3a20544f5f4d494e5f535441434b60701b604482015290519081900360640190fd5b60105461183a908263ffffffff613b7a16565b6010556118b4565b88600314156118b45780601154101561189d576040805162461bcd60e51b81526020600482015260186024820152774b65656e3a20494e53554646494349454e545f535441434b60401b604482015290519081900360640190fd5b6011546118b0908263ffffffff613b7a16565b6011555b60006118c08888613e65565b60005490915080611909576118f56103e86118e96118e4888863ffffffff613fe416565b614047565b9063ffffffff613b7a16565b995061190460006103e8614098565b611958565b6119556001600160701b038a16611926878463ffffffff613fe416565b8161192d57fe5b046001600160701b038a16611948878563ffffffff613fe416565b8161194f57fe5b0461412e565b99505b60008a116119975760405162461bcd60e51b81526004018080602001828103825260238152602001806148d16023913960400191505060405180910390fd5b6119a18c8b614098565b8a600214156119b4576119b48c8b614146565b6119c087878b8b6143e4565b81156119f057600b546119ec906001600160701b0380821691600160701b90041663ffffffff613fe416565b600e555b6040805186815260208101869052815133927f4c209b5fc8ad50758f13e2e1088ba56a560dff690a1c6fef26394f4c03821c4f928290030190a250506001601855509598975050505050505050565b6006546001600160a01b031681565b600c5481565b600d5481565b601560209081526000938452604080852082529284528284209052825290205481565b60016020526000908152604090205481565b600e5481565b60046020526000908152604090205481565b6001600160a01b038116600090815260166020526040812054611acc5750600061135c565b6000805b6001600160a01b038416600090815260166020526040902054811015611358576001600160a01b0384166000908152601660205260408120805483908110611b1457fe5b90600052602060002001549050428110611b52576001600160a01b038516600090815260176020908152604080832084845290915290205492909201915b50600101611ad0565b600f5481565b601460209081526000928352604080842090915290825290205481565b6040518060400160405280600781526020016604b65656e2d4c560cc1b81525081565b600080601854600114611bea576040805162461bcd60e51b815260206004820152600c60248201526b12d9595b8e881313d0d2d15160a21b604482015290519081900360640190fd5b6000601881905580611bfa610d8b565b50600754604080516370a0823160e01b815230600482015290519395509193506000926001600160a01b03909116916370a08231916024808301926020929190829003018186803b158015611c4e57600080fd5b505afa158015611c62573d6000803e3d6000fd5b505050506040513d6020811015611c7857600080fd5b505160095490915081906001600160a01b031615611cdf57600954604080516370a0823160e01b81523060048201529051611cdc926001600160a01b0316916370a08231916024808301926020929190829003018186803b158015610ffb57600080fd5b90505b600854604080516370a0823160e01b815230600482015290516000926001600160a01b0316916370a08231916024808301926020929190829003018186803b158015611d2a57600080fd5b505afa158015611d3e573d6000803e3d6000fd5b505050506040513d6020811015611d5457600080fd5b5051600a5490915081906001600160a01b031615611dbb57600a54604080516370a0823160e01b81523060048201529051611db8926001600160a01b0316916370a08231916024808301926020929190829003018186803b158015610ffb57600080fd5b90505b30600090815260016020526040902054611dd48b611aa7565b6001600160a01b038c166000908152600160205260409020541015611e40576040805162461bcd60e51b815260206004820181905260248201527f4b65656e506169723a20465245455a455f4c49515549444954595f4552524f52604482015290519081900360640190fd5b6000611e4c8888613e65565b60005490915080611e63848863ffffffff613fe416565b81611e6a57fe5b049a5080611e7e848663ffffffff613fe416565b81611e8557fe5b04995060008b118015611e98575060008a115b611ed35760405162461bcd60e51b81526004018080602001828103825260238152602001806148f46023913960400191505060405180910390fd5b611ede8b8b8e6145a4565b611ee83084614651565b8b6002141580611f00575082611efe8e856146ef565b145b611f51576040805162461bcd60e51b815260206004820181905260248201527f4b65656e506169723a20465245455a455f4c49515549444954595f4552524f52604482015290519081900360640190fd5b868b11611f7457600754611f6f906001600160a01b03168e8d613cd3565b611fb2565b8615611f9157600754611f91906001600160a01b03168e89613cd3565b600954611fb2906001600160a01b03168e6112438e8b63ffffffff613b7a16565b848a11611fd557600854611fd0906001600160a01b03168e8c613cd3565b612013565b8415611ff257600854611ff2906001600160a01b03168e87613cd3565b600a54612013906001600160a01b03168e6112438d8963ffffffff613b7a16565b600754604080516370a0823160e01b815230600482015290516001600160a01b03909216916370a0823191602480820192602092909190829003018186803b15801561205e57600080fd5b505afa158015612072573d6000803e3d6000fd5b505050506040513d602081101561208857600080fd5b50516009549096506001600160a01b03161561212657600954604080516370a0823160e01b81523060048201529051612123926001600160a01b0316916370a08231916024808301926020929190829003018186803b1580156120ea57600080fd5b505afa1580156120fe573d6000803e3d6000fd5b505050506040513d602081101561211457600080fd5b5051879063ffffffff613c8416565b95505b600854604080516370a0823160e01b815230600482015290516001600160a01b03909216916370a0823191602480820192602092909190829003018186803b15801561217157600080fd5b505afa158015612185573d6000803e3d6000fd5b505050506040513d602081101561219b57600080fd5b5051600a549094506001600160a01b03161561223957600a54604080516370a0823160e01b81523060048201529051612236926001600160a01b0316916370a08231916024808301926020929190829003018186803b1580156121fd57600080fd5b505afa158015612211573d6000803e3d6000fd5b505050506040513d602081101561222757600080fd5b5051859063ffffffff613c8416565b93505b61224586858b8b6143e4565b811561227557600b54612271906001600160701b0380821691600160701b90041663ffffffff613fe416565b600e555b8c6001600160a01b0316336001600160a01b03167fdccd412f0b1252819cb1fd330b93224ca42612892bb3f4f789976e6d819364968d8d604051808381526020018281526020019250505060405180910390a350505050505050505060016018819055509250929050565b6000610dc2338484613bca565b6103e881565b600a546001600160a01b031681565b601854600114612348576040805162461bcd60e51b815260206004820152600c60248201526b12d9595b8e881313d0d2d15160a21b604482015290519081900360640190fd5b60006018556005546001600160a01b0316331461239e576040805162461bcd60e51b815260206004820152600f60248201526e25b2b2b71d102327a92124a22222a760891b604482015290519081900360640190fd5b806123f0576040805162461bcd60e51b815260206004820152601960248201527f4b65656e3a20524553554c545f4c454e4754485f4552524f5200000000000000604482015290519081900360640190fd5b6007546006546001600160a01b03918216911681141561241857506008546001600160a01b03165b60055460408051633c552cfb60e11b815290516000926001600160a01b0316916378aa59f6916004808301926020929190829003018186803b15801561245d57600080fd5b505afa158015612471573d6000803e3d6000fd5b505050506040513d602081101561248757600080fd5b5051604080516334509b8760e21b815290519192506060916001600160a01b0384169163d1426e1c916004808301926000929190829003018186803b1580156124cf57600080fd5b505afa1580156124e3573d6000803e3d6000fd5b505050506040513d6000823e601f3d908101601f19168201604052602081101561250c57600080fd5b8101908080516040519392919084600160201b82111561252b57600080fd5b90830190602082018581111561254057600080fd5b82518660208202830111600160201b8211171561255c57600080fd5b82525081516020918201928201910280838360005b83811015612589578181015183820152602001612571565b50505050919091016040525092935060009250829150505b8581101561263b5760008787838181106125b757fe5b60008c815260136020908152604080832088845282528220548951939091029490940135945091508690859081106125eb57fe5b602002602001015190508260011480156126055750600081115b156126305761262b606461261f848463ffffffff613fe416565b9063ffffffff61484316565b850194505b5050506001016125a1565b506000836001600160a01b031663e02225226040518163ffffffff1660e01b815260040160206040518083038186803b15801561267757600080fd5b505afa15801561268b573d6000803e3d6000fd5b505050506040513d60208110156126a157600080fd5b5051604080516370a0823160e01b81526001600160a01b0380841660048301529151929350600092918816916370a0823191602480820192602092909190829003018186803b1580156126f357600080fd5b505afa158015612707573d6000803e3d6000fd5b505050506040513d602081101561271d57600080fd5b505190508015612cd8576000856001600160a01b031663084cc5116040518163ffffffff1660e01b815260040160206040518083038186803b15801561276257600080fd5b505afa158015612776573d6000803e3d6000fd5b505050506040513d602081101561278c57600080fd5b505190508361282057604080516323b872dd60e01b81526001600160a01b038581166004830152306024830152604482018590529151918916916323b872dd916064808201926020929091908290030181600087803b1580156127ee57600080fd5b505af1158015612802573d6000803e3d6000fd5b505050506040513d602081101561281857600080fd5b50612afc9050565b83821061294457604080516323b872dd60e01b81526001600160a01b0385811660048301528381166024830152604482018790529151918916916323b872dd916064808201926020929091908290030181600087803b15801561288257600080fd5b505af1158015612896573d6000803e3d6000fd5b505050506040513d60208110156128ac57600080fd5b50508382111561293f576001600160a01b0387166323b872dd84306128d7868963ffffffff613b7a16565b6040518463ffffffff1660e01b815260040180846001600160a01b03166001600160a01b03168152602001836001600160a01b03166001600160a01b031681526020018281526020019350505050602060405180830381600087803b1580156127ee57600080fd5b612afc565b604080516370a0823160e01b815230600482015290516000916001600160a01b038a16916370a0823191602480820192602092909190829003018186803b15801561298e57600080fd5b505afa1580156129a2573d6000803e3d6000fd5b505050506040513d60208110156129b857600080fd5b5051604080516323b872dd60e01b81526001600160a01b0387811660048301528581166024830152604482018790529151929350908a16916323b872dd916064808201926020929091908290030181600087803b158015612a1857600080fd5b505af1158015612a2c573d6000803e3d6000fd5b505050506040513d6020811015612a4257600080fd5b50508015612afa576000612a5c868563ffffffff613b7a16565b9050886001600160a01b031663a9059cbb84848411612a7b5783612a7d565b845b6040518363ffffffff1660e01b815260040180836001600160a01b03166001600160a01b0316815260200182815260200192505050602060405180830381600087803b158015612acc57600080fd5b505af1158015612ae0573d6000803e3d6000fd5b505050506040513d6020811015612af657600080fd5b5050505b505b600754604080516370a0823160e01b815230600482015290516000926001600160a01b0316916370a08231916024808301926020929190829003018186803b158015612b4757600080fd5b505afa158015612b5b573d6000803e3d6000fd5b505050506040513d6020811015612b7157600080fd5b50516009549091506001600160a01b031615612bd657600954604080516370a0823160e01b81523060048201529051612bd3926001600160a01b0316916370a08231916024808301926020929190829003018186803b158015610ffb57600080fd5b90505b600854604080516370a0823160e01b815230600482015290516000926001600160a01b0316916370a08231916024808301926020929190829003018186803b158015612c2157600080fd5b505afa158015612c35573d6000803e3d6000fd5b505050506040513d6020811015612c4b57600080fd5b5051600a549091506001600160a01b031615612cb057600a54604080516370a0823160e01b81523060048201529051612cad926001600160a01b0316916370a08231916024808301926020929190829003018186803b158015610ffb57600080fd5b90505b600b54612cd490839083906001600160701b0380821691600160701b9004166143e4565b5050505b5050600160185550505050505050565b60008054600754604080516370a0823160e01b8152306004820152905184926001600160a01b0316916370a08231916024808301926020929190829003018186803b158015612d3657600080fd5b505afa158015612d4a573d6000803e3d6000fd5b505050506040513d6020811015612d6057600080fd5b50516009549091506001600160a01b031615612dc557600954604080516370a0823160e01b81523060048201529051612dc2926001600160a01b0316916370a08231916024808301926020929190829003018186803b158015610ffb57600080fd5b90505b600854604080516370a0823160e01b815230600482015290516000926001600160a01b0316916370a08231916024808301926020929190829003018186803b158015612e1057600080fd5b505afa158015612e24573d6000803e3d6000fd5b505050506040513d6020811015612e3a57600080fd5b5051600a549091506001600160a01b031615612e9f57600a54604080516370a0823160e01b81523060048201529051612e9c926001600160a01b0316916370a08231916024808301926020929190829003018186803b158015610ffb57600080fd5b90505b6001600160a01b038086166000908152600160205260409020546007546006549192918216911614612ee95783612edc828463ffffffff613fe416565b81612ee357fe5b04612f03565b83612efa828563ffffffff613fe416565b81612f0157fe5b045b9695505050505050565b6005546001600160a01b031681565b6009546001600160a01b031681565b6000601854600114612f73576040805162461bcd60e51b815260206004820152600c60248201526b12d9595b8e881313d0d2d15160a21b604482015290519081900360640190fd5b600060188190558281526014602090815260408083206001600160a01b038716845290915290205415612fe6576040805162461bcd60e51b815260206004820152601660248201527512d9595b8e881091551512535157d050d0d15415115160521b604482015290519081900360640190fd5b6007546006546001600160a01b03918216911681141561300e57506008546001600160a01b03165b600554604080516323ef0e6960e01b81526004810186905290516060926001600160a01b0316916323ef0e69916024808301926000929190829003018186803b15801561305a57600080fd5b505afa15801561306e573d6000803e3d6000fd5b505050506040513d6000823e601f3d908101601f19168201604052602081101561309757600080fd5b8101908080516040519392919084600160201b8211156130b657600080fd5b9083019060208201858111156130cb57600080fd5b82518660208202830111600160201b821117156130e757600080fd5b82525081516020918201928201910280838360005b838110156131145781810151838201526020016130fc565b5050505090500160405250505090506000600560009054906101000a90046001600160a01b03166001600160a01b03166378aa59f66040518163ffffffff1660e01b815260040160206040518083038186803b15801561317357600080fd5b505afa158015613187573d6000803e3d6000fd5b505050506040513d602081101561319d57600080fd5b5051604080516334509b8760e21b815290519192506060916001600160a01b0384169163d1426e1c916004808301926000929190829003018186803b1580156131e557600080fd5b505afa1580156131f9573d6000803e3d6000fd5b505050506040513d6000823e601f3d908101601f19168201604052602081101561322257600080fd5b8101908080516040519392919084600160201b82111561324157600080fd5b90830190602082018581111561325657600080fd5b82518660208202830111600160201b8211171561327257600080fd5b82525081516020918201928201910280838360005b8381101561329f578181015183820152602001613287565b50505050905001604052505050905060008090505b835181101561335e57600087815260156020908152604080832084845282528083206001600160a01b038c168452909152902054806132f35750613356565b600085838151811061330157fe5b60200260200101519050600084848151811061331957fe5b602002602001015190508160011480156133335750600081115b156133525761334d606461261f858463ffffffff613fe416565b890198505b5050505b6001016132b4565b50600085116133ac576040805162461bcd60e51b815260206004820152601560248201527425b2b2b71d1027aaaa20a6a7aaa72a2fa2a92927a960591b604482015290519081900360640190fd5b836001600160a01b03166323b872dd836001600160a01b031663084cc5116040518163ffffffff1660e01b815260040160206040518083038186803b1580156133f457600080fd5b505afa158015613408573d6000803e3d6000fd5b505050506040513d602081101561341e57600080fd5b5051604080516001600160e01b031960e085901b1681526001600160a01b039283166004820152918b166024830152604482018990525160648083019260209291908290030181600087803b15801561347657600080fd5b505af115801561348a573d6000803e3d6000fd5b505050506040513d60208110156134a057600080fd5b505050600094855250506014602090815260408085206001600160a01b03909616855294905250919020819055600160185590565b601360209081526000928352604080842090915290825290205481565b6008546001600160a01b031681565b42841015613546576040805162461bcd60e51b815260206004820152600d60248201526c12d9595b8e8811561412549151609a1b604482015290519081900360640190fd5b6003546001600160a01b0380891660008181526004602090815260408083208054600180820190925582517f6e71edae12b1b97f4d1f60370fef10105fa2faae0126114a169c64845d6126c98186015280840196909652958d166060860152608085018c905260a085019590955260c08085018b90528151808603909101815260e08501825280519083012061190160f01b6101008601526101028501969096526101228085019690965280518085039096018652610142840180825286519683019690962095839052610162840180825286905260ff89166101828501526101a284018890526101c28401879052519193926101e280820193601f1981019281900390910190855afa158015613661573d6000803e3d6000fd5b5050604051601f1901519150506001600160a01b038116158015906136975750886001600160a01b0316816001600160a01b0316145b6136e8576040805162461bcd60e51b815260206004820152601760248201527f4b65656e3a20494e56414c49445f5349474e4154555245000000000000000000604482015290519081900360640190fd5b6136f3898989613b18565b505050505050505050565b600260209081526000928352604080842090915290825290205481565b6005546001600160a01b0316331461376c576040805162461bcd60e51b815260206004820152600f60248201526e25b2b2b71d102327a92124a22222a760891b604482015290519081900360640190fd5b600f8054909301909255601080549091019055601180549091019055565b6005546001600160a01b031633146137db576040805162461bcd60e51b815260206004820152600f60248201526e25b2b2b71d102327a92124a22222a760891b604482015290519081900360640190fd5b60038114613830576040805162461bcd60e51b815260206004820152601d60248201527f4b65656e3a20535441434b41525241595f4c454e4754485f4552524f52000000604482015290519081900360640190fd5b600780546001600160a01b03199081166001600160a01b038a811691909117909255600880548216898416179055600980548216888416179055600a8054821687841617905560068054909116918516919091179055818160008161389157fe5b6020029190910135600f5550818160018181106138aa57fe5b602002919091013560105550818160028181106138c357fe5b60200291909101356011555050505050505050565b60126020526000908152604090205481565b601854600114613930576040805162461bcd60e51b815260206004820152600c60248201526b12d9595b8e881313d0d2d15160a21b604482015290519081900360640190fd5b60006018819055600754604080516370a0823160e01b815230600482015290516001600160a01b03909216916370a0823191602480820192602092909190829003018186803b15801561398257600080fd5b505afa158015613996573d6000803e3d6000fd5b505050506040513d60208110156139ac57600080fd5b50516009549091506001600160a01b031615613a1157600954604080516370a0823160e01b81523060048201529051613a0e926001600160a01b0316916370a08231916024808301926020929190829003018186803b158015610ffb57600080fd5b90505b600854604080516370a0823160e01b815230600482015290516000926001600160a01b0316916370a08231916024808301926020929190829003018186803b158015613a5c57600080fd5b505afa158015613a70573d6000803e3d6000fd5b505050506040513d6020811015613a8657600080fd5b5051600a549091506001600160a01b031615613aeb57600a54604080516370a0823160e01b81523060048201529051613ae8926001600160a01b0316916370a08231916024808301926020929190829003018186803b158015610ffb57600080fd5b90505b600b54613b0f90839083906001600160701b0380821691600160701b9004166143e4565b50506001601855565b6001600160a01b03808416600081815260026020908152604080832094871680845294825291829020859055815185815291517f8c5be1e5ebec7d5bd14f71427d1e84f3dd0314c0f7b2291e5b200ac8c7c3b9259281900390910190a3505050565b80820382811115610dc6576040805162461bcd60e51b815260206004820152601560248201527464732d6d6174682d7375622d756e646572666c6f7760581b604482015290519081900360640190fd5b6001600160a01b038316600090815260016020526040902054613bf3908263ffffffff613b7a16565b6001600160a01b038085166000908152600160205260408082209390935590841681522054613c28908263ffffffff613c8416565b6001600160a01b0380841660008181526001602090815260409182902094909455805185815290519193928716927fddf252ad1be2c89b69c2b068fc378daa952ba7f163c4a11628f55a4df523b3ef92918290030190a3505050565b80820182811015610dc6576040805162461bcd60e51b815260206004820152601460248201527364732d6d6174682d6164642d6f766572666c6f7760601b604482015290519081900360640190fd5b604080518082018252601981527f7472616e7366657228616464726573732c75696e74323536290000000000000060209182015281516001600160a01b0385811660248301526044808301869052845180840390910181526064909201845291810180516001600160e01b031663a9059cbb60e01b1781529251815160009460609489169392918291908083835b60208310613d805780518252601f199092019160209182019101613d61565b6001836020036101000a0380198251168184511680821785525050505050509050019150506000604051808303816000865af19150503d8060008114613de2576040519150601f19603f3d011682016040523d82523d6000602084013e613de7565b606091505b5091509150818015613e15575080511580613e155750808060200190516020811015613e1257600080fd5b50515b613e5e576040805162461bcd60e51b815260206004820152601560248201527412d9595b8e881514905394d1915497d19052531151605a1b604482015290519081900360640190fd5b5050505050565b600080600560009054906101000a90046001600160a01b03166001600160a01b031663017e7e586040518163ffffffff1660e01b815260040160206040518083038186803b158015613eb657600080fd5b505afa158015613eca573d6000803e3d6000fd5b505050506040513d6020811015613ee057600080fd5b5051600e546001600160a01b038216158015945091925090613fd0578015613fcb576000613f236118e46001600160701b0388811690881663ffffffff613fe416565b90506000613f3083614047565b905080821115613fc8576000613f6f6008613f63613f54868663ffffffff613b7a16565b6000549063ffffffff613fe416565b9063ffffffff613fe416565b90506000613fa4613f8784600863ffffffff613fe416565b613f9886601163ffffffff613fe416565b9063ffffffff613c8416565b90506000818381613fb157fe5b0490508015613fc457613fc48782614098565b5050505b50505b613fdc565b8015613fdc576000600e555b505092915050565b6000811580613fff57505080820282828281613ffc57fe5b04145b610dc6576040805162461bcd60e51b815260206004820152601460248201527364732d6d6174682d6d756c2d6f766572666c6f7760601b604482015290519081900360640190fd5b6000600382111561408a575080600160028204015b818110156140845780915060028182858161407357fe5b04018161407c57fe5b04905061405c565b5061135c565b811561135c57506001919050565b6000546140ab908263ffffffff613c8416565b60009081556001600160a01b0383168152600160205260409020546140d6908263ffffffff613c8416565b6001600160a01b03831660008181526001602090815260408083209490945583518581529351929391927fddf252ad1be2c89b69c2b068fc378daa952ba7f163c4a11628f55a4df523b3ef9281900390910190a35050565b600081831061413d578161413f565b825b9392505050565b60055460408051633c552cfb60e11b815290516000926001600160a01b0316916378aa59f6916004808301926020929190829003018186803b15801561418b57600080fd5b505afa15801561419f573d6000803e3d6000fd5b505050506040513d60208110156141b557600080fd5b5051604080516360b65a7d60e01b815290519192506000916001600160a01b038416916360b65a7d916004808301926020929190829003018186803b1580156141fd57600080fd5b505afa158015614211573d6000803e3d6000fd5b505050506040513d602081101561422757600080fd5b50519050806142375750506143e0565b6000614249848363ffffffff61484316565b90506000836001600160a01b0316635d915ebb6040518163ffffffff1660e01b815260040160206040518083038186803b15801561428657600080fd5b505afa15801561429a573d6000803e3d6000fd5b505050506040513d60208110156142b057600080fd5b505160408051631255c73360e31b815290519192506000916001600160a01b038716916392ae3998916004808301926020929190829003018186803b1580156142f857600080fd5b505afa15801561430c573d6000803e3d6000fd5b505050506040513d602081101561432257600080fd5b505190508015806143335750836001145b1561437d576001600160a01b0387166000818152601660209081526040808320805460018101825590845282842001869055928252601781528282208583529052208690556143da565b60005b848110156143d8576001600160a01b03881660008181526016602090815260408083208054600181810183559185528385208888028a0191018190559484526017835281842094845293909152902085905501614380565b505b50505050505b5050565b6001600160701b03841180159061440257506001600160701b038311155b614444576040805162461bcd60e51b815260206004820152600e60248201526d4b65656e3a204f564552464c4f5760901b604482015290519081900360640190fd5b600b5463ffffffff42811691600160e01b9004811682039081161580159061447457506001600160701b03841615155b801561448857506001600160701b03831615155b156144f9578063ffffffff166144b6856144a1866148a1565b6001600160e01b03169063ffffffff6148b316565b600c80546001600160e01b03929092169290920201905563ffffffff81166144e1846144a1876148a1565b600d80546001600160e01b0392909216929092020190555b600b80546dffffffffffffffffffffffffffff19166001600160701b03888116919091176dffffffffffffffffffffffffffff60701b1916600160701b8883168102919091176001600160e01b0316600160e01b63ffffffff871602179283905560408051848416815291909304909116602082015281517f1c411e9a96e071241c2f21f7726b17ae89e3cab4c78be50e062b03a9fffbbad1929181900390910190a1505050505050565b6007546006546000916001600160a01b03918216911614156145c75750826145e3565b6008546006546001600160a01b03908116911614156145e35750815b816001141561460757600f546145ff908263ffffffff613c8416565b600f5561464b565b816002141561462b57601054614623908263ffffffff613c8416565b60105561464b565b816003141561464b57601154614647908263ffffffff613c8416565b6011555b50505050565b6001600160a01b03821660009081526001602052604090205461467a908263ffffffff613b7a16565b6001600160a01b038316600090815260016020526040812091909155546146a7908263ffffffff613b7a16565b60009081556040805183815290516001600160a01b038516917fddf252ad1be2c89b69c2b068fc378daa952ba7f163c4a11628f55a4df523b3ef919081900360200190a35050565b60006146fa83611aa7565b614705575080610dc6565b6000805b6001600160a01b03851660009081526016602052604090205481101561483b57836147335761483b565b6001600160a01b038516600090815260166020526040812080548390811061475757fe5b906000526020600020015490504281106147715750614833565b6001600160a01b0386166000908152601760209081526040808320848452909152902054806147a1575050614833565b60008682116147b057816147b2565b865b9485019490506147c8828263ffffffff613b7a16565b6001600160a01b0389166000908152601760209081526040808320878452909152902080549190910390819055968190039661482f576001600160a01b038816600090815260166020526040812080548690811061482257fe5b6000918252602090912001555b5050505b600101614709565b509392505050565b6000808211614890576040805162461bcd60e51b815260206004820152601460248201527364732d6d6174682d6469762d6f766572666c6f7760601b604482015290519081900360640190fd5b81838161489957fe5b049392505050565b6001600160701b0316600160701b0290565b60006001600160701b0382166001600160e01b0384168161489957fefe4b65656e3a20494e53554646494349454e545f4c49515549444954595f4d494e5445444b65656e3a20494e53554646494349454e545f4c49515549444954595f4255524e4544a265627a7a72315820b9680ee17a15e233b97e1a6a30651b97f4bc9133596821f8721749d3838cda5064736f6c63430005100032454950373132446f6d61696e28737472696e67206e616d652c737472696e672076657273696f6e2c75696e7432353620636861696e49642c6164647265737320766572696679696e67436f6e7472616374294b65656e3a2072657175697265207265706c616365506174685b305d206f72207265706c616365506174685b315d206973207a65726fa265627a7a72315820f5756bd4d3ce43b9ebe09944265ff69ba1d1c3f5fcfa8ed3e90202afc7fd12d864736f6c63430005100032",
  "linkReferences": {},
  "deployedLinkReferences": {}
}